{
  "_format": "hh-sol-artifact-1",
  "contractName": "NodeFiBridgeAdapter",
  "sourceName": "contracts/NodeFiBridgeAdapter.sol",
  "abi": [
    {
      "anonymous": false,
      "inputs": [
        {
          "indexed": false,
          "internalType": "address",
          "name": "previousAdmin",
          "type": "address"
        },
        {
          "indexed": false,
          "internalType": "address",
          "name": "newAdmin",
          "type": "address"
        }
      ],
      "name": "AdminChanged",
      "type": "event"
    },
    {
      "anonymous": false,
      "inputs": [
        {
          "indexed": true,
          "internalType": "address",
          "name": "beacon",
          "type": "address"
        }
      ],
      "name": "BeaconUpgraded",
      "type": "event"
    },
    {
      "anonymous": false,
      "inputs": [
        {
          "indexed": false,
          "internalType": "uint256",
          "name": "amount",
          "type": "uint256"
        },
        {
          "indexed": false,
          "internalType": "uint256",
          "name": "timestamp",
          "type": "uint256"
        }
      ],
      "name": "BridgeYieldReceived",
      "type": "event"
    },
    {
      "anonymous": false,
      "inputs": [
        {
          "indexed": true,
          "internalType": "address",
          "name": "newDistributor",
          "type": "address"
        }
      ],
      "name": "DistributorUpdated",
      "type": "event"
    },
    {
      "anonymous": false,
      "inputs": [
        {
          "indexed": false,
          "internalType": "uint8",
          "name": "version",
          "type": "uint8"
        }
      ],
      "name": "Initialized",
      "type": "event"
    },
    {
      "anonymous": false,
      "inputs": [
        {
          "indexed": true,
          "internalType": "address",
          "name": "previousOwner",
          "type": "address"
        },
        {
          "indexed": true,
          "internalType": "address",
          "name": "newOwner",
          "type": "address"
        }
      ],
      "name": "OwnershipTransferred",
      "type": "event"
    },
    {
      "anonymous": false,
      "inputs": [
        {
          "indexed": false,
          "internalType": "address",
          "name": "account",
          "type": "address"
        }
      ],
      "name": "Paused",
      "type": "event"
    },
    {
      "anonymous": false,
      "inputs": [
        {
          "indexed": true,
          "internalType": "address",
          "name": "newRelayer",
          "type": "address"
        }
      ],
      "name": "RelayerUpdated",
      "type": "event"
    },
    {
      "anonymous": false,
      "inputs": [
        {
          "indexed": false,
          "internalType": "address",
          "name": "account",
          "type": "address"
        }
      ],
      "name": "Unpaused",
      "type": "event"
    },
    {
      "anonymous": false,
      "inputs": [
        {
          "indexed": true,
          "internalType": "address",
          "name": "implementation",
          "type": "address"
        }
      ],
      "name": "Upgraded",
      "type": "event"
    },
    {
      "anonymous": false,
      "inputs": [
        {
          "indexed": true,
          "internalType": "address",
          "name": "relayer",
          "type": "address"
        },
        {
          "indexed": false,
          "internalType": "uint256",
          "name": "amount",
          "type": "uint256"
        }
      ],
      "name": "YieldDeposited",
      "type": "event"
    },
    {
      "anonymous": false,
      "inputs": [
        {
          "indexed": true,
          "internalType": "address",
          "name": "caller",
          "type": "address"
        },
        {
          "indexed": false,
          "internalType": "address[]",
          "name": "recipients",
          "type": "address[]"
        },
        {
          "indexed": false,
          "internalType": "uint256[]",
          "name": "amountsAllocated",
          "type": "uint256[]"
        },
        {
          "indexed": false,
          "internalType": "uint256[]",
          "name": "amountsBoosted",
          "type": "uint256[]"
        }
      ],
      "name": "YieldForwarded",
      "type": "event"
    },
    {
      "stateMutability": "payable",
      "type": "fallback"
    },
    {
      "inputs": [],
      "name": "bridgeToken",
      "outputs": [
        {
          "internalType": "contract IERC20Upgradeable",
          "name": "",
          "type": "address"
        }
      ],
      "stateMutability": "view",
      "type": "function"
    },
    {
      "inputs": [
        {
          "internalType": "uint256",
          "name": "amount",
          "type": "uint256"
        }
      ],
      "name": "depositYield",
      "outputs": [],
      "stateMutability": "nonpayable",
      "type": "function"
    },
    {
      "inputs": [],
      "name": "distributor",
      "outputs": [
        {
          "internalType": "contract IRewardsDistributor",
          "name": "",
          "type": "address"
        }
      ],
      "stateMutability": "view",
      "type": "function"
    },
    {
      "inputs": [
        {
          "internalType": "address[]",
          "name": "users",
          "type": "address[]"
        },
        {
          "internalType": "uint256[]",
          "name": "nodeAmounts",
          "type": "uint256[]"
        },
        {
          "internalType": "uint256[]",
          "name": "uniAmounts",
          "type": "uint256[]"
        }
      ],
      "name": "forwardYield",
      "outputs": [],
      "stateMutability": "nonpayable",
      "type": "function"
    },
    {
      "inputs": [
        {
          "internalType": "address",
          "name": "_bridgeToken",
          "type": "address"
        },
        {
          "internalType": "address",
          "name": "_distributor",
          "type": "address"
        },
        {
          "internalType": "address",
          "name": "_relayer",
          "type": "address"
        }
      ],
      "name": "initialize",
      "outputs": [],
      "stateMutability": "nonpayable",
      "type": "function"
    },
    {
      "inputs": [],
      "name": "owner",
      "outputs": [
        {
          "internalType": "address",
          "name": "",
          "type": "address"
        }
      ],
      "stateMutability": "view",
      "type": "function"
    },
    {
      "inputs": [],
      "name": "paused",
      "outputs": [
        {
          "internalType": "bool",
          "name": "",
          "type": "bool"
        }
      ],
      "stateMutability": "view",
      "type": "function"
    },
    {
      "inputs": [],
      "name": "proxiableUUID",
      "outputs": [
        {
          "internalType": "bytes32",
          "name": "",
          "type": "bytes32"
        }
      ],
      "stateMutability": "view",
      "type": "function"
    },
    {
      "inputs": [],
      "name": "relayer",
      "outputs": [
        {
          "internalType": "address",
          "name": "",
          "type": "address"
        }
      ],
      "stateMutability": "view",
      "type": "function"
    },
    {
      "inputs": [],
      "name": "renounceOwnership",
      "outputs": [],
      "stateMutability": "nonpayable",
      "type": "function"
    },
    {
      "inputs": [
        {
          "internalType": "address",
          "name": "_distributor",
          "type": "address"
        }
      ],
      "name": "setDistributor",
      "outputs": [],
      "stateMutability": "nonpayable",
      "type": "function"
    },
    {
      "inputs": [
        {
          "internalType": "address",
          "name": "_relayer",
          "type": "address"
        }
      ],
      "name": "setRelayer",
      "outputs": [],
      "stateMutability": "nonpayable",
      "type": "function"
    },
    {
      "inputs": [
        {
          "internalType": "address",
          "name": "newOwner",
          "type": "address"
        }
      ],
      "name": "transferOwnership",
      "outputs": [],
      "stateMutability": "nonpayable",
      "type": "function"
    },
    {
      "inputs": [
        {
          "internalType": "address",
          "name": "newImplementation",
          "type": "address"
        }
      ],
      "name": "upgradeTo",
      "outputs": [],
      "stateMutability": "nonpayable",
      "type": "function"
    },
    {
      "inputs": [
        {
          "internalType": "address",
          "name": "newImplementation",
          "type": "address"
        },
        {
          "internalType": "bytes",
          "name": "data",
          "type": "bytes"
        }
      ],
      "name": "upgradeToAndCall",
      "outputs": [],
      "stateMutability": "payable",
      "type": "function"
    },
    {
      "stateMutability": "payable",
      "type": "receive"
    }
  ],
  "bytecode": "0x60a06040523060805234801561001457600080fd5b50608051611b2561004c6000396000818161036f015281816103af0152818161044e0152818161048e01526105210152611b256000f3fe6080604052600436106100ec5760003560e01c80637cf4c01b1161008a578063c0c53b8b11610059578063c0c53b8b146102e4578063d8b0d73d14610304578063f2fde38b14610324578063f4734b0c1461034457610136565b80637cf4c01b1461024c5780638406c0791461026c5780638da5cb5b146102a5578063bfe10928146102c357610136565b80635c975abb116100c65780635c975abb146101d45780636548e9bc146101f7578063715018a61461021757806375619ab51461022c57610136565b80633659cfe6146101775780634f1ef2861461019957806352d1902d146101ac57610136565b366101365760405162461bcd60e51b8152602060048201526015602482015274084e4d2c8ceca82c8c2e0e8cae47440dcde408aa89605b1b60448201526064015b60405180910390fd5b60405162461bcd60e51b8152602060048201526016602482015275109c9a5919d95059185c1d195c8e881a5b9d985b1a5960521b604482015260640161012d565b34801561018357600080fd5b506101976101923660046115d9565b610365565b005b6101976101a736600461160a565b610444565b3480156101b857600080fd5b506101c1610514565b6040519081526020015b60405180910390f35b3480156101e057600080fd5b5060655460ff1660405190151581526020016101cb565b34801561020357600080fd5b506101976102123660046115d9565b6105c7565b34801561022357600080fd5b5061019761066e565b34801561023857600080fd5b506101976102473660046115d9565b610682565b34801561025857600080fd5b506101976102673660046116cc565b610729565b34801561027857600080fd5b5061012f5461028d906001600160a01b031681565b6040516001600160a01b0390911681526020016101cb565b3480156102b157600080fd5b506033546001600160a01b031661028d565b3480156102cf57600080fd5b5061012e5461028d906001600160a01b031681565b3480156102f057600080fd5b506101976102ff3660046116e5565b610807565b34801561031057600080fd5b5061019761031f366004611774565b6109ec565b34801561033057600080fd5b5061019761033f3660046115d9565b610bb3565b34801561035057600080fd5b5061012d5461028d906001600160a01b031681565b6001600160a01b037f00000000000000000000000000000000000000000000000000000000000000001630036103ad5760405162461bcd60e51b815260040161012d9061180e565b7f00000000000000000000000000000000000000000000000000000000000000006001600160a01b03166103f6600080516020611aa9833981519152546001600160a01b031690565b6001600160a01b03161461041c5760405162461bcd60e51b815260040161012d9061185a565b61042581610c29565b6040805160008082526020820190925261044191839190610c31565b50565b6001600160a01b037f000000000000000000000000000000000000000000000000000000000000000016300361048c5760405162461bcd60e51b815260040161012d9061180e565b7f00000000000000000000000000000000000000000000000000000000000000006001600160a01b03166104d5600080516020611aa9833981519152546001600160a01b031690565b6001600160a01b0316146104fb5760405162461bcd60e51b815260040161012d9061185a565b61050482610c29565b61051082826001610c31565b5050565b6000306001600160a01b037f000000000000000000000000000000000000000000000000000000000000000016146105b45760405162461bcd60e51b815260206004820152603860248201527f555550535570677261646561626c653a206d757374206e6f742062652063616c60448201527f6c6564207468726f7567682064656c656761746563616c6c0000000000000000606482015260840161012d565b50600080516020611aa983398151915290565b6105cf610da1565b6105d7610dfb565b6001600160a01b0381166106235760405162461bcd60e51b8152602060048201526013602482015272427269646765416461707465723a207a65726f60681b604482015260640161012d565b61012f80546001600160a01b0319166001600160a01b0383169081179091556040517f09bf35b7806e61e7baf86e6547c4221f69d130ccc0a19215d064685a89464a7090600090a250565b610676610da1565b6106806000610e41565b565b61068a610da1565b610692610dfb565b6001600160a01b0381166106de5760405162461bcd60e51b8152602060048201526013602482015272427269646765416461707465723a207a65726f60681b604482015260640161012d565b61012e80546001600160a01b0319166001600160a01b0383169081179091556040517fc0ebb188f905d128bcd7e4282dd1f9cf24cd331b69071002e488349aca6a867b90600090a250565b610731610e93565b610739610dfb565b61012f546001600160a01b0316331480156107545750600081115b6107ac5760405162461bcd60e51b815260206004820152602360248201527f427269646765416461707465723a20756e617574686f72697a6564206f72207a60448201526265726f60e81b606482015260840161012d565b61012d546107c5906001600160a01b0316333084610eec565b604080518281524260208201527f2fde8e34d99e706634314067d12b0c30c2bb0964a0807cc91658c230ba324e42910160405180910390a16104416001609755565b600054610100900460ff16158080156108275750600054600160ff909116105b806108415750303b158015610841575060005460ff166001145b6108a45760405162461bcd60e51b815260206004820152602e60248201527f496e697469616c697a61626c653a20636f6e747261637420697320616c72656160448201526d191e481a5b9a5d1a585b1a5e995960921b606482015260840161012d565b6000805460ff1916600117905580156108c7576000805461ff0019166101001790555b6108cf610f5e565b6108d7610f8d565b6108df610fbc565b6108e7610feb565b6001600160a01b0384161580159061090757506001600160a01b03831615155b801561091b57506001600160a01b03821615155b6109605760405162461bcd60e51b8152602060048201526016602482015275109c9a5919d95059185c1d195c8e881a5b9d985b1a5960521b604482015260640161012d565b61012d80546001600160a01b038087166001600160a01b03199283161790925561012e805486841690831617905561012f80549285169290911691909117905580156109e6576000805461ff0019169055604051600181527f7f26b83ff96e1f2b6a682f133852f6798a09c465da95921460cefb38474024989060200160405180910390a15b50505050565b6109f4610da1565b6109fc610dfb565b6000805b86811015610a6257838382818110610a1a57610a1a6118a6565b90506020020135868683818110610a3357610a336118a6565b90506020020135610a4491906118d2565b610a4e90836118d2565b915080610a5a816118e5565b915050610a00565b5061012d546040516370a0823160e01b815230600482015282916001600160a01b0316906370a0823190602401602060405180830381865afa158015610aac573d6000803e3d6000fd5b505050506040513d601f19601f82011682018060405250810190610ad091906118fe565b1015610b1e5760405162461bcd60e51b815260206004820152601b60248201527f427269646765416461707465723a20696e73756666696369656e740000000000604482015260640161012d565b61012e5461012d54610b3d916001600160a01b03918216911683611012565b61012e5460405163c985f21360e01b81526001600160a01b039091169063c985f21390610b78908a908a908a908a908a908a90600401611949565b600060405180830381600087803b158015610b9257600080fd5b505af1158015610ba6573d6000803e3d6000fd5b5050505050505050505050565b610bbb610da1565b6001600160a01b038116610c205760405162461bcd60e51b815260206004820152602660248201527f4f776e61626c653a206e6577206f776e657220697320746865207a65726f206160448201526564647265737360d01b606482015260840161012d565b61044181610e41565b610441610da1565b7f4910fdfa16fed3260ed0e7147f7cc6da11a60208b5b9406d12a635614ffd91435460ff1615610c6957610c6483611127565b505050565b826001600160a01b03166352d1902d6040518163ffffffff1660e01b8152600401602060405180830381865afa925050508015610cc3575060408051601f3d908101601f19168201909252610cc0918101906118fe565b60015b610d265760405162461bcd60e51b815260206004820152602e60248201527f45524331393637557067726164653a206e657720696d706c656d656e7461746960448201526d6f6e206973206e6f74205555505360901b606482015260840161012d565b600080516020611aa98339815191528114610d955760405162461bcd60e51b815260206004820152602960248201527f45524331393637557067726164653a20756e737570706f727465642070726f786044820152681a58589b195555525160ba1b606482015260840161012d565b50610c648383836111c3565b6033546001600160a01b031633146106805760405162461bcd60e51b815260206004820181905260248201527f4f776e61626c653a2063616c6c6572206973206e6f7420746865206f776e6572604482015260640161012d565b60655460ff16156106805760405162461bcd60e51b815260206004820152601060248201526f14185d5cd8589b194e881c185d5cd95960821b604482015260640161012d565b603380546001600160a01b038381166001600160a01b0319831681179093556040519116919082907f8be0079c531659141344cd1fd0a4f28419497f9722a3daafe3b4186f6b6457e090600090a35050565b600260975403610ee55760405162461bcd60e51b815260206004820152601f60248201527f5265656e7472616e637947756172643a207265656e7472616e742063616c6c00604482015260640161012d565b6002609755565b6040516001600160a01b03808516602483015283166044820152606481018290526109e69085906323b872dd60e01b906084015b60408051601f198184030181529190526020810180516001600160e01b03166001600160e01b0319909316929092179091526111e8565b6001609755565b600054610100900460ff16610f855760405162461bcd60e51b815260040161012d906119c1565b6106806112bd565b600054610100900460ff16610fb45760405162461bcd60e51b815260040161012d906119c1565b6106806112ed565b600054610100900460ff16610fe35760405162461bcd60e51b815260040161012d906119c1565b610680611320565b600054610100900460ff166106805760405162461bcd60e51b815260040161012d906119c1565b80158061108c5750604051636eb1769f60e11b81523060048201526001600160a01b03838116602483015284169063dd62ed3e90604401602060405180830381865afa158015611066573d6000803e3d6000fd5b505050506040513d601f19601f8201168201806040525081019061108a91906118fe565b155b6110f75760405162461bcd60e51b815260206004820152603660248201527f5361666545524332303a20617070726f76652066726f6d206e6f6e2d7a65726f60448201527520746f206e6f6e2d7a65726f20616c6c6f77616e636560501b606482015260840161012d565b6040516001600160a01b038316602482015260448101829052610c6490849063095ea7b360e01b90606401610f20565b6001600160a01b0381163b6111945760405162461bcd60e51b815260206004820152602d60248201527f455243313936373a206e657720696d706c656d656e746174696f6e206973206e60448201526c1bdd08184818dbdb9d1c9858dd609a1b606482015260840161012d565b600080516020611aa983398151915280546001600160a01b0319166001600160a01b0392909216919091179055565b6111cc83611347565b6000825111806111d95750805b15610c64576109e68383611387565b600061123d826040518060400160405280602081526020017f5361666545524332303a206c6f772d6c6576656c2063616c6c206661696c6564815250856001600160a01b03166113b59092919063ffffffff16565b905080516000148061125e57508080602001905181019061125e9190611a0c565b610c645760405162461bcd60e51b815260206004820152602a60248201527f5361666545524332303a204552433230206f7065726174696f6e20646964206e6044820152691bdd081cdd58d8d9595960b21b606482015260840161012d565b600054610100900460ff166112e45760405162461bcd60e51b815260040161012d906119c1565b61068033610e41565b600054610100900460ff166113145760405162461bcd60e51b815260040161012d906119c1565b6065805460ff19169055565b600054610100900460ff16610f575760405162461bcd60e51b815260040161012d906119c1565b61135081611127565b6040516001600160a01b038216907fbc7cd75a20ee27fd9adebab32041f755214dbc6bffa90cc0225b39da2e5c2d3b90600090a250565b60606113ac8383604051806060016040528060278152602001611ac9602791396113cc565b90505b92915050565b60606113c48484600085611444565b949350505050565b6060600080856001600160a01b0316856040516113e99190611a59565b600060405180830381855af49150503d8060008114611424576040519150601f19603f3d011682016040523d82523d6000602084013e611429565b606091505b509150915061143a8683838761151f565b9695505050505050565b6060824710156114a55760405162461bcd60e51b815260206004820152602660248201527f416464726573733a20696e73756666696369656e742062616c616e636520666f6044820152651c8818d85b1b60d21b606482015260840161012d565b600080866001600160a01b031685876040516114c19190611a59565b60006040518083038185875af1925050503d80600081146114fe576040519150601f19603f3d011682016040523d82523d6000602084013e611503565b606091505b50915091506115148783838761151f565b979650505050505050565b6060831561158e578251600003611587576001600160a01b0385163b6115875760405162461bcd60e51b815260206004820152601d60248201527f416464726573733a2063616c6c20746f206e6f6e2d636f6e7472616374000000604482015260640161012d565b50816113c4565b6113c483838151156115a35781518083602001fd5b8060405162461bcd60e51b815260040161012d9190611a75565b80356001600160a01b03811681146115d457600080fd5b919050565b6000602082840312156115eb57600080fd5b6113ac826115bd565b634e487b7160e01b600052604160045260246000fd5b6000806040838503121561161d57600080fd5b611626836115bd565b9150602083013567ffffffffffffffff8082111561164357600080fd5b818501915085601f83011261165757600080fd5b813581811115611669576116696115f4565b604051601f8201601f19908116603f01168101908382118183101715611691576116916115f4565b816040528281528860208487010111156116aa57600080fd5b8260208601602083013760006020848301015280955050505050509250929050565b6000602082840312156116de57600080fd5b5035919050565b6000806000606084860312156116fa57600080fd5b611703846115bd565b9250611711602085016115bd565b915061171f604085016115bd565b90509250925092565b60008083601f84011261173a57600080fd5b50813567ffffffffffffffff81111561175257600080fd5b6020830191508360208260051b850101111561176d57600080fd5b9250929050565b6000806000806000806060878903121561178d57600080fd5b863567ffffffffffffffff808211156117a557600080fd5b6117b18a838b01611728565b909850965060208901359150808211156117ca57600080fd5b6117d68a838b01611728565b909650945060408901359150808211156117ef57600080fd5b506117fc89828a01611728565b979a9699509497509295939492505050565b6020808252602c908201527f46756e6374696f6e206d7573742062652063616c6c6564207468726f7567682060408201526b19195b1959d85d1958d85b1b60a21b606082015260800190565b6020808252602c908201527f46756e6374696f6e206d7573742062652063616c6c6564207468726f7567682060408201526b6163746976652070726f787960a01b606082015260800190565b634e487b7160e01b600052603260045260246000fd5b634e487b7160e01b600052601160045260246000fd5b808201808211156113af576113af6118bc565b6000600182016118f7576118f76118bc565b5060010190565b60006020828403121561191057600080fd5b5051919050565b81835260006001600160fb1b0383111561193057600080fd5b8260051b80836020870137939093016020019392505050565b6060808252810186905260008760808301825b8981101561198a576001600160a01b03611975846115bd565b1682526020928301929091019060010161195c565b50838103602085015261199e81888a611917565b91505082810360408401526119b4818587611917565b9998505050505050505050565b6020808252602b908201527f496e697469616c697a61626c653a20636f6e7472616374206973206e6f74206960408201526a6e697469616c697a696e6760a81b606082015260800190565b600060208284031215611a1e57600080fd5b81518015158114611a2e57600080fd5b9392505050565b60005b83811015611a50578181015183820152602001611a38565b50506000910152565b60008251611a6b818460208701611a35565b9190910192915050565b6020815260008251806020840152611a94816040850160208701611a35565b601f01601f1916919091016040019291505056fe360894a13ba1a3210667c828492db98dca3e2076cc3735a920a3ca505d382bbc416464726573733a206c6f772d6c6576656c2064656c65676174652063616c6c206661696c6564a2646970667358221220d42b94be9a6aa7d935130340f3e709741233ca01c3b9275e6f9b531e1ffb7b0564736f6c63430008140033",
  "linkReferences": {},
  "deployedLinkReferences": {}
}