{
  "_format": "hh-sol-artifact-1",
  "contractName": "NodeFiVeToken",
  "sourceName": "contracts/NodeFiVeToken.sol",
  "abi": [
    {
      "anonymous": false,
      "inputs": [
        {
          "indexed": false,
          "internalType": "address",
          "name": "previousAdmin",
          "type": "address"
        },
        {
          "indexed": false,
          "internalType": "address",
          "name": "newAdmin",
          "type": "address"
        }
      ],
      "name": "AdminChanged",
      "type": "event"
    },
    {
      "anonymous": false,
      "inputs": [
        {
          "indexed": true,
          "internalType": "address",
          "name": "user",
          "type": "address"
        },
        {
          "indexed": false,
          "internalType": "uint256",
          "name": "addedAmount",
          "type": "uint256"
        },
        {
          "indexed": false,
          "internalType": "uint256",
          "name": "newTotal",
          "type": "uint256"
        }
      ],
      "name": "AmountIncreased",
      "type": "event"
    },
    {
      "anonymous": false,
      "inputs": [
        {
          "indexed": true,
          "internalType": "address",
          "name": "beacon",
          "type": "address"
        }
      ],
      "name": "BeaconUpgraded",
      "type": "event"
    },
    {
      "anonymous": false,
      "inputs": [
        {
          "indexed": false,
          "internalType": "uint8",
          "name": "version",
          "type": "uint8"
        }
      ],
      "name": "Initialized",
      "type": "event"
    },
    {
      "anonymous": false,
      "inputs": [
        {
          "indexed": true,
          "internalType": "address",
          "name": "user",
          "type": "address"
        },
        {
          "indexed": false,
          "internalType": "uint256",
          "name": "amount",
          "type": "uint256"
        },
        {
          "indexed": false,
          "internalType": "uint256",
          "name": "unlockTime",
          "type": "uint256"
        }
      ],
      "name": "LockCreated",
      "type": "event"
    },
    {
      "anonymous": false,
      "inputs": [
        {
          "indexed": true,
          "internalType": "address",
          "name": "previousOwner",
          "type": "address"
        },
        {
          "indexed": true,
          "internalType": "address",
          "name": "newOwner",
          "type": "address"
        }
      ],
      "name": "OwnershipTransferred",
      "type": "event"
    },
    {
      "anonymous": false,
      "inputs": [
        {
          "indexed": false,
          "internalType": "address",
          "name": "account",
          "type": "address"
        }
      ],
      "name": "Paused",
      "type": "event"
    },
    {
      "anonymous": false,
      "inputs": [
        {
          "indexed": true,
          "internalType": "uint32",
          "name": "epoch",
          "type": "uint32"
        },
        {
          "indexed": false,
          "internalType": "uint256",
          "name": "timestamp",
          "type": "uint256"
        },
        {
          "indexed": false,
          "internalType": "uint256",
          "name": "supply",
          "type": "uint256"
        }
      ],
      "name": "SupplyCheckpointed",
      "type": "event"
    },
    {
      "anonymous": false,
      "inputs": [
        {
          "indexed": false,
          "internalType": "uint256",
          "name": "newEpoch",
          "type": "uint256"
        },
        {
          "indexed": false,
          "internalType": "uint256",
          "name": "totalVeSupply",
          "type": "uint256"
        }
      ],
      "name": "SupplyEpochAdvanced",
      "type": "event"
    },
    {
      "anonymous": false,
      "inputs": [
        {
          "indexed": true,
          "internalType": "address",
          "name": "user",
          "type": "address"
        },
        {
          "indexed": false,
          "internalType": "uint256",
          "name": "oldUnlockTime",
          "type": "uint256"
        },
        {
          "indexed": false,
          "internalType": "uint256",
          "name": "newUnlockTime",
          "type": "uint256"
        }
      ],
      "name": "TimeExtended",
      "type": "event"
    },
    {
      "anonymous": false,
      "inputs": [
        {
          "indexed": false,
          "internalType": "address",
          "name": "account",
          "type": "address"
        }
      ],
      "name": "Unpaused",
      "type": "event"
    },
    {
      "anonymous": false,
      "inputs": [
        {
          "indexed": true,
          "internalType": "address",
          "name": "implementation",
          "type": "address"
        }
      ],
      "name": "Upgraded",
      "type": "event"
    },
    {
      "anonymous": false,
      "inputs": [
        {
          "indexed": true,
          "internalType": "address",
          "name": "user",
          "type": "address"
        },
        {
          "indexed": false,
          "internalType": "uint256",
          "name": "amount",
          "type": "uint256"
        }
      ],
      "name": "Withdrawn",
      "type": "event"
    },
    {
      "stateMutability": "payable",
      "type": "fallback"
    },
    {
      "inputs": [],
      "name": "MAX_TIME",
      "outputs": [
        {
          "internalType": "uint256",
          "name": "",
          "type": "uint256"
        }
      ],
      "stateMutability": "view",
      "type": "function"
    },
    {
      "inputs": [
        {
          "internalType": "uint256",
          "name": "amount",
          "type": "uint256"
        },
        {
          "internalType": "uint256",
          "name": "unlockTime",
          "type": "uint256"
        }
      ],
      "name": "createLock",
      "outputs": [],
      "stateMutability": "nonpayable",
      "type": "function"
    },
    {
      "inputs": [
        {
          "internalType": "uint256",
          "name": "added",
          "type": "uint256"
        }
      ],
      "name": "increaseAmount",
      "outputs": [],
      "stateMutability": "nonpayable",
      "type": "function"
    },
    {
      "inputs": [
        {
          "internalType": "uint256",
          "name": "newUnlockTime",
          "type": "uint256"
        }
      ],
      "name": "increaseUnlockTime",
      "outputs": [],
      "stateMutability": "nonpayable",
      "type": "function"
    },
    {
      "inputs": [
        {
          "internalType": "address",
          "name": "_nodeToken",
          "type": "address"
        }
      ],
      "name": "initialize",
      "outputs": [],
      "stateMutability": "nonpayable",
      "type": "function"
    },
    {
      "inputs": [
        {
          "internalType": "address",
          "name": "",
          "type": "address"
        }
      ],
      "name": "lockEnd",
      "outputs": [
        {
          "internalType": "uint256",
          "name": "",
          "type": "uint256"
        }
      ],
      "stateMutability": "view",
      "type": "function"
    },
    {
      "inputs": [
        {
          "internalType": "address",
          "name": "",
          "type": "address"
        }
      ],
      "name": "lockedAmount",
      "outputs": [
        {
          "internalType": "uint256",
          "name": "",
          "type": "uint256"
        }
      ],
      "stateMutability": "view",
      "type": "function"
    },
    {
      "inputs": [],
      "name": "nodeToken",
      "outputs": [
        {
          "internalType": "contract IERC20Upgradeable",
          "name": "",
          "type": "address"
        }
      ],
      "stateMutability": "view",
      "type": "function"
    },
    {
      "inputs": [],
      "name": "owner",
      "outputs": [
        {
          "internalType": "address",
          "name": "",
          "type": "address"
        }
      ],
      "stateMutability": "view",
      "type": "function"
    },
    {
      "inputs": [],
      "name": "paused",
      "outputs": [
        {
          "internalType": "bool",
          "name": "",
          "type": "bool"
        }
      ],
      "stateMutability": "view",
      "type": "function"
    },
    {
      "inputs": [],
      "name": "proxiableUUID",
      "outputs": [
        {
          "internalType": "bytes32",
          "name": "",
          "type": "bytes32"
        }
      ],
      "stateMutability": "view",
      "type": "function"
    },
    {
      "inputs": [],
      "name": "renounceOwnership",
      "outputs": [],
      "stateMutability": "nonpayable",
      "type": "function"
    },
    {
      "inputs": [
        {
          "internalType": "uint32",
          "name": "",
          "type": "uint32"
        }
      ],
      "name": "supplyCheckpoints",
      "outputs": [
        {
          "internalType": "uint256",
          "name": "timestamp",
          "type": "uint256"
        },
        {
          "internalType": "uint256",
          "name": "supply",
          "type": "uint256"
        }
      ],
      "stateMutability": "view",
      "type": "function"
    },
    {
      "inputs": [],
      "name": "supplyEpoch",
      "outputs": [
        {
          "internalType": "uint32",
          "name": "",
          "type": "uint32"
        }
      ],
      "stateMutability": "view",
      "type": "function"
    },
    {
      "inputs": [],
      "name": "totalVeSupply",
      "outputs": [
        {
          "internalType": "uint256",
          "name": "",
          "type": "uint256"
        }
      ],
      "stateMutability": "view",
      "type": "function"
    },
    {
      "inputs": [
        {
          "internalType": "address",
          "name": "newOwner",
          "type": "address"
        }
      ],
      "name": "transferOwnership",
      "outputs": [],
      "stateMutability": "nonpayable",
      "type": "function"
    },
    {
      "inputs": [
        {
          "internalType": "address",
          "name": "newImplementation",
          "type": "address"
        }
      ],
      "name": "upgradeTo",
      "outputs": [],
      "stateMutability": "nonpayable",
      "type": "function"
    },
    {
      "inputs": [
        {
          "internalType": "address",
          "name": "newImplementation",
          "type": "address"
        },
        {
          "internalType": "bytes",
          "name": "data",
          "type": "bytes"
        }
      ],
      "name": "upgradeToAndCall",
      "outputs": [],
      "stateMutability": "payable",
      "type": "function"
    },
    {
      "inputs": [
        {
          "internalType": "address",
          "name": "user",
          "type": "address"
        }
      ],
      "name": "veBalanceOf",
      "outputs": [
        {
          "internalType": "uint256",
          "name": "",
          "type": "uint256"
        }
      ],
      "stateMutability": "view",
      "type": "function"
    },
    {
      "inputs": [],
      "name": "withdraw",
      "outputs": [],
      "stateMutability": "nonpayable",
      "type": "function"
    },
    {
      "stateMutability": "payable",
      "type": "receive"
    }
  ],
  "bytecode": "0x60a06040523060805234801561001457600080fd5b50608051611d7061004c6000396000818161067d015281816106bd015281816108a2015281816108e201526109750152611d706000f3fe6080604052600436106101235760003560e01c80637c616fe6116100a0578063afbe710911610064578063afbe71091461038c578063b52c05fe146103d6578063c4d66de8146103f6578063ee29377b14610416578063f2fde38b1461044957610166565b80637c616fe6146102e957806388b18045146103095780638da5cb5b146103205780639f17f7341461033e578063a153e7081461035e57610166565b80634f1ef286116100e75780634f1ef2861461025057806352d1902d146102635780635c975abb14610278578063664983c81461029b578063715018a6146102d457610166565b806315456eba146101a057806323792279146101c257806326949984146102035780633659cfe61461021b5780633ccfd60b1461023b57610166565b366101665760405162461bcd60e51b815260206004820152600e60248201526d0ecca9c9e888a7440dcde408aa8960931b60448201526064015b60405180910390fd5b60405162461bcd60e51b815260206004820152600f60248201526e1d995393d1114e881a5b9d985b1a59608a1b604482015260640161015d565b3480156101ac57600080fd5b506101c06101bb366004611953565b610469565b005b3480156101ce57600080fd5b506101f06101dd366004611988565b61012f6020526000908152604090205481565b6040519081526020015b60405180910390f35b34801561020f57600080fd5b506101f0630784ce0081565b34801561022757600080fd5b506101c0610236366004611988565b610673565b34801561024757600080fd5b506101c061074f565b6101c061025e3660046119b9565b610898565b34801561026f57600080fd5b506101f0610968565b34801561028457600080fd5b5060655460ff1660405190151581526020016101fa565b3480156102a757600080fd5b5061012d546102bc906001600160a01b031681565b6040516001600160a01b0390911681526020016101fa565b3480156102e057600080fd5b506101c0610a1b565b3480156102f557600080fd5b506101c0610304366004611953565b610a2d565b34801561031557600080fd5b506101f06101305481565b34801561032c57600080fd5b506033546001600160a01b03166102bc565b34801561034a57600080fd5b506101f0610359366004611988565b610b9c565b34801561036a57600080fd5b506101f0610379366004611988565b61012e6020526000908152604090205481565b34801561039857600080fd5b506103c16103a7366004611a7b565b610131602052600090815260409020805460019091015482565b604080519283526020830191909152016101fa565b3480156103e257600080fd5b506101c06103f1366004611aa8565b610c09565b34801561040257600080fd5b506101c0610411366004611988565b610dee565b34801561042257600080fd5b50610132546104349063ffffffff1681565b60405163ffffffff90911681526020016101fa565b34801561045557600080fd5b506101c0610464366004611988565b610f7e565b610471610ff4565b61047961104d565b33600090815261012e602090815260408083205461012f90925290912054816104d65760405162461bcd60e51b815260206004820152600f60248201526e76654e4f44453a206e6f206c6f636b60881b604482015260640161015d565b80421061051c5760405162461bcd60e51b81526020600482015260146024820152731d995393d1114e881b1bd8dac8195e1c1a5c995960621b604482015260640161015d565b600083116105615760405162461bcd60e51b81526020600482015260126024820152711d995393d1114e881e995c9bc8185919195960721b604482015260640161015d565b6000630784ce006105724284611ae0565b61057c9085611af3565b6105869190611b0a565b90506000630784ce006105994285611ae0565b6105a38787611b2c565b6105ad9190611af3565b6105b79190611b0a565b61012d549091506105d3906001600160a01b0316333088611093565b6105dd8585611b2c565b33600090815261012e60205260409020556105f88282611ae0565b610130600082825461060a9190611b2c565b909155506106189050611104565b33600081815261012e6020908152604091829020548251898152918201527f2f96a8d78c7d7d075028bca068085002682ef5aa3b082d115bfb835bc8db47f491015b60405180910390a2505050506106706001609755565b50565b6001600160a01b037f00000000000000000000000000000000000000000000000000000000000000001630036106bb5760405162461bcd60e51b815260040161015d90611b3f565b7f00000000000000000000000000000000000000000000000000000000000000006001600160a01b0316610704600080516020611cf4833981519152546001600160a01b031690565b6001600160a01b03161461072a5760405162461bcd60e51b815260040161015d90611b8b565b610733816111bd565b60408051600080825260208201909252610670918391906111c5565b610757610ff4565b33600090815261012e602090815260408083205461012f9092529091205481158015906107845750804210155b6107d05760405162461bcd60e51b815260206004820152601860248201527f76654e4f44453a20696e76616c69642077697468647261770000000000000000604482015260640161015d565b6000630784ce006107e14284611ae0565b6107eb9085611af3565b6107f59190611b0a565b33600090815261012e6020908152604080832083905561012f90915281208190556101308054929350839290919061082e908490611ae0565b9091555061083c9050611104565b61012d54610854906001600160a01b03163385611335565b60405183815233907f7084f5476618d8e60b11ef0d7d3f06914655adb8793e28ff7f018d4c76d505d59060200160405180910390a25050506108966001609755565b565b6001600160a01b037f00000000000000000000000000000000000000000000000000000000000000001630036108e05760405162461bcd60e51b815260040161015d90611b3f565b7f00000000000000000000000000000000000000000000000000000000000000006001600160a01b0316610929600080516020611cf4833981519152546001600160a01b031690565b6001600160a01b03161461094f5760405162461bcd60e51b815260040161015d90611b8b565b610958826111bd565b610964828260016111c5565b5050565b6000306001600160a01b037f00000000000000000000000000000000000000000000000000000000000000001614610a085760405162461bcd60e51b815260206004820152603860248201527f555550535570677261646561626c653a206d757374206e6f742062652063616c60448201527f6c6564207468726f7567682064656c656761746563616c6c0000000000000000606482015260840161015d565b50600080516020611cf483398151915290565b610a23611365565b61089660006113bf565b610a35610ff4565b610a3d61104d565b33600090815261012e602090815260408083205461012f909252909120548115801590610a6957504281115b8015610a7457508083115b8015610a8d5750610a89630784ce0042611b2c565b8311155b610ad95760405162461bcd60e51b815260206004820152601d60248201527f76654e4f44453a20696e76616c6964206e6577556e6c6f636b54696d65000000604482015260640161015d565b6000630784ce00610aea4284611ae0565b610af49085611af3565b610afe9190611b0a565b90506000630784ce00610b114287611ae0565b610b1b9086611af3565b610b259190611b0a565b33600090815261012f602052604090208690559050610b448282611ae0565b6101306000828254610b569190611b2c565b90915550610b649050611104565b604080518481526020810187905233917f1330a2b7f70d74408554b6e5d73c6aefa8d88e43a5cf2dde8220b95a7bb23e35910161065a565b6001600160a01b038116600090815261012e602090815260408083205461012f909252822054811580610bcf5750804210155b15610bde575060009392505050565b630784ce00610bed4283611ae0565b610bf79084611af3565b610c019190611b0a565b949350505050565b610c11610ff4565b610c1961104d565b60008211610c5f5760405162461bcd60e51b81526020600482015260136024820152721d995393d1114e881e995c9bc8185b5bdd5b9d606a1b604482015260640161015d565b33600090815261012e602052604090205415610cbd5760405162461bcd60e51b815260206004820152601a60248201527f76654e4f44453a20616374697665206c6f636b20657869737473000000000000604482015260640161015d565b4281118015610cd95750610cd5630784ce0042611b2c565b8111155b610d255760405162461bcd60e51b815260206004820152601a60248201527f76654e4f44453a20696e76616c696420756e6c6f636b54696d65000000000000604482015260640161015d565b6000630784ce00610d364284611ae0565b610d409085611af3565b610d4a9190611b0a565b61012d54909150610d66906001600160a01b0316333086611093565b33600090815261012e6020908152604080832086905561012f90915281208390556101308054839290610d9a908490611b2c565b90915550610da89050611104565b604080518481526020810184905233917f167357c41e38a45e1950f61b1f5accf902c878d83f1685f7f72fb666203ce047910160405180910390a2506109646001609755565b600054610100900460ff1615808015610e0e5750600054600160ff909116105b80610e285750303b158015610e28575060005460ff166001145b610e8b5760405162461bcd60e51b815260206004820152602e60248201527f496e697469616c697a61626c653a20636f6e747261637420697320616c72656160448201526d191e481a5b9a5d1a585b1a5e995960921b606482015260840161015d565b6000805460ff191660011790558015610eae576000805461ff0019166101001790555b6001600160a01b038216610ef95760405162461bcd60e51b81526020600482015260126024820152713b32a727a2229d103d32b937903a37b5b2b760711b604482015260640161015d565b610f01611411565b610f09611440565b610f1161146f565b610f1961149e565b61012d80546001600160a01b0319166001600160a01b0384161790558015610964576000805461ff0019169055604051600181527f7f26b83ff96e1f2b6a682f133852f6798a09c465da95921460cefb38474024989060200160405180910390a15050565b610f86611365565b6001600160a01b038116610feb5760405162461bcd60e51b815260206004820152602660248201527f4f776e61626c653a206e6577206f776e657220697320746865207a65726f206160448201526564647265737360d01b606482015260840161015d565b610670816113bf565b6002609754036110465760405162461bcd60e51b815260206004820152601f60248201527f5265656e7472616e637947756172643a207265656e7472616e742063616c6c00604482015260640161015d565b6002609755565b60655460ff16156108965760405162461bcd60e51b815260206004820152601060248201526f14185d5cd8589b194e881c185d5cd95960821b604482015260640161015d565b6040516001600160a01b03808516602483015283166044820152606481018290526110fe9085906323b872dd60e01b906084015b60408051601f198184030181529190526020810180516001600160e01b03166001600160e01b0319909316929092179091526114c5565b50505050565b610132805463ffffffff1690600061111b83611bd7565b82546101009290920a63ffffffff8181021990931691831602179091556040805180820182524280825261013080546020808501918252610132805488166000908152610131835287902095518655915160019590950194909455549054845192835292820192909252921692507f24d78e18021455fdbb7d974c9ea303c31c3ece0739749cfe8631a7e70cec1409910160405180910390a2565b6001609755565b610670611365565b7f4910fdfa16fed3260ed0e7147f7cc6da11a60208b5b9406d12a635614ffd91435460ff16156111fd576111f88361159a565b505050565b826001600160a01b03166352d1902d6040518163ffffffff1660e01b8152600401602060405180830381865afa925050508015611257575060408051601f3d908101601f1916820190925261125491810190611bfa565b60015b6112ba5760405162461bcd60e51b815260206004820152602e60248201527f45524331393637557067726164653a206e657720696d706c656d656e7461746960448201526d6f6e206973206e6f74205555505360901b606482015260840161015d565b600080516020611cf483398151915281146113295760405162461bcd60e51b815260206004820152602960248201527f45524331393637557067726164653a20756e737570706f727465642070726f786044820152681a58589b195555525160ba1b606482015260840161015d565b506111f8838383611636565b6040516001600160a01b0383166024820152604481018290526111f890849063a9059cbb60e01b906064016110c7565b6033546001600160a01b031633146108965760405162461bcd60e51b815260206004820181905260248201527f4f776e61626c653a2063616c6c6572206973206e6f7420746865206f776e6572604482015260640161015d565b603380546001600160a01b038381166001600160a01b0319831681179093556040519116919082907f8be0079c531659141344cd1fd0a4f28419497f9722a3daafe3b4186f6b6457e090600090a35050565b600054610100900460ff166114385760405162461bcd60e51b815260040161015d90611c13565b61089661165b565b600054610100900460ff166114675760405162461bcd60e51b815260040161015d90611c13565b61089661168b565b600054610100900460ff166114965760405162461bcd60e51b815260040161015d90611c13565b6108966116be565b600054610100900460ff166108965760405162461bcd60e51b815260040161015d90611c13565b600061151a826040518060400160405280602081526020017f5361666545524332303a206c6f772d6c6576656c2063616c6c206661696c6564815250856001600160a01b03166116e59092919063ffffffff16565b905080516000148061153b57508080602001905181019061153b9190611c5e565b6111f85760405162461bcd60e51b815260206004820152602a60248201527f5361666545524332303a204552433230206f7065726174696f6e20646964206e6044820152691bdd081cdd58d8d9595960b21b606482015260840161015d565b6001600160a01b0381163b6116075760405162461bcd60e51b815260206004820152602d60248201527f455243313936373a206e657720696d706c656d656e746174696f6e206973206e60448201526c1bdd08184818dbdb9d1c9858dd609a1b606482015260840161015d565b600080516020611cf483398151915280546001600160a01b0319166001600160a01b0392909216919091179055565b61163f836116f4565b60008251118061164c5750805b156111f8576110fe8383611734565b600054610100900460ff166116825760405162461bcd60e51b815260040161015d90611c13565b610896336113bf565b600054610100900460ff166116b25760405162461bcd60e51b815260040161015d90611c13565b6065805460ff19169055565b600054610100900460ff166111b65760405162461bcd60e51b815260040161015d90611c13565b6060610c018484600085611762565b6116fd8161159a565b6040516001600160a01b038216907fbc7cd75a20ee27fd9adebab32041f755214dbc6bffa90cc0225b39da2e5c2d3b90600090a250565b60606117598383604051806060016040528060278152602001611d146027913961183d565b90505b92915050565b6060824710156117c35760405162461bcd60e51b815260206004820152602660248201527f416464726573733a20696e73756666696369656e742062616c616e636520666f6044820152651c8818d85b1b60d21b606482015260840161015d565b600080866001600160a01b031685876040516117df9190611ca4565b60006040518083038185875af1925050503d806000811461181c576040519150601f19603f3d011682016040523d82523d6000602084013e611821565b606091505b5091509150611832878383876118b5565b979650505050505050565b6060600080856001600160a01b03168560405161185a9190611ca4565b600060405180830381855af49150503d8060008114611895576040519150601f19603f3d011682016040523d82523d6000602084013e61189a565b606091505b50915091506118ab868383876118b5565b9695505050505050565b6060831561192457825160000361191d576001600160a01b0385163b61191d5760405162461bcd60e51b815260206004820152601d60248201527f416464726573733a2063616c6c20746f206e6f6e2d636f6e7472616374000000604482015260640161015d565b5081610c01565b610c0183838151156119395781518083602001fd5b8060405162461bcd60e51b815260040161015d9190611cc0565b60006020828403121561196557600080fd5b5035919050565b80356001600160a01b038116811461198357600080fd5b919050565b60006020828403121561199a57600080fd5b6117598261196c565b634e487b7160e01b600052604160045260246000fd5b600080604083850312156119cc57600080fd5b6119d58361196c565b9150602083013567ffffffffffffffff808211156119f257600080fd5b818501915085601f830112611a0657600080fd5b813581811115611a1857611a186119a3565b604051601f8201601f19908116603f01168101908382118183101715611a4057611a406119a3565b81604052828152886020848701011115611a5957600080fd5b8260208601602083013760006020848301015280955050505050509250929050565b600060208284031215611a8d57600080fd5b813563ffffffff81168114611aa157600080fd5b9392505050565b60008060408385031215611abb57600080fd5b50508035926020909101359150565b634e487b7160e01b600052601160045260246000fd5b8181038181111561175c5761175c611aca565b808202811582820484141761175c5761175c611aca565b600082611b2757634e487b7160e01b600052601260045260246000fd5b500490565b8082018082111561175c5761175c611aca565b6020808252602c908201527f46756e6374696f6e206d7573742062652063616c6c6564207468726f7567682060408201526b19195b1959d85d1958d85b1b60a21b606082015260800190565b6020808252602c908201527f46756e6374696f6e206d7573742062652063616c6c6564207468726f7567682060408201526b6163746976652070726f787960a01b606082015260800190565b600063ffffffff808316818103611bf057611bf0611aca565b6001019392505050565b600060208284031215611c0c57600080fd5b5051919050565b6020808252602b908201527f496e697469616c697a61626c653a20636f6e7472616374206973206e6f74206960408201526a6e697469616c697a696e6760a81b606082015260800190565b600060208284031215611c7057600080fd5b81518015158114611aa157600080fd5b60005b83811015611c9b578181015183820152602001611c83565b50506000910152565b60008251611cb6818460208701611c80565b9190910192915050565b6020815260008251806020840152611cdf816040850160208701611c80565b601f01601f1916919091016040019291505056fe360894a13ba1a3210667c828492db98dca3e2076cc3735a920a3ca505d382bbc416464726573733a206c6f772d6c6576656c2064656c65676174652063616c6c206661696c6564a26469706673582212205f41f91f6a48aef494032475901d7b647dfcee16e7ecae76e606eaa9e961030f64736f6c63430008140033",
  "linkReferences": {},
  "deployedLinkReferences": {}
}