{
  "_format": "hh-sol-artifact-1",
  "contractName": "NodeFiFeeManager",
  "sourceName": "contracts/NodeFiFeeManager.sol",
  "abi": [
    {
      "anonymous": false,
      "inputs": [
        {
          "indexed": false,
          "internalType": "address",
          "name": "previousAdmin",
          "type": "address"
        },
        {
          "indexed": false,
          "internalType": "address",
          "name": "newAdmin",
          "type": "address"
        }
      ],
      "name": "AdminChanged",
      "type": "event"
    },
    {
      "anonymous": false,
      "inputs": [
        {
          "indexed": true,
          "internalType": "address",
          "name": "beacon",
          "type": "address"
        }
      ],
      "name": "BeaconUpgraded",
      "type": "event"
    },
    {
      "anonymous": false,
      "inputs": [
        {
          "indexed": true,
          "internalType": "address",
          "name": "burnAddress",
          "type": "address"
        }
      ],
      "name": "BurnAddressUpdated",
      "type": "event"
    },
    {
      "anonymous": false,
      "inputs": [
        {
          "indexed": true,
          "internalType": "address",
          "name": "caller",
          "type": "address"
        },
        {
          "indexed": false,
          "internalType": "uint256",
          "name": "totalFee",
          "type": "uint256"
        },
        {
          "indexed": false,
          "internalType": "uint256",
          "name": "burnAmount",
          "type": "uint256"
        },
        {
          "indexed": false,
          "internalType": "uint256",
          "name": "treasuryAmount",
          "type": "uint256"
        }
      ],
      "name": "FeeDistributed",
      "type": "event"
    },
    {
      "anonymous": false,
      "inputs": [
        {
          "indexed": false,
          "internalType": "uint16",
          "name": "feeBps",
          "type": "uint16"
        },
        {
          "indexed": false,
          "internalType": "uint16",
          "name": "burnRateBps",
          "type": "uint16"
        }
      ],
      "name": "FeeParamsUpdated",
      "type": "event"
    },
    {
      "anonymous": false,
      "inputs": [
        {
          "indexed": false,
          "internalType": "uint8",
          "name": "version",
          "type": "uint8"
        }
      ],
      "name": "Initialized",
      "type": "event"
    },
    {
      "anonymous": false,
      "inputs": [
        {
          "indexed": true,
          "internalType": "address",
          "name": "previousOwner",
          "type": "address"
        },
        {
          "indexed": true,
          "internalType": "address",
          "name": "newOwner",
          "type": "address"
        }
      ],
      "name": "OwnershipTransferred",
      "type": "event"
    },
    {
      "anonymous": false,
      "inputs": [
        {
          "indexed": false,
          "internalType": "address",
          "name": "account",
          "type": "address"
        }
      ],
      "name": "Paused",
      "type": "event"
    },
    {
      "anonymous": false,
      "inputs": [
        {
          "indexed": true,
          "internalType": "address",
          "name": "treasury",
          "type": "address"
        }
      ],
      "name": "TreasuryUpdated",
      "type": "event"
    },
    {
      "anonymous": false,
      "inputs": [
        {
          "indexed": false,
          "internalType": "address",
          "name": "account",
          "type": "address"
        }
      ],
      "name": "Unpaused",
      "type": "event"
    },
    {
      "anonymous": false,
      "inputs": [
        {
          "indexed": true,
          "internalType": "address",
          "name": "implementation",
          "type": "address"
        }
      ],
      "name": "Upgraded",
      "type": "event"
    },
    {
      "anonymous": false,
      "inputs": [
        {
          "indexed": true,
          "internalType": "address",
          "name": "vault",
          "type": "address"
        }
      ],
      "name": "VaultUpdated",
      "type": "event"
    },
    {
      "inputs": [],
      "name": "burnAddress",
      "outputs": [
        {
          "internalType": "address",
          "name": "",
          "type": "address"
        }
      ],
      "stateMutability": "view",
      "type": "function"
    },
    {
      "inputs": [],
      "name": "burnRateBps",
      "outputs": [
        {
          "internalType": "uint16",
          "name": "",
          "type": "uint16"
        }
      ],
      "stateMutability": "view",
      "type": "function"
    },
    {
      "inputs": [
        {
          "internalType": "uint256",
          "name": "amount",
          "type": "uint256"
        }
      ],
      "name": "calculateFee",
      "outputs": [
        {
          "internalType": "uint256",
          "name": "",
          "type": "uint256"
        }
      ],
      "stateMutability": "view",
      "type": "function"
    },
    {
      "inputs": [
        {
          "internalType": "uint256",
          "name": "feeAmount",
          "type": "uint256"
        }
      ],
      "name": "distributeFee",
      "outputs": [],
      "stateMutability": "payable",
      "type": "function"
    },
    {
      "inputs": [],
      "name": "feeBps",
      "outputs": [
        {
          "internalType": "uint16",
          "name": "",
          "type": "uint16"
        }
      ],
      "stateMutability": "view",
      "type": "function"
    },
    {
      "inputs": [
        {
          "internalType": "address",
          "name": "_underlying",
          "type": "address"
        },
        {
          "internalType": "address",
          "name": "_treasury",
          "type": "address"
        },
        {
          "internalType": "address",
          "name": "_burnAddress",
          "type": "address"
        },
        {
          "internalType": "uint16",
          "name": "_feeBps",
          "type": "uint16"
        },
        {
          "internalType": "uint16",
          "name": "_burnRateBps",
          "type": "uint16"
        },
        {
          "internalType": "address",
          "name": "_vault",
          "type": "address"
        }
      ],
      "name": "initialize",
      "outputs": [],
      "stateMutability": "nonpayable",
      "type": "function"
    },
    {
      "inputs": [],
      "name": "owner",
      "outputs": [
        {
          "internalType": "address",
          "name": "",
          "type": "address"
        }
      ],
      "stateMutability": "view",
      "type": "function"
    },
    {
      "inputs": [],
      "name": "paused",
      "outputs": [
        {
          "internalType": "bool",
          "name": "",
          "type": "bool"
        }
      ],
      "stateMutability": "view",
      "type": "function"
    },
    {
      "inputs": [],
      "name": "proxiableUUID",
      "outputs": [
        {
          "internalType": "bytes32",
          "name": "",
          "type": "bytes32"
        }
      ],
      "stateMutability": "view",
      "type": "function"
    },
    {
      "inputs": [],
      "name": "renounceOwnership",
      "outputs": [],
      "stateMutability": "nonpayable",
      "type": "function"
    },
    {
      "inputs": [
        {
          "internalType": "address",
          "name": "_burnAddress",
          "type": "address"
        }
      ],
      "name": "setBurnAddress",
      "outputs": [],
      "stateMutability": "nonpayable",
      "type": "function"
    },
    {
      "inputs": [
        {
          "internalType": "uint16",
          "name": "_burnRateBps",
          "type": "uint16"
        }
      ],
      "name": "setBurnRateBps",
      "outputs": [],
      "stateMutability": "nonpayable",
      "type": "function"
    },
    {
      "inputs": [
        {
          "internalType": "uint16",
          "name": "_feeBps",
          "type": "uint16"
        }
      ],
      "name": "setFeeBps",
      "outputs": [],
      "stateMutability": "nonpayable",
      "type": "function"
    },
    {
      "inputs": [
        {
          "internalType": "address",
          "name": "_treasury",
          "type": "address"
        }
      ],
      "name": "setTreasury",
      "outputs": [],
      "stateMutability": "nonpayable",
      "type": "function"
    },
    {
      "inputs": [
        {
          "internalType": "address",
          "name": "_vault",
          "type": "address"
        }
      ],
      "name": "setVault",
      "outputs": [],
      "stateMutability": "nonpayable",
      "type": "function"
    },
    {
      "inputs": [
        {
          "internalType": "address",
          "name": "newOwner",
          "type": "address"
        }
      ],
      "name": "transferOwnership",
      "outputs": [],
      "stateMutability": "nonpayable",
      "type": "function"
    },
    {
      "inputs": [],
      "name": "treasury",
      "outputs": [
        {
          "internalType": "address",
          "name": "",
          "type": "address"
        }
      ],
      "stateMutability": "view",
      "type": "function"
    },
    {
      "inputs": [],
      "name": "underlying",
      "outputs": [
        {
          "internalType": "address",
          "name": "",
          "type": "address"
        }
      ],
      "stateMutability": "view",
      "type": "function"
    },
    {
      "inputs": [
        {
          "internalType": "address",
          "name": "newImplementation",
          "type": "address"
        }
      ],
      "name": "upgradeTo",
      "outputs": [],
      "stateMutability": "nonpayable",
      "type": "function"
    },
    {
      "inputs": [
        {
          "internalType": "address",
          "name": "newImplementation",
          "type": "address"
        },
        {
          "internalType": "bytes",
          "name": "data",
          "type": "bytes"
        }
      ],
      "name": "upgradeToAndCall",
      "outputs": [],
      "stateMutability": "payable",
      "type": "function"
    },
    {
      "inputs": [],
      "name": "vault",
      "outputs": [
        {
          "internalType": "address",
          "name": "",
          "type": "address"
        }
      ],
      "stateMutability": "view",
      "type": "function"
    }
  ],
  "bytecode": "0x60a06040523060805234801561001457600080fd5b50608051611e4261004c60003960008181610b7401528181610bb401528181610d0101528181610d410152610dd40152611e426000f3fe60806040526004361061012a5760003560e01c80636817031b116100ab57806399a5d7471161006f57806399a5d74714610326578063c3ea6c5d14610346578063c76f9c4c14610366578063f0f4426014610389578063f2fde38b146103a9578063fbfa77cf146103c957600080fd5b80636817031b146102915780636f307dc3146102b157806370d5ae05146102d2578063715018a6146102f35780638da5cb5b1461030857600080fd5b80634b0e7216116100f25780634b0e7216146101df5780634f1ef286146101ff57806352d1902d146102125780635c975abb1461023557806361d027b31461025857600080fd5b8063023b1fc91461012f57806305cc49dd1461015157806324a9d8531461016457806324bbba3e1461019f5780633659cfe6146101bf575b600080fd5b34801561013b57600080fd5b5061014f61014a366004611a20565b6103ea565b005b61014f61015f366004611a3b565b6104bc565b34801561017057600080fd5b5061012f5461018790600160a01b900461ffff1681565b60405161ffff90911681526020015b60405180910390f35b3480156101ab57600080fd5b5061014f6101ba366004611a6b565b610824565b3480156101cb57600080fd5b5061014f6101da366004611adf565b610b6a565b3480156101eb57600080fd5b5061014f6101fa366004611adf565b610c46565b61014f61020d366004611b10565b610cf7565b34801561021e57600080fd5b50610227610dc7565b604051908152602001610196565b34801561024157600080fd5b5060655460ff166040519015158152602001610196565b34801561026457600080fd5b5061012e54610279906001600160a01b031681565b6040516001600160a01b039091168152602001610196565b34801561029d57600080fd5b5061014f6102ac366004611adf565b610e7a565b3480156102bd57600080fd5b5061012d54610279906001600160a01b031681565b3480156102de57600080fd5b5061012f54610279906001600160a01b031681565b3480156102ff57600080fd5b5061014f610f24565b34801561031457600080fd5b506033546001600160a01b0316610279565b34801561033257600080fd5b50610227610341366004611a3b565b610f38565b34801561035257600080fd5b5061014f610361366004611a20565b610f68565b34801561037257600080fd5b5061012f5461018790600160b01b900461ffff1681565b34801561039557600080fd5b5061014f6103a4366004611adf565b611033565b3480156103b557600080fd5b5061014f6103c4366004611adf565b6110e0565b3480156103d557600080fd5b5061013054610279906001600160a01b031681565b6103f2611156565b6103fa6111b0565b6103e88161ffff1611156104505760405162461bcd60e51b81526020600482015260186024820152774665654d616e616765723a20666565427073203e2031302560401b60448201526064015b60405180910390fd5b61012f805461ffff60a01b1916600160a01b61ffff848116820292909217928390556040805191840483168252600160b01b90930490911660208201527f356605e7df155d9825878aa7f193f372183ad43dab6da8a85bc581dd35d9d4c091015b60405180910390a150565b6104c46111f6565b6104cc6111b0565b610130546001600160a01b031633146105205760405162461bcd60e51b815260206004820152601660248201527511995953585b9859d95c8e881bdb9b1e481d985d5b1d60521b6044820152606401610447565b61012d546001600160a01b0316610585578034146105805760405162461bcd60e51b815260206004820152601c60248201527f4665654d616e616765723a2045544820616d74206d69736d61746368000000006044820152606401610447565b6105ec565b34156105d35760405162461bcd60e51b815260206004820152601b60248201527f4665654d616e616765723a206e6f2045544820616363657074656400000000006044820152606401610447565b61012d546105ec906001600160a01b031633308461124f565b61012f546000906127109061060c90600160b01b900461ffff1684611be8565b6106169190611bff565b905060006106248284611c21565b61012d549091506001600160a01b031661078e5781156106e45761012f546040516000916001600160a01b03169084908381818185875af1925050503d806000811461068c576040519150601f19603f3d011682016040523d82523d6000602084013e610691565b606091505b50509050806106e25760405162461bcd60e51b815260206004820152601b60248201527f4665654d616e616765723a206275726e20455448206661696c656400000000006044820152606401610447565b505b61012e546040516000916001600160a01b03169083908381818185875af1925050503d8060008114610732576040519150601f19603f3d011682016040523d82523d6000602084013e610737565b606091505b50509050806107885760405162461bcd60e51b815260206004820152601f60248201527f4665654d616e616765723a20747265617375727920455448206661696c6564006044820152606401610447565b506107d2565b81156107b35761012f5461012d546107b3916001600160a01b039182169116846112c0565b61012e5461012d546107d2916001600160a01b039182169116836112c0565b604080518481526020810184905290810182905233907fe9c43263c9c0582afb798a6d3aed85c88c73506aac8a42e70258d64e3ae1d33a9060600160405180910390a250506108216001609755565b50565b600054610100900460ff16158080156108445750600054600160ff909116105b8061085e5750303b15801561085e575060005460ff166001145b6108c15760405162461bcd60e51b815260206004820152602e60248201527f496e697469616c697a61626c653a20636f6e747261637420697320616c72656160448201526d191e481a5b9a5d1a585b1a5e995960921b6064820152608401610447565b6000805460ff1916600117905580156108e4576000805461ff0019166101001790555b6108ec6112fc565b6108f461132b565b6108fc61135a565b610904611389565b6001600160a01b0386166109565760405162461bcd60e51b81526020600482015260196024820152784665654d616e616765723a207a65726f20747265617375727960381b6044820152606401610447565b6001600160a01b0385166109ac5760405162461bcd60e51b815260206004820152601a60248201527f4665654d616e616765723a207a65726f206275726e20616464720000000000006044820152606401610447565b6001600160a01b0382166109fb5760405162461bcd60e51b815260206004820152601660248201527511995953585b9859d95c8e881e995c9bc81d985d5b1d60521b6044820152606401610447565b6103e88461ffff161115610a4c5760405162461bcd60e51b81526020600482015260186024820152774665654d616e616765723a20666565427073203e2031302560401b6044820152606401610447565b6127108361ffff161115610aa25760405162461bcd60e51b815260206004820152601e60248201527f4665654d616e616765723a206275726e52617465427073203e203130302500006044820152606401610447565b61012d80546001600160a01b03808a166001600160a01b03199283161790925561012e805489841690831617905561012f805461ffff878116600160b01b0261ffff60b01b19918a16600160a01b026001600160b01b03199093168b87161792909217161790556101308054928516929091169190911790558015610b61576000805461ff0019169055604051600181527f7f26b83ff96e1f2b6a682f133852f6798a09c465da95921460cefb38474024989060200160405180910390a15b50505050505050565b6001600160a01b037f0000000000000000000000000000000000000000000000000000000000000000163003610bb25760405162461bcd60e51b815260040161044790611c34565b7f00000000000000000000000000000000000000000000000000000000000000006001600160a01b0316610bfb600080516020611dc6833981519152546001600160a01b031690565b6001600160a01b031614610c215760405162461bcd60e51b815260040161044790611c80565b610c2a816113b0565b60408051600080825260208201909252610821918391906113b8565b610c4e611156565b610c566111b0565b6001600160a01b038116610cac5760405162461bcd60e51b815260206004820152601a60248201527f4665654d616e616765723a207a65726f206275726e20616464720000000000006044820152606401610447565b61012f80546001600160a01b0319166001600160a01b0383169081179091556040517f6feb2294766fb161940a49b92df0ad4a47ffb6ef8255e0b9f80c8c05b7ec6b0f90600090a250565b6001600160a01b037f0000000000000000000000000000000000000000000000000000000000000000163003610d3f5760405162461bcd60e51b815260040161044790611c34565b7f00000000000000000000000000000000000000000000000000000000000000006001600160a01b0316610d88600080516020611dc6833981519152546001600160a01b031690565b6001600160a01b031614610dae5760405162461bcd60e51b815260040161044790611c80565b610db7826113b0565b610dc3828260016113b8565b5050565b6000306001600160a01b037f00000000000000000000000000000000000000000000000000000000000000001614610e675760405162461bcd60e51b815260206004820152603860248201527f555550535570677261646561626c653a206d757374206e6f742062652063616c60448201527f6c6564207468726f7567682064656c656761746563616c6c00000000000000006064820152608401610447565b50600080516020611dc683398151915290565b610e82611156565b610e8a6111b0565b6001600160a01b038116610ed95760405162461bcd60e51b815260206004820152601660248201527511995953585b9859d95c8e881e995c9bc81d985d5b1d60521b6044820152606401610447565b61013080546001600160a01b0319166001600160a01b0383169081179091556040517f161584aed96e7f34998117c9ad67e2d21ff46d2a42775c22b11ed282f3c7b2cd90600090a250565b610f2c611156565b610f366000611523565b565b61012f5460009061271090610f5890600160a01b900461ffff1684611be8565b610f629190611bff565b92915050565b610f70611156565b610f786111b0565b6127108161ffff161115610fce5760405162461bcd60e51b815260206004820152601e60248201527f4665654d616e616765723a206275726e52617465427073203e203130302500006044820152606401610447565b61012f805461ffff60b01b1916600160b01b61ffff8481168202929092179283905560408051600160a01b8504841681529190930490911660208201527f356605e7df155d9825878aa7f193f372183ad43dab6da8a85bc581dd35d9d4c091016104b1565b61103b611156565b6110436111b0565b6001600160a01b0381166110955760405162461bcd60e51b81526020600482015260196024820152784665654d616e616765723a207a65726f20747265617375727960381b6044820152606401610447565b61012e80546001600160a01b0319166001600160a01b0383169081179091556040517f7dae230f18360d76a040c81f050aa14eb9d6dc7901b20fc5d855e2a20fe814d190600090a250565b6110e8611156565b6001600160a01b03811661114d5760405162461bcd60e51b815260206004820152602660248201527f4f776e61626c653a206e6577206f776e657220697320746865207a65726f206160448201526564647265737360d01b6064820152608401610447565b61082181611523565b6033546001600160a01b03163314610f365760405162461bcd60e51b815260206004820181905260248201527f4f776e61626c653a2063616c6c6572206973206e6f7420746865206f776e65726044820152606401610447565b60655460ff1615610f365760405162461bcd60e51b815260206004820152601060248201526f14185d5cd8589b194e881c185d5cd95960821b6044820152606401610447565b6002609754036112485760405162461bcd60e51b815260206004820152601f60248201527f5265656e7472616e637947756172643a207265656e7472616e742063616c6c006044820152606401610447565b6002609755565b6040516001600160a01b03808516602483015283166044820152606481018290526112ba9085906323b872dd60e01b906084015b60408051601f198184030181529190526020810180516001600160e01b03166001600160e01b031990931692909217909152611575565b50505050565b6040516001600160a01b0383166024820152604481018290526112f090849063a9059cbb60e01b90606401611283565b505050565b6001609755565b600054610100900460ff166113235760405162461bcd60e51b815260040161044790611ccc565b610f3661164a565b600054610100900460ff166113525760405162461bcd60e51b815260040161044790611ccc565b610f3661167a565b600054610100900460ff166113815760405162461bcd60e51b815260040161044790611ccc565b610f366116ad565b600054610100900460ff16610f365760405162461bcd60e51b815260040161044790611ccc565b610821611156565b7f4910fdfa16fed3260ed0e7147f7cc6da11a60208b5b9406d12a635614ffd91435460ff16156113eb576112f0836116d4565b826001600160a01b03166352d1902d6040518163ffffffff1660e01b8152600401602060405180830381865afa925050508015611445575060408051601f3d908101601f1916820190925261144291810190611d17565b60015b6114a85760405162461bcd60e51b815260206004820152602e60248201527f45524331393637557067726164653a206e657720696d706c656d656e7461746960448201526d6f6e206973206e6f74205555505360901b6064820152608401610447565b600080516020611dc683398151915281146115175760405162461bcd60e51b815260206004820152602960248201527f45524331393637557067726164653a20756e737570706f727465642070726f786044820152681a58589b195555525160ba1b6064820152608401610447565b506112f0838383611770565b603380546001600160a01b038381166001600160a01b0319831681179093556040519116919082907f8be0079c531659141344cd1fd0a4f28419497f9722a3daafe3b4186f6b6457e090600090a35050565b60006115ca826040518060400160405280602081526020017f5361666545524332303a206c6f772d6c6576656c2063616c6c206661696c6564815250856001600160a01b03166117959092919063ffffffff16565b90508051600014806115eb5750808060200190518101906115eb9190611d30565b6112f05760405162461bcd60e51b815260206004820152602a60248201527f5361666545524332303a204552433230206f7065726174696f6e20646964206e6044820152691bdd081cdd58d8d9595960b21b6064820152608401610447565b600054610100900460ff166116715760405162461bcd60e51b815260040161044790611ccc565b610f3633611523565b600054610100900460ff166116a15760405162461bcd60e51b815260040161044790611ccc565b6065805460ff19169055565b600054610100900460ff166112f55760405162461bcd60e51b815260040161044790611ccc565b6001600160a01b0381163b6117415760405162461bcd60e51b815260206004820152602d60248201527f455243313936373a206e657720696d706c656d656e746174696f6e206973206e60448201526c1bdd08184818dbdb9d1c9858dd609a1b6064820152608401610447565b600080516020611dc683398151915280546001600160a01b0319166001600160a01b0392909216919091179055565b611779836117ac565b6000825111806117865750805b156112f0576112ba83836117ec565b60606117a48484600085611818565b949350505050565b6117b5816116d4565b6040516001600160a01b038216907fbc7cd75a20ee27fd9adebab32041f755214dbc6bffa90cc0225b39da2e5c2d3b90600090a250565b60606118118383604051806060016040528060278152602001611de6602791396118f3565b9392505050565b6060824710156118795760405162461bcd60e51b815260206004820152602660248201527f416464726573733a20696e73756666696369656e742062616c616e636520666f6044820152651c8818d85b1b60d21b6064820152608401610447565b600080866001600160a01b031685876040516118959190611d76565b60006040518083038185875af1925050503d80600081146118d2576040519150601f19603f3d011682016040523d82523d6000602084013e6118d7565b606091505b50915091506118e88783838761196b565b979650505050505050565b6060600080856001600160a01b0316856040516119109190611d76565b600060405180830381855af49150503d806000811461194b576040519150601f19603f3d011682016040523d82523d6000602084013e611950565b606091505b50915091506119618683838761196b565b9695505050505050565b606083156119da5782516000036119d3576001600160a01b0385163b6119d35760405162461bcd60e51b815260206004820152601d60248201527f416464726573733a2063616c6c20746f206e6f6e2d636f6e74726163740000006044820152606401610447565b50816117a4565b6117a483838151156119ef5781518083602001fd5b8060405162461bcd60e51b81526004016104479190611d92565b803561ffff81168114611a1b57600080fd5b919050565b600060208284031215611a3257600080fd5b61181182611a09565b600060208284031215611a4d57600080fd5b5035919050565b80356001600160a01b0381168114611a1b57600080fd5b60008060008060008060c08789031215611a8457600080fd5b611a8d87611a54565b9550611a9b60208801611a54565b9450611aa960408801611a54565b9350611ab760608801611a09565b9250611ac560808801611a09565b9150611ad360a08801611a54565b90509295509295509295565b600060208284031215611af157600080fd5b61181182611a54565b634e487b7160e01b600052604160045260246000fd5b60008060408385031215611b2357600080fd5b611b2c83611a54565b9150602083013567ffffffffffffffff80821115611b4957600080fd5b818501915085601f830112611b5d57600080fd5b813581811115611b6f57611b6f611afa565b604051601f8201601f19908116603f01168101908382118183101715611b9757611b97611afa565b81604052828152886020848701011115611bb057600080fd5b8260208601602083013760006020848301015280955050505050509250929050565b634e487b7160e01b600052601160045260246000fd5b8082028115828204841417610f6257610f62611bd2565b600082611c1c57634e487b7160e01b600052601260045260246000fd5b500490565b81810381811115610f6257610f62611bd2565b6020808252602c908201527f46756e6374696f6e206d7573742062652063616c6c6564207468726f7567682060408201526b19195b1959d85d1958d85b1b60a21b606082015260800190565b6020808252602c908201527f46756e6374696f6e206d7573742062652063616c6c6564207468726f7567682060408201526b6163746976652070726f787960a01b606082015260800190565b6020808252602b908201527f496e697469616c697a61626c653a20636f6e7472616374206973206e6f74206960408201526a6e697469616c697a696e6760a81b606082015260800190565b600060208284031215611d2957600080fd5b5051919050565b600060208284031215611d4257600080fd5b8151801515811461181157600080fd5b60005b83811015611d6d578181015183820152602001611d55565b50506000910152565b60008251611d88818460208701611d52565b9190910192915050565b6020815260008251806020840152611db1816040850160208701611d52565b601f01601f1916919091016040019291505056fe360894a13ba1a3210667c828492db98dca3e2076cc3735a920a3ca505d382bbc416464726573733a206c6f772d6c6576656c2064656c65676174652063616c6c206661696c6564a264697066735822122006c7df4b9e146277c2c5a82b659b7dfb86b6f8845979c28c75174ff648be4aa864736f6c63430008140033",
  "linkReferences": {},
  "deployedLinkReferences": {}
}