{
  "_format": "hh-sol-artifact-1",
  "contractName": "NodeFiToken",
  "sourceName": "contracts/NodeFiToken.sol",
  "abi": [
    {
      "inputs": [
        {
          "internalType": "address",
          "name": "initialHolder",
          "type": "address"
        },
        {
          "internalType": "address",
          "name": "_buybackReceiver",
          "type": "address"
        },
        {
          "internalType": "uint16",
          "name": "_burnBps",
          "type": "uint16"
        },
        {
          "internalType": "uint16",
          "name": "_buybackBps",
          "type": "uint16"
        }
      ],
      "stateMutability": "nonpayable",
      "type": "constructor"
    },
    {
      "inputs": [
        {
          "internalType": "address",
          "name": "spender",
          "type": "address"
        },
        {
          "internalType": "uint256",
          "name": "allowance",
          "type": "uint256"
        },
        {
          "internalType": "uint256",
          "name": "needed",
          "type": "uint256"
        }
      ],
      "name": "ERC20InsufficientAllowance",
      "type": "error"
    },
    {
      "inputs": [
        {
          "internalType": "address",
          "name": "sender",
          "type": "address"
        },
        {
          "internalType": "uint256",
          "name": "balance",
          "type": "uint256"
        },
        {
          "internalType": "uint256",
          "name": "needed",
          "type": "uint256"
        }
      ],
      "name": "ERC20InsufficientBalance",
      "type": "error"
    },
    {
      "inputs": [
        {
          "internalType": "address",
          "name": "approver",
          "type": "address"
        }
      ],
      "name": "ERC20InvalidApprover",
      "type": "error"
    },
    {
      "inputs": [
        {
          "internalType": "address",
          "name": "receiver",
          "type": "address"
        }
      ],
      "name": "ERC20InvalidReceiver",
      "type": "error"
    },
    {
      "inputs": [
        {
          "internalType": "address",
          "name": "sender",
          "type": "address"
        }
      ],
      "name": "ERC20InvalidSender",
      "type": "error"
    },
    {
      "inputs": [
        {
          "internalType": "address",
          "name": "spender",
          "type": "address"
        }
      ],
      "name": "ERC20InvalidSpender",
      "type": "error"
    },
    {
      "inputs": [
        {
          "internalType": "address",
          "name": "owner",
          "type": "address"
        }
      ],
      "name": "OwnableInvalidOwner",
      "type": "error"
    },
    {
      "inputs": [
        {
          "internalType": "address",
          "name": "account",
          "type": "address"
        }
      ],
      "name": "OwnableUnauthorizedAccount",
      "type": "error"
    },
    {
      "anonymous": false,
      "inputs": [
        {
          "indexed": true,
          "internalType": "address",
          "name": "owner",
          "type": "address"
        },
        {
          "indexed": true,
          "internalType": "address",
          "name": "spender",
          "type": "address"
        },
        {
          "indexed": false,
          "internalType": "uint256",
          "name": "value",
          "type": "uint256"
        }
      ],
      "name": "Approval",
      "type": "event"
    },
    {
      "anonymous": false,
      "inputs": [
        {
          "indexed": false,
          "internalType": "address",
          "name": "newReceiver",
          "type": "address"
        }
      ],
      "name": "BuybackReceiverUpdated",
      "type": "event"
    },
    {
      "anonymous": false,
      "inputs": [
        {
          "indexed": true,
          "internalType": "address",
          "name": "from",
          "type": "address"
        },
        {
          "indexed": false,
          "internalType": "uint256",
          "name": "amountBurned",
          "type": "uint256"
        },
        {
          "indexed": false,
          "internalType": "uint256",
          "name": "amountToTreasury",
          "type": "uint256"
        }
      ],
      "name": "FeeTaken",
      "type": "event"
    },
    {
      "anonymous": false,
      "inputs": [
        {
          "indexed": true,
          "internalType": "address",
          "name": "previousOwner",
          "type": "address"
        },
        {
          "indexed": true,
          "internalType": "address",
          "name": "newOwner",
          "type": "address"
        }
      ],
      "name": "OwnershipTransferred",
      "type": "event"
    },
    {
      "anonymous": false,
      "inputs": [
        {
          "indexed": true,
          "internalType": "address",
          "name": "from",
          "type": "address"
        },
        {
          "indexed": true,
          "internalType": "address",
          "name": "to",
          "type": "address"
        },
        {
          "indexed": false,
          "internalType": "uint256",
          "name": "value",
          "type": "uint256"
        }
      ],
      "name": "Transfer",
      "type": "event"
    },
    {
      "anonymous": false,
      "inputs": [
        {
          "indexed": false,
          "internalType": "uint16",
          "name": "newBps",
          "type": "uint16"
        }
      ],
      "name": "TransferBurnBpsUpdated",
      "type": "event"
    },
    {
      "anonymous": false,
      "inputs": [
        {
          "indexed": false,
          "internalType": "uint16",
          "name": "newBps",
          "type": "uint16"
        }
      ],
      "name": "TransferBuybackBpsUpdated",
      "type": "event"
    },
    {
      "inputs": [],
      "name": "MAX_SUPPLY",
      "outputs": [
        {
          "internalType": "uint256",
          "name": "",
          "type": "uint256"
        }
      ],
      "stateMutability": "view",
      "type": "function"
    },
    {
      "inputs": [],
      "name": "MIN_SUPPLY",
      "outputs": [
        {
          "internalType": "uint256",
          "name": "",
          "type": "uint256"
        }
      ],
      "stateMutability": "view",
      "type": "function"
    },
    {
      "inputs": [
        {
          "internalType": "address",
          "name": "owner",
          "type": "address"
        },
        {
          "internalType": "address",
          "name": "spender",
          "type": "address"
        }
      ],
      "name": "allowance",
      "outputs": [
        {
          "internalType": "uint256",
          "name": "",
          "type": "uint256"
        }
      ],
      "stateMutability": "view",
      "type": "function"
    },
    {
      "inputs": [
        {
          "internalType": "address",
          "name": "spender",
          "type": "address"
        },
        {
          "internalType": "uint256",
          "name": "value",
          "type": "uint256"
        }
      ],
      "name": "approve",
      "outputs": [
        {
          "internalType": "bool",
          "name": "",
          "type": "bool"
        }
      ],
      "stateMutability": "nonpayable",
      "type": "function"
    },
    {
      "inputs": [
        {
          "internalType": "address",
          "name": "account",
          "type": "address"
        }
      ],
      "name": "balanceOf",
      "outputs": [
        {
          "internalType": "uint256",
          "name": "",
          "type": "uint256"
        }
      ],
      "stateMutability": "view",
      "type": "function"
    },
    {
      "inputs": [],
      "name": "buybackReceiver",
      "outputs": [
        {
          "internalType": "address",
          "name": "",
          "type": "address"
        }
      ],
      "stateMutability": "view",
      "type": "function"
    },
    {
      "inputs": [],
      "name": "decimals",
      "outputs": [
        {
          "internalType": "uint8",
          "name": "",
          "type": "uint8"
        }
      ],
      "stateMutability": "view",
      "type": "function"
    },
    {
      "inputs": [
        {
          "internalType": "address",
          "name": "to",
          "type": "address"
        },
        {
          "internalType": "uint256",
          "name": "amount",
          "type": "uint256"
        }
      ],
      "name": "mint",
      "outputs": [],
      "stateMutability": "nonpayable",
      "type": "function"
    },
    {
      "inputs": [],
      "name": "name",
      "outputs": [
        {
          "internalType": "string",
          "name": "",
          "type": "string"
        }
      ],
      "stateMutability": "view",
      "type": "function"
    },
    {
      "inputs": [],
      "name": "owner",
      "outputs": [
        {
          "internalType": "address",
          "name": "",
          "type": "address"
        }
      ],
      "stateMutability": "view",
      "type": "function"
    },
    {
      "inputs": [],
      "name": "renounceOwnership",
      "outputs": [],
      "stateMutability": "nonpayable",
      "type": "function"
    },
    {
      "inputs": [
        {
          "internalType": "address",
          "name": "receiver",
          "type": "address"
        }
      ],
      "name": "setBuybackReceiver",
      "outputs": [],
      "stateMutability": "nonpayable",
      "type": "function"
    },
    {
      "inputs": [
        {
          "internalType": "uint16",
          "name": "bps",
          "type": "uint16"
        }
      ],
      "name": "setTransferBurnBps",
      "outputs": [],
      "stateMutability": "nonpayable",
      "type": "function"
    },
    {
      "inputs": [
        {
          "internalType": "uint16",
          "name": "bps",
          "type": "uint16"
        }
      ],
      "name": "setTransferBuybackBps",
      "outputs": [],
      "stateMutability": "nonpayable",
      "type": "function"
    },
    {
      "inputs": [],
      "name": "symbol",
      "outputs": [
        {
          "internalType": "string",
          "name": "",
          "type": "string"
        }
      ],
      "stateMutability": "view",
      "type": "function"
    },
    {
      "inputs": [],
      "name": "totalSupply",
      "outputs": [
        {
          "internalType": "uint256",
          "name": "",
          "type": "uint256"
        }
      ],
      "stateMutability": "view",
      "type": "function"
    },
    {
      "inputs": [
        {
          "internalType": "address",
          "name": "to",
          "type": "address"
        },
        {
          "internalType": "uint256",
          "name": "amount",
          "type": "uint256"
        }
      ],
      "name": "transfer",
      "outputs": [
        {
          "internalType": "bool",
          "name": "",
          "type": "bool"
        }
      ],
      "stateMutability": "nonpayable",
      "type": "function"
    },
    {
      "inputs": [],
      "name": "transferBurnBps",
      "outputs": [
        {
          "internalType": "uint16",
          "name": "",
          "type": "uint16"
        }
      ],
      "stateMutability": "view",
      "type": "function"
    },
    {
      "inputs": [],
      "name": "transferBuybackBps",
      "outputs": [
        {
          "internalType": "uint16",
          "name": "",
          "type": "uint16"
        }
      ],
      "stateMutability": "view",
      "type": "function"
    },
    {
      "inputs": [
        {
          "internalType": "address",
          "name": "from",
          "type": "address"
        },
        {
          "internalType": "address",
          "name": "to",
          "type": "address"
        },
        {
          "internalType": "uint256",
          "name": "amount",
          "type": "uint256"
        }
      ],
      "name": "transferFrom",
      "outputs": [
        {
          "internalType": "bool",
          "name": "",
          "type": "bool"
        }
      ],
      "stateMutability": "nonpayable",
      "type": "function"
    },
    {
      "inputs": [
        {
          "internalType": "address",
          "name": "newOwner",
          "type": "address"
        }
      ],
      "name": "transferOwnership",
      "outputs": [],
      "stateMutability": "nonpayable",
      "type": "function"
    }
  ],
  "bytecode": "0x60806040523480156200001157600080fd5b50604051620014b8380380620014b883398101604081905262000034916200042c565b836040518060400160405280600c81526020016b2737b232a334902a37b5b2b760a11b815250604051806040016040528060048152602001634e4f444560e01b81525081600390816200008891906200052e565b5060046200009782826200052e565b5050506001600160a01b038116620000ca57604051631e4fbdf760e01b8152600060048201526024015b60405180910390fd5b620000d58162000239565b506001600160a01b038416620001215760405162461bcd60e51b815260206004820152601060248201526f27232a1d103d32b937903437b63232b960811b6044820152606401620000c1565b6001600160a01b0383166200016e5760405162461bcd60e51b815260206004820152601260248201527127232a1d103d32b937903932b1b2b4bb32b960711b6044820152606401620000c1565b6103e86200017d828462000610565b61ffff161115620001c45760405162461bcd60e51b815260206004820152601060248201526f4e46543a206d6178203130252066656560801b6044820152606401620000c1565b6005805463ffffffff60a01b1916600160a01b61ffff8581169190910261ffff60b01b191691909117600160b01b91841691909102179055600680546001600160a01b0319166001600160a01b0385161790556200022f846b0202819f9075e95d2e0000006200028b565b5050505062000651565b600580546001600160a01b038381166001600160a01b0319831681179093556040519116919082907f8be0079c531659141344cd1fd0a4f28419497f9722a3daafe3b4186f6b6457e090600090a35050565b6001600160a01b038216620002b75760405163ec442f0560e01b815260006004820152602401620000c1565b620002c560008383620002c9565b5050565b6001600160a01b038316620002f8578060026000828254620002ec919062000635565b909155506200036c9050565b6001600160a01b038316600090815260208190526040902054818110156200034d5760405163391434e360e21b81526001600160a01b03851660048201526024810182905260448101839052606401620000c1565b6001600160a01b03841660009081526020819052604090209082900390555b6001600160a01b0382166200038a57600280548290039055620003a9565b6001600160a01b03821660009081526020819052604090208054820190555b816001600160a01b0316836001600160a01b03167fddf252ad1be2c89b69c2b068fc378daa952ba7f163c4a11628f55a4df523b3ef83604051620003ef91815260200190565b60405180910390a3505050565b80516001600160a01b03811681146200041457600080fd5b919050565b805161ffff811681146200041457600080fd5b600080600080608085870312156200044357600080fd5b6200044e85620003fc565b93506200045e60208601620003fc565b92506200046e6040860162000419565b91506200047e6060860162000419565b905092959194509250565b634e487b7160e01b600052604160045260246000fd5b600181811c90821680620004b457607f821691505b602082108103620004d557634e487b7160e01b600052602260045260246000fd5b50919050565b601f8211156200052957600081815260208120601f850160051c81016020861015620005045750805b601f850160051c820191505b81811015620005255782815560010162000510565b5050505b505050565b81516001600160401b038111156200054a576200054a62000489565b62000562816200055b84546200049f565b84620004db565b602080601f8311600181146200059a5760008415620005815750858301515b600019600386901b1c1916600185901b17855562000525565b600085815260208120601f198616915b82811015620005cb57888601518255948401946001909101908401620005aa565b5085821015620005ea5787850151600019600388901b60f8161c191681555b5050505050600190811b01905550565b634e487b7160e01b600052601160045260246000fd5b61ffff8181168382160190808211156200062e576200062e620005fa565b5092915050565b808201808211156200064b576200064b620005fa565b92915050565b610e5780620006616000396000f3fe608060405234801561001057600080fd5b50600436106101375760003560e01c806353659b8b116100b857806395d89b411161007c57806395d89b41146102a7578063a9059cbb146102af578063b36f3035146102c2578063dd62ed3e146102d5578063f2fde38b1461030e578063fc84e59f1461032157600080fd5b806353659b8b1461023f57806370a0823114610252578063715018a61461027b5780638da5cb5b146102835780638ef588fc1461029457600080fd5b806323b872dd116100ff57806323b872dd146101e2578063313ce567146101f557806332cb6b0c1461020457806335917c641461021757806340c10f191461022a57600080fd5b806306fdde031461013c578063095ea7b31461015a57806318160ddd1461017d5780631acea4571461018f5780631df59e2f146101b7575b600080fd5b610144610336565b6040516101519190610c07565b60405180910390f35b61016d610168366004610c71565b6103c8565b6040519015158152602001610151565b6002545b604051908152602001610151565b6005546101a490600160b01b900461ffff1681565b60405161ffff9091168152602001610151565b6006546101ca906001600160a01b031681565b6040516001600160a01b039091168152602001610151565b61016d6101f0366004610c9b565b6103e2565b60405160128152602001610151565b6101816b023ac12ef364587bf200000081565b6101816b0202819f9075e95d2e00000081565b61023d610238366004610c71565b610404565b005b61023d61024d366004610cd7565b610482565b610181610260366004610d02565b6001600160a01b031660009081526020819052604090205490565b61023d610542565b6005546001600160a01b03166101ca565b61023d6102a2366004610d02565b610556565b6101446105f7565b61016d6102bd366004610c71565b610606565b61023d6102d0366004610cd7565b61061c565b6101816102e3366004610d1d565b6001600160a01b03918216600090815260016020908152604080832093909416825291909152205490565b61023d61031c366004610d02565b6106d5565b6005546101a490600160a01b900461ffff1681565b60606003805461034590610d50565b80601f016020809104026020016040519081016040528092919081815260200182805461037190610d50565b80156103be5780601f10610393576101008083540402835291602001916103be565b820191906000526020600020905b8154815290600101906020018083116103a157829003601f168201915b5050505050905090565b6000336103d6818585610713565b60019150505b92915050565b60006103ef843384610725565b6103fa8484846107a4565b5060019392505050565b61040c6108c2565b6b023ac12ef364587bf20000008161042360025490565b61042d9190610da0565b11156104745760405162461bcd60e51b81526020600482015260116024820152701391950e8818d85c08195e18d959591959607a1b60448201526064015b60405180910390fd5b61047e82826108ef565b5050565b61048a6108c2565b6005546103e8906104a690600160a01b900461ffff1683610db3565b61ffff1611156104eb5760405162461bcd60e51b815260206004820152601060248201526f4e46543a206d6178203130252066656560801b604482015260640161046b565b6005805461ffff60b01b1916600160b01b61ffff8416908102919091179091556040519081527f917156ff36183040767ee499dc3831d4c0218d5cb932d972fd9edfe09a287380906020015b60405180910390a150565b61054a6108c2565b6105546000610925565b565b61055e6108c2565b6001600160a01b0381166105a95760405162461bcd60e51b815260206004820152601260248201527127232a1d103d32b937903932b1b2b4bb32b960711b604482015260640161046b565b600680546001600160a01b0319166001600160a01b0383169081179091556040519081527fc70bc08d9e7eec37af346a566476d67398e8541836978d4a2aded9af6a92cfaa90602001610537565b60606004805461034590610d50565b60006106133384846107a4565b50600192915050565b6106246108c2565b6005546103e89061064090600160b01b900461ffff1683610db3565b61ffff1611156106855760405162461bcd60e51b815260206004820152601060248201526f4e46543a206d6178203130252066656560801b604482015260640161046b565b6005805461ffff60a01b1916600160a01b61ffff8416908102919091179091556040519081527f07e62814fed501adf58b89afaf8f459e6e9f8bfa0e886b50312c83c5fe547c2790602001610537565b6106dd6108c2565b6001600160a01b03811661070757604051631e4fbdf760e01b81526000600482015260240161046b565b61071081610925565b50565b6107208383836001610977565b505050565b6001600160a01b0383811660009081526001602090815260408083209386168352929052205460001981101561079e578181101561078f57604051637dc7a0d960e11b81526001600160a01b0384166004820152602481018290526044810183905260640161046b565b61079e84848484036000610977565b50505050565b6005546000906107c89061ffff600160b01b8204811691600160a01b900416610db3565b90506107dc6005546001600160a01b031690565b6001600160a01b0316846001600160a01b031614158015610801575060008161ffff16115b156108b7576005546000906127109061082590600160a01b900461ffff1685610dd5565b61082f9190610dec565b6005549091506000906127109061085190600160b01b900461ffff1686610dd5565b61085b9190610dec565b905060008161086a8487610e0e565b6108749190610e0e565b90508215610886576108868784610a4c565b81156108a4576006546108a49088906001600160a01b031684610a82565b6108af878783610a82565b50505061079e565b61079e848484610a82565b6005546001600160a01b031633146105545760405163118cdaa760e01b815233600482015260240161046b565b6001600160a01b0382166109195760405163ec442f0560e01b81526000600482015260240161046b565b61047e60008383610add565b600580546001600160a01b038381166001600160a01b0319831681179093556040519116919082907f8be0079c531659141344cd1fd0a4f28419497f9722a3daafe3b4186f6b6457e090600090a35050565b6001600160a01b0384166109a15760405163e602df0560e01b81526000600482015260240161046b565b6001600160a01b0383166109cb57604051634a1406b160e11b81526000600482015260240161046b565b6001600160a01b038085166000908152600160209081526040808320938716835292905220829055801561079e57826001600160a01b0316846001600160a01b03167f8c5be1e5ebec7d5bd14f71427d1e84f3dd0314c0f7b2291e5b200ac8c7c3b92584604051610a3e91815260200190565b60405180910390a350505050565b6001600160a01b038216610a7657604051634b637e8f60e11b81526000600482015260240161046b565b61047e82600083610add565b6001600160a01b038316610aac57604051634b637e8f60e11b81526000600482015260240161046b565b6001600160a01b038216610ad65760405163ec442f0560e01b81526000600482015260240161046b565b6107208383835b6001600160a01b038316610b08578060026000828254610afd9190610da0565b90915550610b7a9050565b6001600160a01b03831660009081526020819052604090205481811015610b5b5760405163391434e360e21b81526001600160a01b0385166004820152602481018290526044810183905260640161046b565b6001600160a01b03841660009081526020819052604090209082900390555b6001600160a01b038216610b9657600280548290039055610bb5565b6001600160a01b03821660009081526020819052604090208054820190555b816001600160a01b0316836001600160a01b03167fddf252ad1be2c89b69c2b068fc378daa952ba7f163c4a11628f55a4df523b3ef83604051610bfa91815260200190565b60405180910390a3505050565b600060208083528351808285015260005b81811015610c3457858101830151858201604001528201610c18565b506000604082860101526040601f19601f8301168501019250505092915050565b80356001600160a01b0381168114610c6c57600080fd5b919050565b60008060408385031215610c8457600080fd5b610c8d83610c55565b946020939093013593505050565b600080600060608486031215610cb057600080fd5b610cb984610c55565b9250610cc760208501610c55565b9150604084013590509250925092565b600060208284031215610ce957600080fd5b813561ffff81168114610cfb57600080fd5b9392505050565b600060208284031215610d1457600080fd5b610cfb82610c55565b60008060408385031215610d3057600080fd5b610d3983610c55565b9150610d4760208401610c55565b90509250929050565b600181811c90821680610d6457607f821691505b602082108103610d8457634e487b7160e01b600052602260045260246000fd5b50919050565b634e487b7160e01b600052601160045260246000fd5b808201808211156103dc576103dc610d8a565b61ffff818116838216019080821115610dce57610dce610d8a565b5092915050565b80820281158282048414176103dc576103dc610d8a565b600082610e0957634e487b7160e01b600052601260045260246000fd5b500490565b818103818111156103dc576103dc610d8a56fea2646970667358221220c1ff22dfedffa7c96965b09b862b75c907db5640bb012e83451bb28bba4961ba64736f6c63430008140033",
  "linkReferences": {},
  "deployedLinkReferences": {}
}