{
  "_format": "hh-sol-artifact-1",
  "contractName": "NodeFiCoreVault",
  "sourceName": "contracts/NodeFiCoreVault.sol",
  "abi": [
    {
      "anonymous": false,
      "inputs": [
        {
          "indexed": false,
          "internalType": "address",
          "name": "previousAdmin",
          "type": "address"
        },
        {
          "indexed": false,
          "internalType": "address",
          "name": "newAdmin",
          "type": "address"
        }
      ],
      "name": "AdminChanged",
      "type": "event"
    },
    {
      "anonymous": false,
      "inputs": [
        {
          "indexed": true,
          "internalType": "address",
          "name": "owner",
          "type": "address"
        },
        {
          "indexed": true,
          "internalType": "address",
          "name": "spender",
          "type": "address"
        },
        {
          "indexed": false,
          "internalType": "uint256",
          "name": "value",
          "type": "uint256"
        }
      ],
      "name": "Approval",
      "type": "event"
    },
    {
      "anonymous": false,
      "inputs": [
        {
          "indexed": true,
          "internalType": "address",
          "name": "beacon",
          "type": "address"
        }
      ],
      "name": "BeaconUpgraded",
      "type": "event"
    },
    {
      "anonymous": false,
      "inputs": [
        {
          "indexed": true,
          "internalType": "address",
          "name": "user",
          "type": "address"
        },
        {
          "indexed": false,
          "internalType": "bool",
          "name": "isStake",
          "type": "bool"
        }
      ],
      "name": "DistributorCallFailed",
      "type": "event"
    },
    {
      "anonymous": false,
      "inputs": [
        {
          "indexed": true,
          "internalType": "address",
          "name": "user",
          "type": "address"
        },
        {
          "indexed": false,
          "internalType": "bytes",
          "name": "data",
          "type": "bytes"
        },
        {
          "indexed": false,
          "internalType": "uint256",
          "name": "value",
          "type": "uint256"
        }
      ],
      "name": "FallbackCalled",
      "type": "event"
    },
    {
      "anonymous": false,
      "inputs": [
        {
          "indexed": false,
          "internalType": "uint8",
          "name": "version",
          "type": "uint8"
        }
      ],
      "name": "Initialized",
      "type": "event"
    },
    {
      "anonymous": false,
      "inputs": [
        {
          "indexed": true,
          "internalType": "address",
          "name": "previousOwner",
          "type": "address"
        },
        {
          "indexed": true,
          "internalType": "address",
          "name": "newOwner",
          "type": "address"
        }
      ],
      "name": "OwnershipTransferred",
      "type": "event"
    },
    {
      "anonymous": false,
      "inputs": [
        {
          "indexed": false,
          "internalType": "address",
          "name": "account",
          "type": "address"
        }
      ],
      "name": "Paused",
      "type": "event"
    },
    {
      "anonymous": false,
      "inputs": [
        {
          "indexed": true,
          "internalType": "address",
          "name": "user",
          "type": "address"
        },
        {
          "indexed": false,
          "internalType": "uint256",
          "name": "amount",
          "type": "uint256"
        },
        {
          "indexed": false,
          "internalType": "uint256",
          "name": "shares",
          "type": "uint256"
        }
      ],
      "name": "Staked",
      "type": "event"
    },
    {
      "anonymous": false,
      "inputs": [
        {
          "indexed": true,
          "internalType": "address",
          "name": "from",
          "type": "address"
        },
        {
          "indexed": true,
          "internalType": "address",
          "name": "to",
          "type": "address"
        },
        {
          "indexed": false,
          "internalType": "uint256",
          "name": "value",
          "type": "uint256"
        }
      ],
      "name": "Transfer",
      "type": "event"
    },
    {
      "anonymous": false,
      "inputs": [
        {
          "indexed": true,
          "internalType": "address",
          "name": "user",
          "type": "address"
        },
        {
          "indexed": false,
          "internalType": "uint256",
          "name": "amount",
          "type": "uint256"
        }
      ],
      "name": "UnderlyingReceived",
      "type": "event"
    },
    {
      "anonymous": false,
      "inputs": [
        {
          "indexed": true,
          "internalType": "address",
          "name": "user",
          "type": "address"
        },
        {
          "indexed": false,
          "internalType": "uint256",
          "name": "amount",
          "type": "uint256"
        }
      ],
      "name": "UnexpectedEtherReceived",
      "type": "event"
    },
    {
      "anonymous": false,
      "inputs": [
        {
          "indexed": false,
          "internalType": "address",
          "name": "account",
          "type": "address"
        }
      ],
      "name": "Unpaused",
      "type": "event"
    },
    {
      "anonymous": false,
      "inputs": [
        {
          "indexed": true,
          "internalType": "address",
          "name": "user",
          "type": "address"
        },
        {
          "indexed": false,
          "internalType": "uint256",
          "name": "amount",
          "type": "uint256"
        },
        {
          "indexed": false,
          "internalType": "uint256",
          "name": "shares",
          "type": "uint256"
        },
        {
          "indexed": false,
          "internalType": "uint256",
          "name": "newShares",
          "type": "uint256"
        },
        {
          "indexed": false,
          "internalType": "uint256",
          "name": "remainder",
          "type": "uint256"
        }
      ],
      "name": "Unstaked",
      "type": "event"
    },
    {
      "anonymous": false,
      "inputs": [
        {
          "indexed": true,
          "internalType": "address",
          "name": "implementation",
          "type": "address"
        }
      ],
      "name": "Upgraded",
      "type": "event"
    },
    {
      "stateMutability": "payable",
      "type": "fallback"
    },
    {
      "inputs": [
        {
          "internalType": "address",
          "name": "owner",
          "type": "address"
        },
        {
          "internalType": "address",
          "name": "spender",
          "type": "address"
        }
      ],
      "name": "allowance",
      "outputs": [
        {
          "internalType": "uint256",
          "name": "",
          "type": "uint256"
        }
      ],
      "stateMutability": "view",
      "type": "function"
    },
    {
      "inputs": [
        {
          "internalType": "address",
          "name": "spender",
          "type": "address"
        },
        {
          "internalType": "uint256",
          "name": "amount",
          "type": "uint256"
        }
      ],
      "name": "approve",
      "outputs": [
        {
          "internalType": "bool",
          "name": "",
          "type": "bool"
        }
      ],
      "stateMutability": "nonpayable",
      "type": "function"
    },
    {
      "inputs": [
        {
          "internalType": "address",
          "name": "account",
          "type": "address"
        }
      ],
      "name": "balanceOf",
      "outputs": [
        {
          "internalType": "uint256",
          "name": "",
          "type": "uint256"
        }
      ],
      "stateMutability": "view",
      "type": "function"
    },
    {
      "inputs": [],
      "name": "decimals",
      "outputs": [
        {
          "internalType": "uint8",
          "name": "",
          "type": "uint8"
        }
      ],
      "stateMutability": "view",
      "type": "function"
    },
    {
      "inputs": [
        {
          "internalType": "address",
          "name": "spender",
          "type": "address"
        },
        {
          "internalType": "uint256",
          "name": "subtractedValue",
          "type": "uint256"
        }
      ],
      "name": "decreaseAllowance",
      "outputs": [
        {
          "internalType": "bool",
          "name": "",
          "type": "bool"
        }
      ],
      "stateMutability": "nonpayable",
      "type": "function"
    },
    {
      "inputs": [
        {
          "internalType": "address",
          "name": "spender",
          "type": "address"
        },
        {
          "internalType": "uint256",
          "name": "addedValue",
          "type": "uint256"
        }
      ],
      "name": "increaseAllowance",
      "outputs": [
        {
          "internalType": "bool",
          "name": "",
          "type": "bool"
        }
      ],
      "stateMutability": "nonpayable",
      "type": "function"
    },
    {
      "inputs": [],
      "name": "initialSlippageBps",
      "outputs": [
        {
          "internalType": "uint16",
          "name": "",
          "type": "uint16"
        }
      ],
      "stateMutability": "view",
      "type": "function"
    },
    {
      "inputs": [
        {
          "internalType": "address",
          "name": "_underlying",
          "type": "address"
        }
      ],
      "name": "initialize",
      "outputs": [],
      "stateMutability": "nonpayable",
      "type": "function"
    },
    {
      "inputs": [],
      "name": "name",
      "outputs": [
        {
          "internalType": "string",
          "name": "",
          "type": "string"
        }
      ],
      "stateMutability": "view",
      "type": "function"
    },
    {
      "inputs": [],
      "name": "owner",
      "outputs": [
        {
          "internalType": "address",
          "name": "",
          "type": "address"
        }
      ],
      "stateMutability": "view",
      "type": "function"
    },
    {
      "inputs": [],
      "name": "paused",
      "outputs": [
        {
          "internalType": "bool",
          "name": "",
          "type": "bool"
        }
      ],
      "stateMutability": "view",
      "type": "function"
    },
    {
      "inputs": [],
      "name": "proxiableUUID",
      "outputs": [
        {
          "internalType": "bytes32",
          "name": "",
          "type": "bytes32"
        }
      ],
      "stateMutability": "view",
      "type": "function"
    },
    {
      "inputs": [],
      "name": "renounceOwnership",
      "outputs": [],
      "stateMutability": "nonpayable",
      "type": "function"
    },
    {
      "inputs": [],
      "name": "rewardsDistributor",
      "outputs": [
        {
          "internalType": "address",
          "name": "",
          "type": "address"
        }
      ],
      "stateMutability": "view",
      "type": "function"
    },
    {
      "inputs": [
        {
          "internalType": "uint16",
          "name": "bps",
          "type": "uint16"
        }
      ],
      "name": "setInitialSlippageBps",
      "outputs": [],
      "stateMutability": "nonpayable",
      "type": "function"
    },
    {
      "inputs": [
        {
          "internalType": "address",
          "name": "dist",
          "type": "address"
        }
      ],
      "name": "setRewardsDistributor",
      "outputs": [],
      "stateMutability": "nonpayable",
      "type": "function"
    },
    {
      "inputs": [],
      "name": "shareDust",
      "outputs": [
        {
          "internalType": "uint256",
          "name": "",
          "type": "uint256"
        }
      ],
      "stateMutability": "view",
      "type": "function"
    },
    {
      "inputs": [
        {
          "internalType": "uint256",
          "name": "amount",
          "type": "uint256"
        }
      ],
      "name": "stake",
      "outputs": [],
      "stateMutability": "payable",
      "type": "function"
    },
    {
      "inputs": [],
      "name": "symbol",
      "outputs": [
        {
          "internalType": "string",
          "name": "",
          "type": "string"
        }
      ],
      "stateMutability": "view",
      "type": "function"
    },
    {
      "inputs": [],
      "name": "totalSupply",
      "outputs": [
        {
          "internalType": "uint256",
          "name": "",
          "type": "uint256"
        }
      ],
      "stateMutability": "view",
      "type": "function"
    },
    {
      "inputs": [],
      "name": "totalUnderlying",
      "outputs": [
        {
          "internalType": "uint256",
          "name": "",
          "type": "uint256"
        }
      ],
      "stateMutability": "view",
      "type": "function"
    },
    {
      "inputs": [
        {
          "internalType": "address",
          "name": "to",
          "type": "address"
        },
        {
          "internalType": "uint256",
          "name": "amount",
          "type": "uint256"
        }
      ],
      "name": "transfer",
      "outputs": [
        {
          "internalType": "bool",
          "name": "",
          "type": "bool"
        }
      ],
      "stateMutability": "nonpayable",
      "type": "function"
    },
    {
      "inputs": [
        {
          "internalType": "address",
          "name": "from",
          "type": "address"
        },
        {
          "internalType": "address",
          "name": "to",
          "type": "address"
        },
        {
          "internalType": "uint256",
          "name": "amount",
          "type": "uint256"
        }
      ],
      "name": "transferFrom",
      "outputs": [
        {
          "internalType": "bool",
          "name": "",
          "type": "bool"
        }
      ],
      "stateMutability": "nonpayable",
      "type": "function"
    },
    {
      "inputs": [
        {
          "internalType": "address",
          "name": "newOwner",
          "type": "address"
        }
      ],
      "name": "transferOwnership",
      "outputs": [],
      "stateMutability": "nonpayable",
      "type": "function"
    },
    {
      "inputs": [],
      "name": "underlying",
      "outputs": [
        {
          "internalType": "address",
          "name": "",
          "type": "address"
        }
      ],
      "stateMutability": "view",
      "type": "function"
    },
    {
      "inputs": [],
      "name": "underlyingDecimals",
      "outputs": [
        {
          "internalType": "uint8",
          "name": "",
          "type": "uint8"
        }
      ],
      "stateMutability": "view",
      "type": "function"
    },
    {
      "inputs": [
        {
          "internalType": "uint256",
          "name": "shares",
          "type": "uint256"
        }
      ],
      "name": "unstake",
      "outputs": [],
      "stateMutability": "nonpayable",
      "type": "function"
    },
    {
      "inputs": [
        {
          "internalType": "address",
          "name": "newImplementation",
          "type": "address"
        }
      ],
      "name": "upgradeTo",
      "outputs": [],
      "stateMutability": "nonpayable",
      "type": "function"
    },
    {
      "inputs": [
        {
          "internalType": "address",
          "name": "newImplementation",
          "type": "address"
        },
        {
          "internalType": "bytes",
          "name": "data",
          "type": "bytes"
        }
      ],
      "name": "upgradeToAndCall",
      "outputs": [],
      "stateMutability": "payable",
      "type": "function"
    },
    {
      "stateMutability": "payable",
      "type": "receive"
    }
  ],
  "bytecode": "0x60a06040523060805234801561001457600080fd5b50608051612c2c61004c60003960008181610a0201528181610a4201528181610b0001528181610b400152610bd30152612c2c6000f3fe6080604052600436106101c65760003560e01c806365e2cd94116100f7578063a457c2d711610095578063c70920bc11610064578063c70920bc146106d6578063d1f5c33b146106ed578063dd62ed3e1461070d578063f2fde38b1461072d57610299565b8063a457c2d714610663578063a694fc3a14610683578063a9059cbb14610696578063c4d66de8146106b657610299565b8063715018a6116100d1578063715018a6146105e55780637bca6013146105fa5780638da5cb5b1461063057806395d89b411461064e57610299565b806365e2cd941461056e5780636f307dc31461058e57806370a08231146105af57610299565b80633469c56e116101645780633f2a55401161013e5780633f2a5540146104f55780634f1ef2861461052e57806352d1902d146105415780635c975abb1461055657610299565b80633469c56e1461049e5780633659cfe6146104b557806339509351146104d557610299565b806323b872dd116101a057806323b872dd1461041657806325a760c2146104365780632e17de781461046a578063313ce5671461048a57610299565b806306fdde031461039c578063095ea7b3146103c757806318160ddd146103f757610299565b366102995761015f546001600160a01b03161561026757604051600090339034908381818185875af1925050503d806000811461021f576040519150601f19603f3d011682016040523d82523d6000602084013e610224565b606091505b5050905080156102655760405134815233907f57475e247fcb5de3adb5fd0fc7f96ec40124717c595e1e3146122fc42a5f3485906020015b60405180910390a25b005b60405134815233907fd076e323887514b81b13d4c317e0014245c9df7f51f9fb1caa62dc79d84d729b9060200161025c565b336001600160a01b03167f8d5abe48c1c6441994953a207276a8d929bb5dc4e2c4fc11504d1dfe71eace8a600036346040516102d7939291906125bb565b60405180910390a26000341180156102fa575061015f546001600160a01b031615155b1561026557604051600090339034908381818185875af1925050503d8060008114610341576040519150601f19603f3d011682016040523d82523d6000602084013e610346565b606091505b50509050806102655760405162461bcd60e51b815260206004820152601860248201527f436f72655661756c743a20726566756e64206661696c6564000000000000000060448201526064015b60405180910390fd5b3480156103a857600080fd5b506103b161074d565b6040516103be9190612618565b60405180910390f35b3480156103d357600080fd5b506103e76103e2366004612660565b6107df565b60405190151581526020016103be565b34801561040357600080fd5b506035545b6040519081526020016103be565b34801561042257600080fd5b506103e761043136600461268c565b6107f9565b34801561044257600080fd5b5061015f5461045890600160a01b900460ff1681565b60405160ff90911681526020016103be565b34801561047657600080fd5b506102656104853660046126cd565b61081d565b34801561049657600080fd5b506012610458565b3480156104aa57600080fd5b506104086101605481565b3480156104c157600080fd5b506102656104d03660046126e6565b6109f8565b3480156104e157600080fd5b506103e76104f0366004612660565b610ad4565b34801561050157600080fd5b5061016254610516906001600160a01b031681565b6040516001600160a01b0390911681526020016103be565b61026561053c366004612719565b610af6565b34801561054d57600080fd5b50610408610bc6565b34801561056257600080fd5b5060975460ff166103e7565b34801561057a57600080fd5b506102656105893660046127dd565b610c79565b34801561059a57600080fd5b5061015f54610516906001600160a01b031681565b3480156105bb57600080fd5b506104086105ca3660046126e6565b6001600160a01b031660009081526033602052604090205490565b3480156105f157600080fd5b50610265610d02565b34801561060657600080fd5b506101625461061d90600160a01b900461ffff1681565b60405161ffff90911681526020016103be565b34801561063c57600080fd5b506065546001600160a01b0316610516565b34801561065a57600080fd5b506103b1610d16565b34801561066f57600080fd5b506103e761067e366004612660565b610d25565b6102656106913660046126cd565b610da0565b3480156106a257600080fd5b506103e76106b1366004612660565b610e89565b3480156106c257600080fd5b506102656106d13660046126e6565b610e97565b3480156106e257600080fd5b506104086101615481565b3480156106f957600080fd5b506102656107083660046126e6565b611206565b34801561071957600080fd5b50610408610728366004612801565b611351565b34801561073957600080fd5b506102656107483660046126e6565b61137c565b60606036805461075c9061283a565b80601f01602080910402602001604051908101604052809291908181526020018280546107889061283a565b80156107d55780601f106107aa576101008083540402835291602001916107d5565b820191906000526020600020905b8154815290600101906020018083116107b857829003601f168201915b5050505050905090565b6000336107ed8185856113f2565b60019150505b92915050565b600033610807858285611517565b610812858585611591565b506001949350505050565b61082561173c565b61082d611782565b600081116108765760405162461bcd60e51b8152602060048201526016602482015275436f72655661756c743a207a65726f2073686172657360501b6044820152606401610393565b600061016154116108c95760405162461bcd60e51b815260206004820152601860248201527f436f72655661756c743a206e6f20756e6465726c79696e6700000000000000006044820152606401610393565b60006108d460355490565b610161549091506000826108e8858461288a565b6108f291906128b7565b90506000610900848361288a565b61090a868561288a565b61091491906128cb565b90508183101561095d5760405162461bcd60e51b8152602060048201526014602482015273436f72655661756c743a20756e646572666c6f7760601b6044820152606401610393565b61096782846128cb565b6101615561097533866117db565b61097f338661190c565b61098933836119b4565b3360009081526033602052604081205460408051858152602081018990529081018290526060810184905290915033907fdcfd2b4017d03f7e541021db793b2f9b31e4acdee005f789e52853c390e3e9629060800160405180910390a250505050506109f5600160c955565b50565b6001600160a01b037f0000000000000000000000000000000000000000000000000000000000000000163003610a405760405162461bcd60e51b8152600401610393906128de565b7f00000000000000000000000000000000000000000000000000000000000000006001600160a01b0316610a89600080516020612bb0833981519152546001600160a01b031690565b6001600160a01b031614610aaf5760405162461bcd60e51b81526004016103939061292a565b610ab881611a87565b604080516000808252602082019092526109f591839190611a8f565b6000336107ed818585610ae78383611351565b610af19190612976565b6113f2565b6001600160a01b037f0000000000000000000000000000000000000000000000000000000000000000163003610b3e5760405162461bcd60e51b8152600401610393906128de565b7f00000000000000000000000000000000000000000000000000000000000000006001600160a01b0316610b87600080516020612bb0833981519152546001600160a01b031690565b6001600160a01b031614610bad5760405162461bcd60e51b81526004016103939061292a565b610bb682611a87565b610bc282826001611a8f565b5050565b6000306001600160a01b037f00000000000000000000000000000000000000000000000000000000000000001614610c665760405162461bcd60e51b815260206004820152603860248201527f555550535570677261646561626c653a206d757374206e6f742062652063616c60448201527f6c6564207468726f7567682064656c656761746563616c6c00000000000000006064820152608401610393565b50600080516020612bb083398151915290565b610c81611bfa565b610c8961173c565b6103e88161ffff161115610cdf5760405162461bcd60e51b815260206004820152601b60248201527f436f72655661756c743a206d61782031302520736c69707061676500000000006044820152606401610393565b610162805461ffff909216600160a01b0261ffff60a01b19909216919091179055565b610d0a611bfa565b610d146000611c54565b565b60606037805461075c9061283a565b60003381610d338286611351565b905083811015610d935760405162461bcd60e51b815260206004820152602560248201527f45524332303a2064656372656173656420616c6c6f77616e63652062656c6f77604482015264207a65726f60d81b6064820152608401610393565b61081282868684036113f2565b610da861173c565b610db0611782565b6000610dbb82611ca6565b90506000610dc860355490565b90508015610e075761016154600090610de1848461288a565b610deb9190612989565b9050806101606000828254610e009190612976565b9091555050505b6000610e1283611dad565b9050826101616000828254610e279190612976565b90915550610e3790503382611e0d565b610e413382611ece565b604080518481526020810183905233917f1449c6dd7851abc30abf37f57715f492010519147cc2652fbc38202c18a6ee90910160405180910390a25050506109f5600160c955565b6000336107ed818585611591565b600054610100900460ff1615808015610eb75750600054600160ff909116105b80610ed15750303b158015610ed1575060005460ff166001145b610f345760405162461bcd60e51b815260206004820152602e60248201527f496e697469616c697a61626c653a20636f6e747261637420697320616c72656160448201526d191e481a5b9a5d1a585b1a5e995960921b6064820152608401610393565b6000805460ff191660011790558015610f57576000805461ff0019166101001790555b610fa66040518060400160405280601081526020016f139bd919519a4810dbdc9955985d5b1d60821b815250604051806040016040528060058152602001646e434f524560d81b815250611f6e565b610fae611f9f565b610fb6611fce565b610fbe611ffd565b610fc661202c565b6001600160a01b03821661101c5760405162461bcd60e51b815260206004820152601a60248201527f436f72655661756c743a207a65726f20756e6465726c79696e670000000000006044820152606401610393565b61015f80546001600160a01b0319166001600160a01b0384169081179091556040805163313ce56760e01b8152905163313ce567916004808201926020929091908290030181865afa925050508015611092575060408051601f3d908101601f1916820190925261108f9181019061299d565b60015b6110e85760405162461bcd60e51b815260206004820152602160248201527f436f72655661756c743a20696e76616c6964204552433230206d6574616461746044820152606160f81b6064820152608401610393565b61015f805460ff909216600160a01b0260ff60a01b19909216919091179055816001600160a01b03166318160ddd6040518163ffffffff1660e01b8152600401602060405180830381865afa925050508015611161575060408051601f3d908101601f1916820190925261115e918101906129c0565b60015b6111ad5760405162461bcd60e51b815260206004820152601f60248201527f436f72655661756c743a20696e76616c696420455243323020737570706c79006044820152606401610393565b50610162805461ffff60a01b191690558015610bc2576000805461ff0019169055604051600181527f7f26b83ff96e1f2b6a682f133852f6798a09c465da95921460cefb38474024989060200160405180910390a15050565b61120e611bfa565b61121661173c565b6001600160a01b03811661126c5760405162461bcd60e51b815260206004820152601b60248201527f436f72655661756c743a207a65726f206469737472696275746f7200000000006044820152606401610393565b306001600160a01b0316816001600160a01b031663fbfa77cf6040518163ffffffff1660e01b8152600401602060405180830381865afa1580156112b4573d6000803e3d6000fd5b505050506040513d601f19601f820116820180604052508101906112d891906129d9565b6001600160a01b03161461132e5760405162461bcd60e51b815260206004820152601a60248201527f436f72655661756c743a20626164206469737472696275746f720000000000006044820152606401610393565b61016280546001600160a01b0319166001600160a01b0392909216919091179055565b6001600160a01b03918216600090815260346020908152604080832093909416825291909152205490565b611384611bfa565b6001600160a01b0381166113e95760405162461bcd60e51b815260206004820152602660248201527f4f776e61626c653a206e6577206f776e657220697320746865207a65726f206160448201526564647265737360d01b6064820152608401610393565b6109f581611c54565b6001600160a01b0383166114545760405162461bcd60e51b8152602060048201526024808201527f45524332303a20617070726f76652066726f6d20746865207a65726f206164646044820152637265737360e01b6064820152608401610393565b6001600160a01b0382166114b55760405162461bcd60e51b815260206004820152602260248201527f45524332303a20617070726f766520746f20746865207a65726f206164647265604482015261737360f01b6064820152608401610393565b6001600160a01b0383811660008181526034602090815260408083209487168084529482529182902085905590518481527f8c5be1e5ebec7d5bd14f71427d1e84f3dd0314c0f7b2291e5b200ac8c7c3b92591015b60405180910390a3505050565b60006115238484611351565b9050600019811461158b578181101561157e5760405162461bcd60e51b815260206004820152601d60248201527f45524332303a20696e73756666696369656e7420616c6c6f77616e63650000006044820152606401610393565b61158b84848484036113f2565b50505050565b6001600160a01b0383166115f55760405162461bcd60e51b815260206004820152602560248201527f45524332303a207472616e736665722066726f6d20746865207a65726f206164604482015264647265737360d81b6064820152608401610393565b6001600160a01b0382166116575760405162461bcd60e51b815260206004820152602360248201527f45524332303a207472616e7366657220746f20746865207a65726f206164647260448201526265737360e81b6064820152608401610393565b6001600160a01b038316600090815260336020526040902054818110156116cf5760405162461bcd60e51b815260206004820152602660248201527f45524332303a207472616e7366657220616d6f756e7420657863656564732062604482015265616c616e636560d01b6064820152608401610393565b6001600160a01b0380851660008181526033602052604080822086860390559286168082529083902080548601905591517fddf252ad1be2c89b69c2b068fc378daa952ba7f163c4a11628f55a4df523b3ef9061172f9086815260200190565b60405180910390a361158b565b60975460ff1615610d145760405162461bcd60e51b815260206004820152601060248201526f14185d5cd8589b194e881c185d5cd95960821b6044820152606401610393565b600260c954036117d45760405162461bcd60e51b815260206004820152601f60248201527f5265656e7472616e637947756172643a207265656e7472616e742063616c6c006044820152606401610393565b600260c955565b6001600160a01b03821661183b5760405162461bcd60e51b815260206004820152602160248201527f45524332303a206275726e2066726f6d20746865207a65726f206164647265736044820152607360f81b6064820152608401610393565b6001600160a01b038216600090815260336020526040902054818110156118af5760405162461bcd60e51b815260206004820152602260248201527f45524332303a206275726e20616d6f756e7420657863656564732062616c616e604482015261636560f01b6064820152608401610393565b6001600160a01b03831660008181526033602090815260408083208686039055603580548790039055518581529192917fddf252ad1be2c89b69c2b068fc378daa952ba7f163c4a11628f55a4df523b3ef910161150a565b505050565b61016254604051637109216160e01b81526001600160a01b0384811660048301526024820184905290911690637109216190604401600060405180830381600087803b15801561195b57600080fd5b505af192505050801561196c575060015b610bc257604051600081526001600160a01b038316907f6a48cc98069ec5171f591ca0f681638539609cb746c4da09fad3997b1b803562906020015b60405180910390a25050565b61015f546001600160a01b0316611a68576000826001600160a01b03168260405160006040518083038185875af1925050503d8060008114611a12576040519150601f19603f3d011682016040523d82523d6000602084013e611a17565b606091505b50509050806119075760405162461bcd60e51b815260206004820152601a60248201527f436f72655661756c743a204554482073656e64206661696c65640000000000006044820152606401610393565b61015f54610bc2906001600160a01b03168383612053565b600160c955565b6109f5611bfa565b7f4910fdfa16fed3260ed0e7147f7cc6da11a60208b5b9406d12a635614ffd91435460ff1615611ac257611907836120b6565b826001600160a01b03166352d1902d6040518163ffffffff1660e01b8152600401602060405180830381865afa925050508015611b1c575060408051601f3d908101601f19168201909252611b19918101906129c0565b60015b611b7f5760405162461bcd60e51b815260206004820152602e60248201527f45524331393637557067726164653a206e657720696d706c656d656e7461746960448201526d6f6e206973206e6f74205555505360901b6064820152608401610393565b600080516020612bb08339815191528114611bee5760405162461bcd60e51b815260206004820152602960248201527f45524331393637557067726164653a20756e737570706f727465642070726f786044820152681a58589b195555525160ba1b6064820152608401610393565b50611907838383612152565b6065546001600160a01b03163314610d145760405162461bcd60e51b815260206004820181905260248201527f4f776e61626c653a2063616c6c6572206973206e6f7420746865206f776e65726044820152606401610393565b606580546001600160a01b038381166001600160a01b0319831681179093556040519116919082907f8be0079c531659141344cd1fd0a4f28419497f9722a3daafe3b4186f6b6457e090600090a35050565b61015f546000906001600160a01b0316611d0d57813414611d095760405162461bcd60e51b815260206004820152601d60248201527f436f72655661756c743a204554482076616c7565206d69736d617463680000006044820152606401610393565b5090565b3415611d5b5760405162461bcd60e51b815260206004820152601a60248201527f436f72655661756c743a206e6f204554482061636365707465640000000000006044820152606401610393565b61015f54611d74906001600160a01b0316333085612177565b60405182815233907fd076e323887514b81b13d4c317e0014245c9df7f51f9fb1caa62dc79d84d729b9060200160405180910390a25090565b600080611db960355490565b905080600003611dff576101625461271090611de090600160a01b900461ffff16826129f6565b611dee9061ffff168561288a565b611df891906128b7565b9392505050565b61016154611dee848361288a565b6001600160a01b038216611e635760405162461bcd60e51b815260206004820152601f60248201527f45524332303a206d696e7420746f20746865207a65726f2061646472657373006044820152606401610393565b8060356000828254611e759190612976565b90915550506001600160a01b0382166000818152603360209081526040808320805486019055518481527fddf252ad1be2c89b69c2b068fc378daa952ba7f163c4a11628f55a4df523b3ef910160405180910390a35050565b610162546040516305e9ef3760e21b81526001600160a01b03848116600483015260248201849052909116906317a7bcdc90604401600060405180830381600087803b158015611f1d57600080fd5b505af1925050508015611f2e575060015b610bc257604051600181526001600160a01b038316907f6a48cc98069ec5171f591ca0f681638539609cb746c4da09fad3997b1b803562906020016119a8565b600054610100900460ff16611f955760405162461bcd60e51b815260040161039390612a18565b610bc282826121af565b600054610100900460ff16611fc65760405162461bcd60e51b815260040161039390612a18565b610d146121ef565b600054610100900460ff16611ff55760405162461bcd60e51b815260040161039390612a18565b610d1461221f565b600054610100900460ff166120245760405162461bcd60e51b815260040161039390612a18565b610d14612252565b600054610100900460ff16610d145760405162461bcd60e51b815260040161039390612a18565b6040516001600160a01b03831660248201526044810182905261190790849063a9059cbb60e01b906064015b60408051601f198184030181529190526020810180516001600160e01b03166001600160e01b031990931692909217909152612279565b6001600160a01b0381163b6121235760405162461bcd60e51b815260206004820152602d60248201527f455243313936373a206e657720696d706c656d656e746174696f6e206973206e60448201526c1bdd08184818dbdb9d1c9858dd609a1b6064820152608401610393565b600080516020612bb083398151915280546001600160a01b0319166001600160a01b0392909216919091179055565b61215b8361234e565b6000825111806121685750805b156119075761158b838361238e565b6040516001600160a01b038085166024830152831660448201526064810182905261158b9085906323b872dd60e01b9060840161207f565b600054610100900460ff166121d65760405162461bcd60e51b815260040161039390612a18565b60366121e28382612ab1565b5060376119078282612ab1565b600054610100900460ff166122165760405162461bcd60e51b815260040161039390612a18565b610d1433611c54565b600054610100900460ff166122465760405162461bcd60e51b815260040161039390612a18565b6097805460ff19169055565b600054610100900460ff16611a805760405162461bcd60e51b815260040161039390612a18565b60006122ce826040518060400160405280602081526020017f5361666545524332303a206c6f772d6c6576656c2063616c6c206661696c6564815250856001600160a01b03166123b39092919063ffffffff16565b90508051600014806122ef5750808060200190518101906122ef9190612b71565b6119075760405162461bcd60e51b815260206004820152602a60248201527f5361666545524332303a204552433230206f7065726174696f6e20646964206e6044820152691bdd081cdd58d8d9595960b21b6064820152608401610393565b612357816120b6565b6040516001600160a01b038216907fbc7cd75a20ee27fd9adebab32041f755214dbc6bffa90cc0225b39da2e5c2d3b90600090a250565b6060611df88383604051806060016040528060278152602001612bd0602791396123ca565b60606123c28484600085612442565b949350505050565b6060600080856001600160a01b0316856040516123e79190612b93565b600060405180830381855af49150503d8060008114612422576040519150601f19603f3d011682016040523d82523d6000602084013e612427565b606091505b50915091506124388683838761251d565b9695505050505050565b6060824710156124a35760405162461bcd60e51b815260206004820152602660248201527f416464726573733a20696e73756666696369656e742062616c616e636520666f6044820152651c8818d85b1b60d21b6064820152608401610393565b600080866001600160a01b031685876040516124bf9190612b93565b60006040518083038185875af1925050503d80600081146124fc576040519150601f19603f3d011682016040523d82523d6000602084013e612501565b606091505b50915091506125128783838761251d565b979650505050505050565b6060831561258c578251600003612585576001600160a01b0385163b6125855760405162461bcd60e51b815260206004820152601d60248201527f416464726573733a2063616c6c20746f206e6f6e2d636f6e74726163740000006044820152606401610393565b50816123c2565b6123c283838151156125a15781518083602001fd5b8060405162461bcd60e51b81526004016103939190612618565b604081528260408201528284606083013760006060848301015260006060601f19601f8601168301019050826020830152949350505050565b60005b8381101561260f5781810151838201526020016125f7565b50506000910152565b60208152600082518060208401526126378160408501602087016125f4565b601f01601f19169190910160400192915050565b6001600160a01b03811681146109f557600080fd5b6000806040838503121561267357600080fd5b823561267e8161264b565b946020939093013593505050565b6000806000606084860312156126a157600080fd5b83356126ac8161264b565b925060208401356126bc8161264b565b929592945050506040919091013590565b6000602082840312156126df57600080fd5b5035919050565b6000602082840312156126f857600080fd5b8135611df88161264b565b634e487b7160e01b600052604160045260246000fd5b6000806040838503121561272c57600080fd5b82356127378161264b565b9150602083013567ffffffffffffffff8082111561275457600080fd5b818501915085601f83011261276857600080fd5b81358181111561277a5761277a612703565b604051601f8201601f19908116603f011681019083821181831017156127a2576127a2612703565b816040528281528860208487010111156127bb57600080fd5b8260208601602083013760006020848301015280955050505050509250929050565b6000602082840312156127ef57600080fd5b813561ffff81168114611df857600080fd5b6000806040838503121561281457600080fd5b823561281f8161264b565b9150602083013561282f8161264b565b809150509250929050565b600181811c9082168061284e57607f821691505b60208210810361286e57634e487b7160e01b600052602260045260246000fd5b50919050565b634e487b7160e01b600052601160045260246000fd5b80820281158282048414176107f3576107f3612874565b634e487b7160e01b600052601260045260246000fd5b6000826128c6576128c66128a1565b500490565b818103818111156107f3576107f3612874565b6020808252602c908201527f46756e6374696f6e206d7573742062652063616c6c6564207468726f7567682060408201526b19195b1959d85d1958d85b1b60a21b606082015260800190565b6020808252602c908201527f46756e6374696f6e206d7573742062652063616c6c6564207468726f7567682060408201526b6163746976652070726f787960a01b606082015260800190565b808201808211156107f3576107f3612874565b600082612998576129986128a1565b500690565b6000602082840312156129af57600080fd5b815160ff81168114611df857600080fd5b6000602082840312156129d257600080fd5b5051919050565b6000602082840312156129eb57600080fd5b8151611df88161264b565b61ffff828116828216039080821115612a1157612a11612874565b5092915050565b6020808252602b908201527f496e697469616c697a61626c653a20636f6e7472616374206973206e6f74206960408201526a6e697469616c697a696e6760a81b606082015260800190565b601f82111561190757600081815260208120601f850160051c81016020861015612a8a5750805b601f850160051c820191505b81811015612aa957828155600101612a96565b505050505050565b815167ffffffffffffffff811115612acb57612acb612703565b612adf81612ad9845461283a565b84612a63565b602080601f831160018114612b145760008415612afc5750858301515b600019600386901b1c1916600185901b178555612aa9565b600085815260208120601f198616915b82811015612b4357888601518255948401946001909101908401612b24565b5085821015612b615787850151600019600388901b60f8161c191681555b5050505050600190811b01905550565b600060208284031215612b8357600080fd5b81518015158114611df857600080fd5b60008251612ba58184602087016125f4565b919091019291505056fe360894a13ba1a3210667c828492db98dca3e2076cc3735a920a3ca505d382bbc416464726573733a206c6f772d6c6576656c2064656c65676174652063616c6c206661696c6564a2646970667358221220b590b85c066d26a70f25fbded3654c2439d8b415328fc3ca519339cee8fa565264736f6c63430008140033",
  "linkReferences": {},
  "deployedLinkReferences": {}
}