{
  "_format": "hh-sol-artifact-1",
  "contractName": "NodeFiRewardsDistributor",
  "sourceName": "contracts/NodeFiRewardsDistributor.sol",
  "abi": [
    {
      "anonymous": false,
      "inputs": [
        {
          "indexed": false,
          "internalType": "address",
          "name": "previousAdmin",
          "type": "address"
        },
        {
          "indexed": false,
          "internalType": "address",
          "name": "newAdmin",
          "type": "address"
        }
      ],
      "name": "AdminChanged",
      "type": "event"
    },
    {
      "anonymous": false,
      "inputs": [
        {
          "indexed": true,
          "internalType": "address",
          "name": "beacon",
          "type": "address"
        }
      ],
      "name": "BeaconUpgraded",
      "type": "event"
    },
    {
      "anonymous": false,
      "inputs": [
        {
          "indexed": true,
          "internalType": "address",
          "name": "manager",
          "type": "address"
        }
      ],
      "name": "CommissionManagerUpdated",
      "type": "event"
    },
    {
      "anonymous": false,
      "inputs": [
        {
          "indexed": false,
          "internalType": "uint8",
          "name": "version",
          "type": "uint8"
        }
      ],
      "name": "Initialized",
      "type": "event"
    },
    {
      "anonymous": false,
      "inputs": [
        {
          "indexed": true,
          "internalType": "address",
          "name": "previousOwner",
          "type": "address"
        },
        {
          "indexed": true,
          "internalType": "address",
          "name": "newOwner",
          "type": "address"
        }
      ],
      "name": "OwnershipTransferred",
      "type": "event"
    },
    {
      "anonymous": false,
      "inputs": [
        {
          "indexed": false,
          "internalType": "address",
          "name": "account",
          "type": "address"
        }
      ],
      "name": "Paused",
      "type": "event"
    },
    {
      "anonymous": false,
      "inputs": [
        {
          "indexed": true,
          "internalType": "address",
          "name": "user",
          "type": "address"
        },
        {
          "indexed": false,
          "internalType": "uint256",
          "name": "netNode",
          "type": "uint256"
        },
        {
          "indexed": false,
          "internalType": "uint256",
          "name": "boostedUni",
          "type": "uint256"
        },
        {
          "indexed": false,
          "internalType": "uint256",
          "name": "veBal",
          "type": "uint256"
        },
        {
          "indexed": false,
          "internalType": "uint256",
          "name": "boostBps",
          "type": "uint256"
        },
        {
          "indexed": false,
          "internalType": "uint256",
          "name": "veUniBal",
          "type": "uint256"
        },
        {
          "indexed": false,
          "internalType": "uint256",
          "name": "uniBoostBps",
          "type": "uint256"
        }
      ],
      "name": "RewardsClaimed",
      "type": "event"
    },
    {
      "anonymous": false,
      "inputs": [
        {
          "indexed": false,
          "internalType": "uint16",
          "name": "maxUniBoostBps",
          "type": "uint16"
        },
        {
          "indexed": false,
          "internalType": "uint256",
          "name": "maxVeUniSupply",
          "type": "uint256"
        }
      ],
      "name": "UniBoostParamsUpdated",
      "type": "event"
    },
    {
      "anonymous": false,
      "inputs": [
        {
          "indexed": false,
          "internalType": "address",
          "name": "account",
          "type": "address"
        }
      ],
      "name": "Unpaused",
      "type": "event"
    },
    {
      "anonymous": false,
      "inputs": [
        {
          "indexed": true,
          "internalType": "address",
          "name": "implementation",
          "type": "address"
        }
      ],
      "name": "Upgraded",
      "type": "event"
    },
    {
      "inputs": [
        {
          "internalType": "address[]",
          "name": "users",
          "type": "address[]"
        },
        {
          "internalType": "uint256[]",
          "name": "nodeAmounts",
          "type": "uint256[]"
        },
        {
          "internalType": "uint256[]",
          "name": "uniAmounts",
          "type": "uint256[]"
        }
      ],
      "name": "allocateRewards",
      "outputs": [],
      "stateMutability": "nonpayable",
      "type": "function"
    },
    {
      "inputs": [],
      "name": "claim",
      "outputs": [],
      "stateMutability": "nonpayable",
      "type": "function"
    },
    {
      "inputs": [],
      "name": "commissionManager",
      "outputs": [
        {
          "internalType": "contract NodeFiCommissionManager",
          "name": "",
          "type": "address"
        }
      ],
      "stateMutability": "view",
      "type": "function"
    },
    {
      "inputs": [
        {
          "internalType": "address",
          "name": "_vault",
          "type": "address"
        },
        {
          "internalType": "address",
          "name": "_nodeToken",
          "type": "address"
        },
        {
          "internalType": "address",
          "name": "_uniToken",
          "type": "address"
        },
        {
          "internalType": "address payable",
          "name": "_veToken",
          "type": "address"
        },
        {
          "internalType": "address payable",
          "name": "_veUniToken",
          "type": "address"
        },
        {
          "internalType": "uint16",
          "name": "_maxBoostBps",
          "type": "uint16"
        },
        {
          "internalType": "uint256",
          "name": "_maxVeSupply",
          "type": "uint256"
        },
        {
          "internalType": "address",
          "name": "_commissionManager",
          "type": "address"
        },
        {
          "internalType": "uint16",
          "name": "_maxUniBoostBps",
          "type": "uint16"
        },
        {
          "internalType": "uint256",
          "name": "_maxVeUniSupply",
          "type": "uint256"
        }
      ],
      "name": "initialize",
      "outputs": [],
      "stateMutability": "nonpayable",
      "type": "function"
    },
    {
      "inputs": [],
      "name": "maxBoostBps",
      "outputs": [
        {
          "internalType": "uint16",
          "name": "",
          "type": "uint16"
        }
      ],
      "stateMutability": "view",
      "type": "function"
    },
    {
      "inputs": [],
      "name": "maxUniBoostBps",
      "outputs": [
        {
          "internalType": "uint16",
          "name": "",
          "type": "uint16"
        }
      ],
      "stateMutability": "view",
      "type": "function"
    },
    {
      "inputs": [],
      "name": "maxVeSupply",
      "outputs": [
        {
          "internalType": "uint256",
          "name": "",
          "type": "uint256"
        }
      ],
      "stateMutability": "view",
      "type": "function"
    },
    {
      "inputs": [],
      "name": "maxVeUniSupply",
      "outputs": [
        {
          "internalType": "uint256",
          "name": "",
          "type": "uint256"
        }
      ],
      "stateMutability": "view",
      "type": "function"
    },
    {
      "inputs": [
        {
          "internalType": "address",
          "name": "",
          "type": "address"
        }
      ],
      "name": "nodeAccrued",
      "outputs": [
        {
          "internalType": "uint256",
          "name": "",
          "type": "uint256"
        }
      ],
      "stateMutability": "view",
      "type": "function"
    },
    {
      "inputs": [],
      "name": "nodeToken",
      "outputs": [
        {
          "internalType": "contract IERC20Upgradeable",
          "name": "",
          "type": "address"
        }
      ],
      "stateMutability": "view",
      "type": "function"
    },
    {
      "inputs": [],
      "name": "owner",
      "outputs": [
        {
          "internalType": "address",
          "name": "",
          "type": "address"
        }
      ],
      "stateMutability": "view",
      "type": "function"
    },
    {
      "inputs": [],
      "name": "paused",
      "outputs": [
        {
          "internalType": "bool",
          "name": "",
          "type": "bool"
        }
      ],
      "stateMutability": "view",
      "type": "function"
    },
    {
      "inputs": [],
      "name": "proxiableUUID",
      "outputs": [
        {
          "internalType": "bytes32",
          "name": "",
          "type": "bytes32"
        }
      ],
      "stateMutability": "view",
      "type": "function"
    },
    {
      "inputs": [],
      "name": "renounceOwnership",
      "outputs": [],
      "stateMutability": "nonpayable",
      "type": "function"
    },
    {
      "inputs": [
        {
          "internalType": "address",
          "name": "_manager",
          "type": "address"
        }
      ],
      "name": "setCommissionManager",
      "outputs": [],
      "stateMutability": "nonpayable",
      "type": "function"
    },
    {
      "inputs": [
        {
          "internalType": "uint16",
          "name": "_maxUniBoostBps",
          "type": "uint16"
        },
        {
          "internalType": "uint256",
          "name": "_maxVeUniSupply",
          "type": "uint256"
        }
      ],
      "name": "setUniBoostParams",
      "outputs": [],
      "stateMutability": "nonpayable",
      "type": "function"
    },
    {
      "inputs": [
        {
          "internalType": "address",
          "name": "newOwner",
          "type": "address"
        }
      ],
      "name": "transferOwnership",
      "outputs": [],
      "stateMutability": "nonpayable",
      "type": "function"
    },
    {
      "inputs": [
        {
          "internalType": "address",
          "name": "",
          "type": "address"
        }
      ],
      "name": "uniAccrued",
      "outputs": [
        {
          "internalType": "uint256",
          "name": "",
          "type": "uint256"
        }
      ],
      "stateMutability": "view",
      "type": "function"
    },
    {
      "inputs": [],
      "name": "uniToken",
      "outputs": [
        {
          "internalType": "contract IERC20Upgradeable",
          "name": "",
          "type": "address"
        }
      ],
      "stateMutability": "view",
      "type": "function"
    },
    {
      "inputs": [
        {
          "internalType": "address",
          "name": "newImplementation",
          "type": "address"
        }
      ],
      "name": "upgradeTo",
      "outputs": [],
      "stateMutability": "nonpayable",
      "type": "function"
    },
    {
      "inputs": [
        {
          "internalType": "address",
          "name": "newImplementation",
          "type": "address"
        },
        {
          "internalType": "bytes",
          "name": "data",
          "type": "bytes"
        }
      ],
      "name": "upgradeToAndCall",
      "outputs": [],
      "stateMutability": "payable",
      "type": "function"
    },
    {
      "inputs": [],
      "name": "vault",
      "outputs": [
        {
          "internalType": "address",
          "name": "",
          "type": "address"
        }
      ],
      "stateMutability": "view",
      "type": "function"
    },
    {
      "inputs": [],
      "name": "veToken",
      "outputs": [
        {
          "internalType": "contract NodeFiVeToken",
          "name": "",
          "type": "address"
        }
      ],
      "stateMutability": "view",
      "type": "function"
    },
    {
      "inputs": [],
      "name": "veUniToken",
      "outputs": [
        {
          "internalType": "contract NodeFiVeUNI",
          "name": "",
          "type": "address"
        }
      ],
      "stateMutability": "view",
      "type": "function"
    }
  ],
  "bytecode": "0x60a06040523060805234801561001457600080fd5b50608051611e1161004c600039600081816104e40152818161052d0152818161091c0152818161095c01526109ef0152611e116000f3fe60806040526004361061014b5760003560e01c8063664983c8116100b6578063a8ea026c1161006f578063a8ea026c1461039f578063c14cbbea146103cd578063c985f213146103ee578063e3d890071461040e578063f2fde38b14610431578063fbfa77cf1461045157600080fd5b8063664983c8146102ea57806368f0f8e31461030b5780636a6bf90a1461032b578063715018a61461034b57806385ce4fee146103605780638da5cb5b1461038157600080fd5b806343ddacd71161010857806343ddacd71461024557806347396ae51461025c5780634e71d92d1461028a5780634f1ef2861461029f57806352d1902d146102b25780635c975abb146102c757600080fd5b806306196444146101505780630cb73c2a146101725780630ef51d0d1461019c57806320742166146101d55780633659cfe6146102045780633b92eb2314610224575b600080fd5b34801561015c57600080fd5b5061017061016b366004611897565b610472565b005b34801561017e57600080fd5b506101896101355481565b6040519081526020015b60405180910390f35b3480156101a857600080fd5b50610132546101bd906001600160a01b031681565b6040516001600160a01b039091168152602001610193565b3480156101e157600080fd5b50610134546101f19061ffff1681565b60405161ffff9091168152602001610193565b34801561021057600080fd5b5061017061021f3660046118d6565b6104da565b34801561023057600080fd5b50610130546101bd906001600160a01b031681565b34801561025157600080fd5b506101896101335481565b34801561026857600080fd5b506101896102773660046118d6565b6101366020526000908152604090205481565b34801561029657600080fd5b506101706105c2565b6101706102ad366004611910565b610912565b3480156102be57600080fd5b506101896109e2565b3480156102d357600080fd5b5060655460ff166040519015158152602001610193565b3480156102f657600080fd5b5061012d546101bd906001600160a01b031681565b34801561031757600080fd5b506101706103263660046119d4565b610a95565b34801561033757600080fd5b506101706103463660046118d6565b610c7a565b34801561035757600080fd5b50610170610cf4565b34801561036c57600080fd5b5061012e546101bd906001600160a01b031681565b34801561038d57600080fd5b506033546001600160a01b03166101bd565b3480156103ab57600080fd5b506101896103ba3660046118d6565b6101376020526000908152604090205481565b3480156103d957600080fd5b50610131546101bd906001600160a01b031681565b3480156103fa57600080fd5b50610170610409366004611ad8565b610d06565b34801561041a57600080fd5b50610132546101f190600160a01b900461ffff1681565b34801561043d57600080fd5b5061017061044c3660046118d6565b610e78565b34801561045d57600080fd5b5061012f546101bd906001600160a01b031681565b61047a610eee565b610482610f48565b610134805461ffff191661ffff841690811790915561013582905560408051918252602082018390527fd620e4b77c3bbf13e3bc6a93f649e954292e464ca605e6d0bd660d70787371b9910160405180910390a15050565b6001600160a01b037f000000000000000000000000000000000000000000000000000000000000000016300361052b5760405162461bcd60e51b815260040161052290611b72565b60405180910390fd5b7f00000000000000000000000000000000000000000000000000000000000000006001600160a01b0316610574600080516020611d95833981519152546001600160a01b031690565b6001600160a01b03161461059a5760405162461bcd60e51b815260040161052290611bbe565b6105a381610f8e565b604080516000808252602082019092526105bf91839190610f96565b50565b6105ca611106565b6105d2610f48565b336000908152610136602090815260408083205461013790925290912054811515806105fe5750600081115b61063b5760405162461bcd60e51b815260206004820152600e60248201526d52443a206e6f207265776172647360901b6044820152606401610522565b610130546040516327c5fdcd60e21b81523360048201526000916001600160a01b031690639f17f73490602401602060405180830381865afa158015610685573d6000803e3d6000fd5b505050506040513d601f19601f820116820180604052508101906106a99190611c0a565b61013354610132549192506000916106cd908490600160a01b900461ffff16611c39565b6106d79190611c50565b905060006127106106e88382611c72565b6106f29087611c39565b6106fc9190611c50565b610131546040516327c5fdcd60e21b81523360048201529192506000916001600160a01b0390911690639f17f73490602401602060405180830381865afa15801561074b573d6000803e3d6000fd5b505050506040513d601f19601f8201168201806040525081019061076f9190611c0a565b610135546101345491925060009161078c90849061ffff16611c39565b6107969190611c50565b905060006127106107a78382611c72565b6107b19089611c39565b6107bb9190611c50565b336000908152610136602090815260408083208390556101379091528120556101325490915084906001600160a01b031615610875576101325461012d54604051633d235f9b60e11b81526001600160a01b03918216600482015230602482015260448101889052911690637a46bf36906064016020604051808303816000875af115801561084e573d6000803e3d6000fd5b505050506040513d601f19601f820116820180604052508101906108729190611c0a565b90505b61012d5461088d906001600160a01b0316338361115f565b61012e546108a5906001600160a01b0316338461115f565b6040805182815260208101849052908101889052606081018790526080810185905260a0810184905233907f81cf85e873bf8ffc652276abd1df29c5cc0765b36ab5af38b47472b8fe55e1199060c00160405180910390a25050505050505050506109106001609755565b565b6001600160a01b037f000000000000000000000000000000000000000000000000000000000000000016300361095a5760405162461bcd60e51b815260040161052290611b72565b7f00000000000000000000000000000000000000000000000000000000000000006001600160a01b03166109a3600080516020611d95833981519152546001600160a01b031690565b6001600160a01b0316146109c95760405162461bcd60e51b815260040161052290611bbe565b6109d282610f8e565b6109de82826001610f96565b5050565b6000306001600160a01b037f00000000000000000000000000000000000000000000000000000000000000001614610a825760405162461bcd60e51b815260206004820152603860248201527f555550535570677261646561626c653a206d757374206e6f742062652063616c60448201527f6c6564207468726f7567682064656c656761746563616c6c00000000000000006064820152608401610522565b50600080516020611d9583398151915290565b600054610100900460ff1615808015610ab55750600054600160ff909116105b80610acf5750303b158015610acf575060005460ff166001145b610b325760405162461bcd60e51b815260206004820152602e60248201527f496e697469616c697a61626c653a20636f6e747261637420697320616c72656160448201526d191e481a5b9a5d1a585b1a5e995960921b6064820152608401610522565b6000805460ff191660011790558015610b55576000805461ff0019166101001790555b610b5d6111c9565b610b656111f8565b610b6d611227565b610b75611256565b61012f80546001600160a01b03199081166001600160a01b038e81169190911790925561012d805482168d841690811790915561012e805483168d8516179055610130805483168c8516179055610131805483168b851617905561013280546101338a90556001600160b01b031916600160a01b61ffff8c8116919091029094161793881693909317909255610134805461ffff1916918616919091179055610135839055610c27908560001961127d565b8015610c6d576000805461ff0019169055604051600181527f7f26b83ff96e1f2b6a682f133852f6798a09c465da95921460cefb38474024989060200160405180910390a15b5050505050505050505050565b610c82610eee565b610c8a610f48565b61013280546001600160a01b0319166001600160a01b038381169190911790915561012d54610cbd91168260001961127d565b6040516001600160a01b038216907fd8a93a9c14ce85962a25ee8f3af78353252a21c9fe3df50ebded9f8820fbd93190600090a250565b610cfc610eee565b6109106000611392565b610d0e610f48565b8483148015610d1c57508481145b610d5e5760405162461bcd60e51b81526020600482015260136024820152720a4887440d8cadccee8d040dad2e6dac2e8c6d606b1b6044820152606401610522565b60005b85811015610e6f57848482818110610d7b57610d7b611c85565b905060200201356101366000898985818110610d9957610d99611c85565b9050602002016020810190610dae91906118d6565b6001600160a01b03166001600160a01b031681526020019081526020016000206000828254610ddd9190611c72565b909155508390508282818110610df557610df5611c85565b905060200201356101376000898985818110610e1357610e13611c85565b9050602002016020810190610e2891906118d6565b6001600160a01b03166001600160a01b031681526020019081526020016000206000828254610e579190611c72565b90915550819050610e6781611c9b565b915050610d61565b50505050505050565b610e80610eee565b6001600160a01b038116610ee55760405162461bcd60e51b815260206004820152602660248201527f4f776e61626c653a206e6577206f776e657220697320746865207a65726f206160448201526564647265737360d01b6064820152608401610522565b6105bf81611392565b6033546001600160a01b031633146109105760405162461bcd60e51b815260206004820181905260248201527f4f776e61626c653a2063616c6c6572206973206e6f7420746865206f776e65726044820152606401610522565b60655460ff16156109105760405162461bcd60e51b815260206004820152601060248201526f14185d5cd8589b194e881c185d5cd95960821b6044820152606401610522565b6105bf610eee565b7f4910fdfa16fed3260ed0e7147f7cc6da11a60208b5b9406d12a635614ffd91435460ff1615610fce57610fc9836113e4565b505050565b826001600160a01b03166352d1902d6040518163ffffffff1660e01b8152600401602060405180830381865afa925050508015611028575060408051601f3d908101601f1916820190925261102591810190611c0a565b60015b61108b5760405162461bcd60e51b815260206004820152602e60248201527f45524331393637557067726164653a206e657720696d706c656d656e7461746960448201526d6f6e206973206e6f74205555505360901b6064820152608401610522565b600080516020611d9583398151915281146110fa5760405162461bcd60e51b815260206004820152602960248201527f45524331393637557067726164653a20756e737570706f727465642070726f786044820152681a58589b195555525160ba1b6064820152608401610522565b50610fc9838383611480565b6002609754036111585760405162461bcd60e51b815260206004820152601f60248201527f5265656e7472616e637947756172643a207265656e7472616e742063616c6c006044820152606401610522565b6002609755565b6040516001600160a01b038316602482015260448101829052610fc990849063a9059cbb60e01b906064015b60408051601f198184030181529190526020810180516001600160e01b03166001600160e01b0319909316929092179091526114ab565b6001609755565b600054610100900460ff166111f05760405162461bcd60e51b815260040161052290611cb4565b610910611580565b600054610100900460ff1661121f5760405162461bcd60e51b815260040161052290611cb4565b6109106115b0565b600054610100900460ff1661124e5760405162461bcd60e51b815260040161052290611cb4565b6109106115e3565b600054610100900460ff166109105760405162461bcd60e51b815260040161052290611cb4565b8015806112f75750604051636eb1769f60e11b81523060048201526001600160a01b03838116602483015284169063dd62ed3e90604401602060405180830381865afa1580156112d1573d6000803e3d6000fd5b505050506040513d601f19601f820116820180604052508101906112f59190611c0a565b155b6113625760405162461bcd60e51b815260206004820152603660248201527f5361666545524332303a20617070726f76652066726f6d206e6f6e2d7a65726f60448201527520746f206e6f6e2d7a65726f20616c6c6f77616e636560501b6064820152608401610522565b6040516001600160a01b038316602482015260448101829052610fc990849063095ea7b360e01b9060640161118b565b603380546001600160a01b038381166001600160a01b0319831681179093556040519116919082907f8be0079c531659141344cd1fd0a4f28419497f9722a3daafe3b4186f6b6457e090600090a35050565b6001600160a01b0381163b6114515760405162461bcd60e51b815260206004820152602d60248201527f455243313936373a206e657720696d706c656d656e746174696f6e206973206e60448201526c1bdd08184818dbdb9d1c9858dd609a1b6064820152608401610522565b600080516020611d9583398151915280546001600160a01b0319166001600160a01b0392909216919091179055565b6114898361160a565b6000825111806114965750805b15610fc9576114a5838361164a565b50505050565b6000611500826040518060400160405280602081526020017f5361666545524332303a206c6f772d6c6576656c2063616c6c206661696c6564815250856001600160a01b03166116789092919063ffffffff16565b90508051600014806115215750808060200190518101906115219190611cff565b610fc95760405162461bcd60e51b815260206004820152602a60248201527f5361666545524332303a204552433230206f7065726174696f6e20646964206e6044820152691bdd081cdd58d8d9595960b21b6064820152608401610522565b600054610100900460ff166115a75760405162461bcd60e51b815260040161052290611cb4565b61091033611392565b600054610100900460ff166115d75760405162461bcd60e51b815260040161052290611cb4565b6065805460ff19169055565b600054610100900460ff166111c25760405162461bcd60e51b815260040161052290611cb4565b611613816113e4565b6040516001600160a01b038216907fbc7cd75a20ee27fd9adebab32041f755214dbc6bffa90cc0225b39da2e5c2d3b90600090a250565b606061166f8383604051806060016040528060278152602001611db56027913961168f565b90505b92915050565b60606116878484600085611707565b949350505050565b6060600080856001600160a01b0316856040516116ac9190611d45565b600060405180830381855af49150503d80600081146116e7576040519150601f19603f3d011682016040523d82523d6000602084013e6116ec565b606091505b50915091506116fd868383876117e2565b9695505050505050565b6060824710156117685760405162461bcd60e51b815260206004820152602660248201527f416464726573733a20696e73756666696369656e742062616c616e636520666f6044820152651c8818d85b1b60d21b6064820152608401610522565b600080866001600160a01b031685876040516117849190611d45565b60006040518083038185875af1925050503d80600081146117c1576040519150601f19603f3d011682016040523d82523d6000602084013e6117c6565b606091505b50915091506117d7878383876117e2565b979650505050505050565b6060831561185157825160000361184a576001600160a01b0385163b61184a5760405162461bcd60e51b815260206004820152601d60248201527f416464726573733a2063616c6c20746f206e6f6e2d636f6e74726163740000006044820152606401610522565b5081611687565b61168783838151156118665781518083602001fd5b8060405162461bcd60e51b81526004016105229190611d61565b803561ffff8116811461189257600080fd5b919050565b600080604083850312156118aa57600080fd5b6118b383611880565b946020939093013593505050565b6001600160a01b03811681146105bf57600080fd5b6000602082840312156118e857600080fd5b81356118f3816118c1565b9392505050565b634e487b7160e01b600052604160045260246000fd5b6000806040838503121561192357600080fd5b823561192e816118c1565b9150602083013567ffffffffffffffff8082111561194b57600080fd5b818501915085601f83011261195f57600080fd5b813581811115611971576119716118fa565b604051601f8201601f19908116603f01168101908382118183101715611999576119996118fa565b816040528281528860208487010111156119b257600080fd5b8260208601602083013760006020848301015280955050505050509250929050565b6000806000806000806000806000806101408b8d0312156119f457600080fd5b8a356119ff816118c1565b995060208b0135611a0f816118c1565b985060408b0135611a1f816118c1565b975060608b0135611a2f816118c1565b965060808b0135611a3f816118c1565b9550611a4d60a08c01611880565b945060c08b0135935060e08b0135611a64816118c1565b9250611a736101008c01611880565b91506101208b013590509295989b9194979a5092959850565b60008083601f840112611a9e57600080fd5b50813567ffffffffffffffff811115611ab657600080fd5b6020830191508360208260051b8501011115611ad157600080fd5b9250929050565b60008060008060008060608789031215611af157600080fd5b863567ffffffffffffffff80821115611b0957600080fd5b611b158a838b01611a8c565b90985096506020890135915080821115611b2e57600080fd5b611b3a8a838b01611a8c565b90965094506040890135915080821115611b5357600080fd5b50611b6089828a01611a8c565b979a9699509497509295939492505050565b6020808252602c908201527f46756e6374696f6e206d7573742062652063616c6c6564207468726f7567682060408201526b19195b1959d85d1958d85b1b60a21b606082015260800190565b6020808252602c908201527f46756e6374696f6e206d7573742062652063616c6c6564207468726f7567682060408201526b6163746976652070726f787960a01b606082015260800190565b600060208284031215611c1c57600080fd5b5051919050565b634e487b7160e01b600052601160045260246000fd5b808202811582820484141761167257611672611c23565b600082611c6d57634e487b7160e01b600052601260045260246000fd5b500490565b8082018082111561167257611672611c23565b634e487b7160e01b600052603260045260246000fd5b600060018201611cad57611cad611c23565b5060010190565b6020808252602b908201527f496e697469616c697a61626c653a20636f6e7472616374206973206e6f74206960408201526a6e697469616c697a696e6760a81b606082015260800190565b600060208284031215611d1157600080fd5b815180151581146118f357600080fd5b60005b83811015611d3c578181015183820152602001611d24565b50506000910152565b60008251611d57818460208701611d21565b9190910192915050565b6020815260008251806020840152611d80816040850160208701611d21565b601f01601f1916919091016040019291505056fe360894a13ba1a3210667c828492db98dca3e2076cc3735a920a3ca505d382bbc416464726573733a206c6f772d6c6576656c2064656c65676174652063616c6c206661696c6564a264697066735822122012ce70e8c31c7fd4b4159093e54bd1da2ee28f77f869b8ae5f6fb2a1a6bede8464736f6c63430008140033",
  "linkReferences": {},
  "deployedLinkReferences": {}
}