{
  "_format": "hh-sol-artifact-1",
  "contractName": "NodeFiCommissionManager",
  "sourceName": "contracts/NodeFiCommissionManager.sol",
  "abi": [
    {
      "anonymous": false,
      "inputs": [
        {
          "indexed": false,
          "internalType": "address",
          "name": "previousAdmin",
          "type": "address"
        },
        {
          "indexed": false,
          "internalType": "address",
          "name": "newAdmin",
          "type": "address"
        }
      ],
      "name": "AdminChanged",
      "type": "event"
    },
    {
      "anonymous": false,
      "inputs": [
        {
          "indexed": true,
          "internalType": "address",
          "name": "beacon",
          "type": "address"
        }
      ],
      "name": "BeaconUpgraded",
      "type": "event"
    },
    {
      "anonymous": false,
      "inputs": [
        {
          "indexed": false,
          "internalType": "uint16",
          "name": "newCommissionBps",
          "type": "uint16"
        }
      ],
      "name": "CommissionParamsUpdated",
      "type": "event"
    },
    {
      "anonymous": false,
      "inputs": [
        {
          "indexed": true,
          "internalType": "address",
          "name": "token",
          "type": "address"
        },
        {
          "indexed": true,
          "internalType": "address",
          "name": "payer",
          "type": "address"
        },
        {
          "indexed": false,
          "internalType": "uint256",
          "name": "commissionAmount",
          "type": "uint256"
        }
      ],
      "name": "CommissionTaken",
      "type": "event"
    },
    {
      "anonymous": false,
      "inputs": [
        {
          "indexed": false,
          "internalType": "uint8",
          "name": "version",
          "type": "uint8"
        }
      ],
      "name": "Initialized",
      "type": "event"
    },
    {
      "anonymous": false,
      "inputs": [
        {
          "indexed": true,
          "internalType": "address",
          "name": "previousOwner",
          "type": "address"
        },
        {
          "indexed": true,
          "internalType": "address",
          "name": "newOwner",
          "type": "address"
        }
      ],
      "name": "OwnershipTransferred",
      "type": "event"
    },
    {
      "anonymous": false,
      "inputs": [
        {
          "indexed": false,
          "internalType": "address",
          "name": "account",
          "type": "address"
        }
      ],
      "name": "Paused",
      "type": "event"
    },
    {
      "anonymous": false,
      "inputs": [
        {
          "indexed": true,
          "internalType": "address",
          "name": "newTreasury",
          "type": "address"
        }
      ],
      "name": "TreasuryUpdated",
      "type": "event"
    },
    {
      "anonymous": false,
      "inputs": [
        {
          "indexed": false,
          "internalType": "address",
          "name": "account",
          "type": "address"
        }
      ],
      "name": "Unpaused",
      "type": "event"
    },
    {
      "anonymous": false,
      "inputs": [
        {
          "indexed": true,
          "internalType": "address",
          "name": "implementation",
          "type": "address"
        }
      ],
      "name": "Upgraded",
      "type": "event"
    },
    {
      "inputs": [],
      "name": "commissionBps",
      "outputs": [
        {
          "internalType": "uint16",
          "name": "",
          "type": "uint16"
        }
      ],
      "stateMutability": "view",
      "type": "function"
    },
    {
      "inputs": [
        {
          "internalType": "contract IERC20Upgradeable",
          "name": "token",
          "type": "address"
        },
        {
          "internalType": "address",
          "name": "payer",
          "type": "address"
        },
        {
          "internalType": "uint256",
          "name": "grossAmount",
          "type": "uint256"
        }
      ],
      "name": "handleCommission",
      "outputs": [
        {
          "internalType": "uint256",
          "name": "netAmount",
          "type": "uint256"
        }
      ],
      "stateMutability": "nonpayable",
      "type": "function"
    },
    {
      "inputs": [
        {
          "internalType": "uint16",
          "name": "_commissionBps",
          "type": "uint16"
        },
        {
          "internalType": "address",
          "name": "_treasury",
          "type": "address"
        }
      ],
      "name": "initialize",
      "outputs": [],
      "stateMutability": "nonpayable",
      "type": "function"
    },
    {
      "inputs": [],
      "name": "owner",
      "outputs": [
        {
          "internalType": "address",
          "name": "",
          "type": "address"
        }
      ],
      "stateMutability": "view",
      "type": "function"
    },
    {
      "inputs": [],
      "name": "paused",
      "outputs": [
        {
          "internalType": "bool",
          "name": "",
          "type": "bool"
        }
      ],
      "stateMutability": "view",
      "type": "function"
    },
    {
      "inputs": [],
      "name": "proxiableUUID",
      "outputs": [
        {
          "internalType": "bytes32",
          "name": "",
          "type": "bytes32"
        }
      ],
      "stateMutability": "view",
      "type": "function"
    },
    {
      "inputs": [],
      "name": "renounceOwnership",
      "outputs": [],
      "stateMutability": "nonpayable",
      "type": "function"
    },
    {
      "inputs": [
        {
          "internalType": "uint16",
          "name": "_commissionBps",
          "type": "uint16"
        }
      ],
      "name": "setCommissionBps",
      "outputs": [],
      "stateMutability": "nonpayable",
      "type": "function"
    },
    {
      "inputs": [
        {
          "internalType": "address",
          "name": "_treasury",
          "type": "address"
        }
      ],
      "name": "setTreasury",
      "outputs": [],
      "stateMutability": "nonpayable",
      "type": "function"
    },
    {
      "inputs": [
        {
          "internalType": "address",
          "name": "newOwner",
          "type": "address"
        }
      ],
      "name": "transferOwnership",
      "outputs": [],
      "stateMutability": "nonpayable",
      "type": "function"
    },
    {
      "inputs": [],
      "name": "treasury",
      "outputs": [
        {
          "internalType": "address",
          "name": "",
          "type": "address"
        }
      ],
      "stateMutability": "view",
      "type": "function"
    },
    {
      "inputs": [
        {
          "internalType": "address",
          "name": "newImplementation",
          "type": "address"
        }
      ],
      "name": "upgradeTo",
      "outputs": [],
      "stateMutability": "nonpayable",
      "type": "function"
    },
    {
      "inputs": [
        {
          "internalType": "address",
          "name": "newImplementation",
          "type": "address"
        },
        {
          "internalType": "bytes",
          "name": "data",
          "type": "bytes"
        }
      ],
      "name": "upgradeToAndCall",
      "outputs": [],
      "stateMutability": "payable",
      "type": "function"
    }
  ],
  "bytecode": "0x60a06040523060805234801561001457600080fd5b506080516116a161004c60003960008181610292015281816102db0152818161037a015281816103ba015261044d01526116a16000f3fe6080604052600436106100c25760003560e01c80637a46bf361161007f578063e0dbcde511610059578063e0dbcde514610208578063f0f4426014610228578063f2fde38b14610248578063f52668c11461026857600080fd5b80637a46bf361461019b5780638da5cb5b146101bb578063d6b45038146101d957600080fd5b80633659cfe6146100c75780634f1ef286146100e957806352d1902d146100fc5780635c975abb1461012457806361d027b314610147578063715018a614610186575b600080fd5b3480156100d357600080fd5b506100e76100e2366004611290565b610288565b005b6100e76100f73660046112c3565b610370565b34801561010857600080fd5b50610111610440565b6040519081526020015b60405180910390f35b34801561013057600080fd5b5060655460ff16604051901515815260200161011b565b34801561015357600080fd5b5061012d5461016e906201000090046001600160a01b031681565b6040516001600160a01b03909116815260200161011b565b34801561019257600080fd5b506100e76104f3565b3480156101a757600080fd5b506101116101b6366004611387565b610507565b3480156101c757600080fd5b506033546001600160a01b031661016e565b3480156101e557600080fd5b5061012d546101f59061ffff1681565b60405161ffff909116815260200161011b565b34801561021457600080fd5b506100e76102233660046113df565b61062a565b34801561023457600080fd5b506100e7610243366004611290565b61082a565b34801561025457600080fd5b506100e7610263366004611290565b6108e5565b34801561027457600080fd5b506100e7610283366004611416565b61095b565b6001600160a01b037f00000000000000000000000000000000000000000000000000000000000000001630036102d95760405162461bcd60e51b81526004016102d090611431565b60405180910390fd5b7f00000000000000000000000000000000000000000000000000000000000000006001600160a01b0316610322600080516020611625833981519152546001600160a01b031690565b6001600160a01b0316146103485760405162461bcd60e51b81526004016102d09061147d565b61035181610a0c565b6040805160008082526020820190925261036d91839190610a14565b50565b6001600160a01b037f00000000000000000000000000000000000000000000000000000000000000001630036103b85760405162461bcd60e51b81526004016102d090611431565b7f00000000000000000000000000000000000000000000000000000000000000006001600160a01b0316610401600080516020611625833981519152546001600160a01b031690565b6001600160a01b0316146104275760405162461bcd60e51b81526004016102d09061147d565b61043082610a0c565b61043c82826001610a14565b5050565b6000306001600160a01b037f000000000000000000000000000000000000000000000000000000000000000016146104e05760405162461bcd60e51b815260206004820152603860248201527f555550535570677261646561626c653a206d757374206e6f742062652063616c60448201527f6c6564207468726f7567682064656c656761746563616c6c000000000000000060648201526084016102d0565b5060008051602061162583398151915290565b6104fb610b7f565b6105056000610bd9565b565b6000610511610c2b565b610519610c84565b6001600160a01b03831661056f5760405162461bcd60e51b815260206004820181905260248201527f436f6d6d697373696f6e4d616e616765723a20696e76616c696420706179657260448201526064016102d0565b61012d54600090612710906105889061ffff16856114df565b61059291906114f6565b9050801561060c5761012d546105be906001600160a01b03878116918791620100009091041684610cca565b836001600160a01b0316856001600160a01b03167f11b6b5f7b36110a87c2b0d8f114c214c08b8e85f5240a1f7c287d09ccdfa1e288360405161060391815260200190565b60405180910390a35b6106168184611518565b9150506106236001609755565b9392505050565b600054610100900460ff161580801561064a5750600054600160ff909116105b806106645750303b158015610664575060005460ff166001145b6106c75760405162461bcd60e51b815260206004820152602e60248201527f496e697469616c697a61626c653a20636f6e747261637420697320616c72656160448201526d191e481a5b9a5d1a585b1a5e995960921b60648201526084016102d0565b6000805460ff1916600117905580156106ea576000805461ff0019166101001790555b6106f2610d31565b6106fa610d60565b610702610d8f565b61070a610dbe565b6127108361ffff1611156107605760405162461bcd60e51b815260206004820152601e60248201527f436f6d6d697373696f6e4d616e616765723a20696e76616c696420627073000060448201526064016102d0565b6001600160a01b0382166107b65760405162461bcd60e51b815260206004820181905260248201527f436f6d6d697373696f6e4d616e616765723a207a65726f20747265617375727960448201526064016102d0565b61012d80546001600160a01b03841662010000026001600160b01b031990911661ffff8616171790558015610825576000805461ff0019169055604051600181527f7f26b83ff96e1f2b6a682f133852f6798a09c465da95921460cefb38474024989060200160405180910390a15b505050565b610832610b7f565b61083a610c84565b6001600160a01b0381166108905760405162461bcd60e51b815260206004820181905260248201527f436f6d6d697373696f6e4d616e616765723a207a65726f20747265617375727960448201526064016102d0565b61012d805462010000600160b01b031916620100006001600160a01b038416908102919091179091556040517f7dae230f18360d76a040c81f050aa14eb9d6dc7901b20fc5d855e2a20fe814d190600090a250565b6108ed610b7f565b6001600160a01b0381166109525760405162461bcd60e51b815260206004820152602660248201527f4f776e61626c653a206e6577206f776e657220697320746865207a65726f206160448201526564647265737360d01b60648201526084016102d0565b61036d81610bd9565b610963610b7f565b61096b610c84565b6127108161ffff1611156109c15760405162461bcd60e51b815260206004820152601e60248201527f436f6d6d697373696f6e4d616e616765723a20696e76616c696420627073000060448201526064016102d0565b61012d805461ffff191661ffff83169081179091556040519081527fd3876f8b7db4862bf847783b9076a4d03c72fb1d0f532d887a590e4618d34ded9060200160405180910390a150565b61036d610b7f565b7f4910fdfa16fed3260ed0e7147f7cc6da11a60208b5b9406d12a635614ffd91435460ff1615610a475761082583610de5565b826001600160a01b03166352d1902d6040518163ffffffff1660e01b8152600401602060405180830381865afa925050508015610aa1575060408051601f3d908101601f19168201909252610a9e9181019061152b565b60015b610b045760405162461bcd60e51b815260206004820152602e60248201527f45524331393637557067726164653a206e657720696d706c656d656e7461746960448201526d6f6e206973206e6f74205555505360901b60648201526084016102d0565b6000805160206116258339815191528114610b735760405162461bcd60e51b815260206004820152602960248201527f45524331393637557067726164653a20756e737570706f727465642070726f786044820152681a58589b195555525160ba1b60648201526084016102d0565b50610825838383610e81565b6033546001600160a01b031633146105055760405162461bcd60e51b815260206004820181905260248201527f4f776e61626c653a2063616c6c6572206973206e6f7420746865206f776e657260448201526064016102d0565b603380546001600160a01b038381166001600160a01b0319831681179093556040519116919082907f8be0079c531659141344cd1fd0a4f28419497f9722a3daafe3b4186f6b6457e090600090a35050565b600260975403610c7d5760405162461bcd60e51b815260206004820152601f60248201527f5265656e7472616e637947756172643a207265656e7472616e742063616c6c0060448201526064016102d0565b6002609755565b60655460ff16156105055760405162461bcd60e51b815260206004820152601060248201526f14185d5cd8589b194e881c185d5cd95960821b60448201526064016102d0565b604080516001600160a01b0385811660248301528416604482015260648082018490528251808303909101815260849091019091526020810180516001600160e01b03166323b872dd60e01b179052610d24908590610ea6565b50505050565b6001609755565b600054610100900460ff16610d585760405162461bcd60e51b81526004016102d090611544565b610505610f7b565b600054610100900460ff16610d875760405162461bcd60e51b81526004016102d090611544565b610505610fab565b600054610100900460ff16610db65760405162461bcd60e51b81526004016102d090611544565b610505610fde565b600054610100900460ff166105055760405162461bcd60e51b81526004016102d090611544565b6001600160a01b0381163b610e525760405162461bcd60e51b815260206004820152602d60248201527f455243313936373a206e657720696d706c656d656e746174696f6e206973206e60448201526c1bdd08184818dbdb9d1c9858dd609a1b60648201526084016102d0565b60008051602061162583398151915280546001600160a01b0319166001600160a01b0392909216919091179055565b610e8a83611005565b600082511180610e975750805b1561082557610d248383611045565b6000610efb826040518060400160405280602081526020017f5361666545524332303a206c6f772d6c6576656c2063616c6c206661696c6564815250856001600160a01b03166110739092919063ffffffff16565b9050805160001480610f1c575080806020019051810190610f1c919061158f565b6108255760405162461bcd60e51b815260206004820152602a60248201527f5361666545524332303a204552433230206f7065726174696f6e20646964206e6044820152691bdd081cdd58d8d9595960b21b60648201526084016102d0565b600054610100900460ff16610fa25760405162461bcd60e51b81526004016102d090611544565b61050533610bd9565b600054610100900460ff16610fd25760405162461bcd60e51b81526004016102d090611544565b6065805460ff19169055565b600054610100900460ff16610d2a5760405162461bcd60e51b81526004016102d090611544565b61100e81610de5565b6040516001600160a01b038216907fbc7cd75a20ee27fd9adebab32041f755214dbc6bffa90cc0225b39da2e5c2d3b90600090a250565b606061106a83836040518060600160405280602781526020016116456027913961108a565b90505b92915050565b60606110828484600085611102565b949350505050565b6060600080856001600160a01b0316856040516110a791906115d5565b600060405180830381855af49150503d80600081146110e2576040519150601f19603f3d011682016040523d82523d6000602084013e6110e7565b606091505b50915091506110f8868383876111dd565b9695505050505050565b6060824710156111635760405162461bcd60e51b815260206004820152602660248201527f416464726573733a20696e73756666696369656e742062616c616e636520666f6044820152651c8818d85b1b60d21b60648201526084016102d0565b600080866001600160a01b0316858760405161117f91906115d5565b60006040518083038185875af1925050503d80600081146111bc576040519150601f19603f3d011682016040523d82523d6000602084013e6111c1565b606091505b50915091506111d2878383876111dd565b979650505050505050565b6060831561124c578251600003611245576001600160a01b0385163b6112455760405162461bcd60e51b815260206004820152601d60248201527f416464726573733a2063616c6c20746f206e6f6e2d636f6e747261637400000060448201526064016102d0565b5081611082565b61108283838151156112615781518083602001fd5b8060405162461bcd60e51b81526004016102d091906115f1565b6001600160a01b038116811461036d57600080fd5b6000602082840312156112a257600080fd5b81356106238161127b565b634e487b7160e01b600052604160045260246000fd5b600080604083850312156112d657600080fd5b82356112e18161127b565b9150602083013567ffffffffffffffff808211156112fe57600080fd5b818501915085601f83011261131257600080fd5b813581811115611324576113246112ad565b604051601f8201601f19908116603f0116810190838211818310171561134c5761134c6112ad565b8160405282815288602084870101111561136557600080fd5b8260208601602083013760006020848301015280955050505050509250929050565b60008060006060848603121561139c57600080fd5b83356113a78161127b565b925060208401356113b78161127b565b929592945050506040919091013590565b803561ffff811681146113da57600080fd5b919050565b600080604083850312156113f257600080fd5b6113fb836113c8565b9150602083013561140b8161127b565b809150509250929050565b60006020828403121561142857600080fd5b61106a826113c8565b6020808252602c908201527f46756e6374696f6e206d7573742062652063616c6c6564207468726f7567682060408201526b19195b1959d85d1958d85b1b60a21b606082015260800190565b6020808252602c908201527f46756e6374696f6e206d7573742062652063616c6c6564207468726f7567682060408201526b6163746976652070726f787960a01b606082015260800190565b634e487b7160e01b600052601160045260246000fd5b808202811582820484141761106d5761106d6114c9565b60008261151357634e487b7160e01b600052601260045260246000fd5b500490565b8181038181111561106d5761106d6114c9565b60006020828403121561153d57600080fd5b5051919050565b6020808252602b908201527f496e697469616c697a61626c653a20636f6e7472616374206973206e6f74206960408201526a6e697469616c697a696e6760a81b606082015260800190565b6000602082840312156115a157600080fd5b8151801515811461062357600080fd5b60005b838110156115cc5781810151838201526020016115b4565b50506000910152565b600082516115e78184602087016115b1565b9190910192915050565b60208152600082518060208401526116108160408501602087016115b1565b601f01601f1916919091016040019291505056fe360894a13ba1a3210667c828492db98dca3e2076cc3735a920a3ca505d382bbc416464726573733a206c6f772d6c6576656c2064656c65676174652063616c6c206661696c6564a2646970667358221220913dae4c9a13d6b819d753902e13ae1d6cff7f6dc1be3fa538ebf05c01588d4764736f6c63430008140033",
  "linkReferences": {},
  "deployedLinkReferences": {}
}