{
  "_format": "hh-sol-artifact-1",
  "contractName": "NodeFiVeUNI",
  "sourceName": "contracts/NodeFiVeUNI.sol",
  "abi": [
    {
      "anonymous": false,
      "inputs": [
        {
          "indexed": false,
          "internalType": "address",
          "name": "previousAdmin",
          "type": "address"
        },
        {
          "indexed": false,
          "internalType": "address",
          "name": "newAdmin",
          "type": "address"
        }
      ],
      "name": "AdminChanged",
      "type": "event"
    },
    {
      "anonymous": false,
      "inputs": [
        {
          "indexed": true,
          "internalType": "address",
          "name": "user",
          "type": "address"
        },
        {
          "indexed": false,
          "internalType": "uint256",
          "name": "addedAmount",
          "type": "uint256"
        },
        {
          "indexed": false,
          "internalType": "uint256",
          "name": "newTotal",
          "type": "uint256"
        }
      ],
      "name": "AmountIncreased",
      "type": "event"
    },
    {
      "anonymous": false,
      "inputs": [
        {
          "indexed": true,
          "internalType": "address",
          "name": "beacon",
          "type": "address"
        }
      ],
      "name": "BeaconUpgraded",
      "type": "event"
    },
    {
      "anonymous": false,
      "inputs": [
        {
          "indexed": false,
          "internalType": "uint8",
          "name": "version",
          "type": "uint8"
        }
      ],
      "name": "Initialized",
      "type": "event"
    },
    {
      "anonymous": false,
      "inputs": [
        {
          "indexed": true,
          "internalType": "address",
          "name": "user",
          "type": "address"
        },
        {
          "indexed": false,
          "internalType": "uint256",
          "name": "amount",
          "type": "uint256"
        },
        {
          "indexed": false,
          "internalType": "uint256",
          "name": "unlockTime",
          "type": "uint256"
        }
      ],
      "name": "LockCreated",
      "type": "event"
    },
    {
      "anonymous": false,
      "inputs": [
        {
          "indexed": true,
          "internalType": "address",
          "name": "previousOwner",
          "type": "address"
        },
        {
          "indexed": true,
          "internalType": "address",
          "name": "newOwner",
          "type": "address"
        }
      ],
      "name": "OwnershipTransferred",
      "type": "event"
    },
    {
      "anonymous": false,
      "inputs": [
        {
          "indexed": false,
          "internalType": "address",
          "name": "account",
          "type": "address"
        }
      ],
      "name": "Paused",
      "type": "event"
    },
    {
      "anonymous": false,
      "inputs": [
        {
          "indexed": true,
          "internalType": "uint32",
          "name": "epoch",
          "type": "uint32"
        },
        {
          "indexed": false,
          "internalType": "uint256",
          "name": "timestamp",
          "type": "uint256"
        },
        {
          "indexed": false,
          "internalType": "uint256",
          "name": "supply",
          "type": "uint256"
        }
      ],
      "name": "SupplyCheckpointed",
      "type": "event"
    },
    {
      "anonymous": false,
      "inputs": [
        {
          "indexed": true,
          "internalType": "address",
          "name": "user",
          "type": "address"
        },
        {
          "indexed": false,
          "internalType": "uint256",
          "name": "oldUnlockTime",
          "type": "uint256"
        },
        {
          "indexed": false,
          "internalType": "uint256",
          "name": "newUnlockTime",
          "type": "uint256"
        }
      ],
      "name": "TimeExtended",
      "type": "event"
    },
    {
      "anonymous": false,
      "inputs": [
        {
          "indexed": false,
          "internalType": "address",
          "name": "account",
          "type": "address"
        }
      ],
      "name": "Unpaused",
      "type": "event"
    },
    {
      "anonymous": false,
      "inputs": [
        {
          "indexed": true,
          "internalType": "address",
          "name": "implementation",
          "type": "address"
        }
      ],
      "name": "Upgraded",
      "type": "event"
    },
    {
      "anonymous": false,
      "inputs": [
        {
          "indexed": true,
          "internalType": "address",
          "name": "user",
          "type": "address"
        },
        {
          "indexed": false,
          "internalType": "uint256",
          "name": "amount",
          "type": "uint256"
        }
      ],
      "name": "Withdrawn",
      "type": "event"
    },
    {
      "stateMutability": "payable",
      "type": "fallback"
    },
    {
      "inputs": [],
      "name": "MAX_TIME",
      "outputs": [
        {
          "internalType": "uint256",
          "name": "",
          "type": "uint256"
        }
      ],
      "stateMutability": "view",
      "type": "function"
    },
    {
      "inputs": [
        {
          "internalType": "uint256",
          "name": "amount",
          "type": "uint256"
        },
        {
          "internalType": "uint256",
          "name": "unlockTime",
          "type": "uint256"
        }
      ],
      "name": "createLock",
      "outputs": [],
      "stateMutability": "nonpayable",
      "type": "function"
    },
    {
      "inputs": [
        {
          "internalType": "uint256",
          "name": "added",
          "type": "uint256"
        }
      ],
      "name": "increaseAmount",
      "outputs": [],
      "stateMutability": "nonpayable",
      "type": "function"
    },
    {
      "inputs": [
        {
          "internalType": "uint256",
          "name": "newUnlockTime",
          "type": "uint256"
        }
      ],
      "name": "increaseUnlockTime",
      "outputs": [],
      "stateMutability": "nonpayable",
      "type": "function"
    },
    {
      "inputs": [
        {
          "internalType": "address",
          "name": "_uniToken",
          "type": "address"
        }
      ],
      "name": "initialize",
      "outputs": [],
      "stateMutability": "nonpayable",
      "type": "function"
    },
    {
      "inputs": [
        {
          "internalType": "address",
          "name": "",
          "type": "address"
        }
      ],
      "name": "lockEnd",
      "outputs": [
        {
          "internalType": "uint256",
          "name": "",
          "type": "uint256"
        }
      ],
      "stateMutability": "view",
      "type": "function"
    },
    {
      "inputs": [
        {
          "internalType": "address",
          "name": "",
          "type": "address"
        }
      ],
      "name": "lockedAmount",
      "outputs": [
        {
          "internalType": "uint256",
          "name": "",
          "type": "uint256"
        }
      ],
      "stateMutability": "view",
      "type": "function"
    },
    {
      "inputs": [],
      "name": "owner",
      "outputs": [
        {
          "internalType": "address",
          "name": "",
          "type": "address"
        }
      ],
      "stateMutability": "view",
      "type": "function"
    },
    {
      "inputs": [],
      "name": "paused",
      "outputs": [
        {
          "internalType": "bool",
          "name": "",
          "type": "bool"
        }
      ],
      "stateMutability": "view",
      "type": "function"
    },
    {
      "inputs": [],
      "name": "proxiableUUID",
      "outputs": [
        {
          "internalType": "bytes32",
          "name": "",
          "type": "bytes32"
        }
      ],
      "stateMutability": "view",
      "type": "function"
    },
    {
      "inputs": [],
      "name": "renounceOwnership",
      "outputs": [],
      "stateMutability": "nonpayable",
      "type": "function"
    },
    {
      "inputs": [
        {
          "internalType": "uint32",
          "name": "",
          "type": "uint32"
        }
      ],
      "name": "supplyCheckpoints",
      "outputs": [
        {
          "internalType": "uint256",
          "name": "timestamp",
          "type": "uint256"
        },
        {
          "internalType": "uint256",
          "name": "supply",
          "type": "uint256"
        }
      ],
      "stateMutability": "view",
      "type": "function"
    },
    {
      "inputs": [],
      "name": "supplyEpoch",
      "outputs": [
        {
          "internalType": "uint32",
          "name": "",
          "type": "uint32"
        }
      ],
      "stateMutability": "view",
      "type": "function"
    },
    {
      "inputs": [],
      "name": "totalVeSupply",
      "outputs": [
        {
          "internalType": "uint256",
          "name": "",
          "type": "uint256"
        }
      ],
      "stateMutability": "view",
      "type": "function"
    },
    {
      "inputs": [
        {
          "internalType": "address",
          "name": "newOwner",
          "type": "address"
        }
      ],
      "name": "transferOwnership",
      "outputs": [],
      "stateMutability": "nonpayable",
      "type": "function"
    },
    {
      "inputs": [],
      "name": "uniToken",
      "outputs": [
        {
          "internalType": "contract IERC20Upgradeable",
          "name": "",
          "type": "address"
        }
      ],
      "stateMutability": "view",
      "type": "function"
    },
    {
      "inputs": [
        {
          "internalType": "address",
          "name": "newImplementation",
          "type": "address"
        }
      ],
      "name": "upgradeTo",
      "outputs": [],
      "stateMutability": "nonpayable",
      "type": "function"
    },
    {
      "inputs": [
        {
          "internalType": "address",
          "name": "newImplementation",
          "type": "address"
        },
        {
          "internalType": "bytes",
          "name": "data",
          "type": "bytes"
        }
      ],
      "name": "upgradeToAndCall",
      "outputs": [],
      "stateMutability": "payable",
      "type": "function"
    },
    {
      "inputs": [
        {
          "internalType": "address",
          "name": "user",
          "type": "address"
        }
      ],
      "name": "veBalanceOf",
      "outputs": [
        {
          "internalType": "uint256",
          "name": "",
          "type": "uint256"
        }
      ],
      "stateMutability": "view",
      "type": "function"
    },
    {
      "inputs": [],
      "name": "withdraw",
      "outputs": [],
      "stateMutability": "nonpayable",
      "type": "function"
    },
    {
      "stateMutability": "payable",
      "type": "receive"
    }
  ],
  "bytecode": "0x60a06040523060805234801561001457600080fd5b50608051611c2861004c600039600081816105c601528181610606015281816107eb0152818161082b01526108be0152611c286000f3fe6080604052600436106101235760003560e01c806385ce4fee116100a0578063afbe710911610064578063afbe710914610369578063b52c05fe146103b3578063c4d66de8146103d3578063ee29377b146103f3578063f2fde38b1461042657610165565b806385ce4fee146102ad57806388b18045146102e65780638da5cb5b146102fd5780639f17f7341461031b578063a153e7081461033b57610165565b80634f1ef286116100e75780634f1ef2861461022d57806352d1902d146102405780635c975abb14610255578063715018a6146102785780637c616fe61461028d57610165565b806315456eba1461017d578063237922791461019f57806326949984146101e05780633659cfe6146101f85780633ccfd60b1461021857610165565b366101655760405162461bcd60e51b815260206004820152600d60248201526c0eccaaa9c927440dcde408aa89609b1b60448201526064015b60405180910390fd5b60405162461bcd60e51b815260040161015c906117e3565b34801561018957600080fd5b5061019d61019836600461180b565b610446565b005b3480156101ab57600080fd5b506101cd6101ba366004611840565b61012f6020526000908152604090205481565b6040519081526020015b60405180910390f35b3480156101ec57600080fd5b506101cd630784ce0081565b34801561020457600080fd5b5061019d610213366004611840565b6105bc565b34801561022457600080fd5b5061019d610698565b61019d61023b366004611871565b6107e1565b34801561024c57600080fd5b506101cd6108b1565b34801561026157600080fd5b5060655460ff1660405190151581526020016101d7565b34801561028457600080fd5b5061019d610964565b34801561029957600080fd5b5061019d6102a836600461180b565b610976565b3480156102b957600080fd5b5061012d546102ce906001600160a01b031681565b6040516001600160a01b0390911681526020016101d7565b3480156102f257600080fd5b506101cd6101305481565b34801561030957600080fd5b506033546001600160a01b03166102ce565b34801561032757600080fd5b506101cd610336366004611840565b610ab5565b34801561034757600080fd5b506101cd610356366004611840565b61012e6020526000908152604090205481565b34801561037557600080fd5b5061039e610384366004611933565b610131602052600090815260409020805460019091015482565b604080519283526020830191909152016101d7565b3480156103bf57600080fd5b5061019d6103ce366004611960565b610b22565b3480156103df57600080fd5b5061019d6103ee366004611840565b610c7f565b3480156103ff57600080fd5b50610132546104119063ffffffff1681565b60405163ffffffff90911681526020016101d7565b34801561043257600080fd5b5061019d610441366004611840565b610e0e565b61044e610e84565b610456610edd565b33600090815261012e602090815260408083205461012f90925290912054811580159061048257508042105b801561048e5750600083115b6104aa5760405162461bcd60e51b815260040161015c906117e3565b6000630784ce006104bb4284611998565b6104c590856119ab565b6104cf91906119c2565b90506000630784ce006104e24285611998565b6104ec87876119e4565b6104f691906119ab565b61050091906119c2565b61012d5490915061051c906001600160a01b0316333088610f23565b61052685856119e4565b33600090815261012e60205260409020556105418282611998565b610130600082825461055391906119e4565b909155506105619050610f94565b33600081815261012e6020908152604091829020548251898152918201527f2f96a8d78c7d7d075028bca068085002682ef5aa3b082d115bfb835bc8db47f491015b60405180910390a2505050506105b96001609755565b50565b6001600160a01b037f00000000000000000000000000000000000000000000000000000000000000001630036106045760405162461bcd60e51b815260040161015c906119f7565b7f00000000000000000000000000000000000000000000000000000000000000006001600160a01b031661064d600080516020611bac833981519152546001600160a01b031690565b6001600160a01b0316146106735760405162461bcd60e51b815260040161015c90611a43565b61067c8161104d565b604080516000808252602082019092526105b991839190611055565b6106a0610e84565b33600090815261012e602090815260408083205461012f9092529091205481158015906106cd5750804210155b6107195760405162461bcd60e51b815260206004820152601760248201527f7665554e493a20696e76616c6964207769746864726177000000000000000000604482015260640161015c565b6000630784ce0061072a4284611998565b61073490856119ab565b61073e91906119c2565b33600090815261012e6020908152604080832083905561012f909152812081905561013080549293508392909190610777908490611998565b909155506107859050610f94565b61012d5461079d906001600160a01b031633856111c5565b60405183815233907f7084f5476618d8e60b11ef0d7d3f06914655adb8793e28ff7f018d4c76d505d59060200160405180910390a25050506107df6001609755565b565b6001600160a01b037f00000000000000000000000000000000000000000000000000000000000000001630036108295760405162461bcd60e51b815260040161015c906119f7565b7f00000000000000000000000000000000000000000000000000000000000000006001600160a01b0316610872600080516020611bac833981519152546001600160a01b031690565b6001600160a01b0316146108985760405162461bcd60e51b815260040161015c90611a43565b6108a18261104d565b6108ad82826001611055565b5050565b6000306001600160a01b037f000000000000000000000000000000000000000000000000000000000000000016146109515760405162461bcd60e51b815260206004820152603860248201527f555550535570677261646561626c653a206d757374206e6f742062652063616c60448201527f6c6564207468726f7567682064656c656761746563616c6c0000000000000000606482015260840161015c565b50600080516020611bac83398151915290565b61096c6111f5565b6107df600061124f565b61097e610e84565b610986610edd565b33600090815261012e602090815260408083205461012f9092529091205481158015906109b257504281115b80156109bd57508083115b80156109d657506109d2630784ce00426119e4565b8311155b6109f25760405162461bcd60e51b815260040161015c906117e3565b6000630784ce00610a034284611998565b610a0d90856119ab565b610a1791906119c2565b90506000630784ce00610a2a4287611998565b610a3490866119ab565b610a3e91906119c2565b33600090815261012f602052604090208690559050610a5d8282611998565b6101306000828254610a6f91906119e4565b90915550610a7d9050610f94565b604080518481526020810187905233917f1330a2b7f70d74408554b6e5d73c6aefa8d88e43a5cf2dde8220b95a7bb23e3591016105a3565b6001600160a01b038116600090815261012e602090815260408083205461012f909252822054811580610ae85750804210155b15610af7575060009392505050565b630784ce00610b064283611998565b610b1090846119ab565b610b1a91906119c2565b949350505050565b610b2a610e84565b610b32610edd565b600082118015610b50575033600090815261012e6020526040902054155b8015610b5b57504281115b8015610b745750610b70630784ce00426119e4565b8111155b610bb65760405162461bcd60e51b81526020600482015260136024820152727665554e493a20696e76616c6964206c6f636b60681b604482015260640161015c565b6000630784ce00610bc74284611998565b610bd190856119ab565b610bdb91906119c2565b61012d54909150610bf7906001600160a01b0316333086610f23565b33600090815261012e6020908152604080832086905561012f90915281208390556101308054839290610c2b9084906119e4565b90915550610c399050610f94565b604080518481526020810184905233917f167357c41e38a45e1950f61b1f5accf902c878d83f1685f7f72fb666203ce047910160405180910390a2506108ad6001609755565b600054610100900460ff1615808015610c9f5750600054600160ff909116105b80610cb95750303b158015610cb9575060005460ff166001145b610d1c5760405162461bcd60e51b815260206004820152602e60248201527f496e697469616c697a61626c653a20636f6e747261637420697320616c72656160448201526d191e481a5b9a5d1a585b1a5e995960921b606482015260840161015c565b6000805460ff191660011790558015610d3f576000805461ff0019166101001790555b6001600160a01b038216610d895760405162461bcd60e51b81526020600482015260116024820152703b32aaa7249d103d32b937903a37b5b2b760791b604482015260640161015c565b610d916112a1565b610d996112d0565b610da16112ff565b610da961132e565b61012d80546001600160a01b0319166001600160a01b03841617905580156108ad576000805461ff0019169055604051600181527f7f26b83ff96e1f2b6a682f133852f6798a09c465da95921460cefb38474024989060200160405180910390a15050565b610e166111f5565b6001600160a01b038116610e7b5760405162461bcd60e51b815260206004820152602660248201527f4f776e61626c653a206e6577206f776e657220697320746865207a65726f206160448201526564647265737360d01b606482015260840161015c565b6105b98161124f565b600260975403610ed65760405162461bcd60e51b815260206004820152601f60248201527f5265656e7472616e637947756172643a207265656e7472616e742063616c6c00604482015260640161015c565b6002609755565b60655460ff16156107df5760405162461bcd60e51b815260206004820152601060248201526f14185d5cd8589b194e881c185d5cd95960821b604482015260640161015c565b6040516001600160a01b0380851660248301528316604482015260648101829052610f8e9085906323b872dd60e01b906084015b60408051601f198184030181529190526020810180516001600160e01b03166001600160e01b031990931692909217909152611355565b50505050565b610132805463ffffffff16906000610fab83611a8f565b82546101009290920a63ffffffff8181021990931691831602179091556040805180820182524280825261013080546020808501918252610132805488166000908152610131835287902095518655915160019590950194909455549054845192835292820192909252921692507f24d78e18021455fdbb7d974c9ea303c31c3ece0739749cfe8631a7e70cec1409910160405180910390a2565b6001609755565b6105b96111f5565b7f4910fdfa16fed3260ed0e7147f7cc6da11a60208b5b9406d12a635614ffd91435460ff161561108d576110888361142a565b505050565b826001600160a01b03166352d1902d6040518163ffffffff1660e01b8152600401602060405180830381865afa9250505080156110e7575060408051601f3d908101601f191682019092526110e491810190611ab2565b60015b61114a5760405162461bcd60e51b815260206004820152602e60248201527f45524331393637557067726164653a206e657720696d706c656d656e7461746960448201526d6f6e206973206e6f74205555505360901b606482015260840161015c565b600080516020611bac83398151915281146111b95760405162461bcd60e51b815260206004820152602960248201527f45524331393637557067726164653a20756e737570706f727465642070726f786044820152681a58589b195555525160ba1b606482015260840161015c565b506110888383836114c6565b6040516001600160a01b03831660248201526044810182905261108890849063a9059cbb60e01b90606401610f57565b6033546001600160a01b031633146107df5760405162461bcd60e51b815260206004820181905260248201527f4f776e61626c653a2063616c6c6572206973206e6f7420746865206f776e6572604482015260640161015c565b603380546001600160a01b038381166001600160a01b0319831681179093556040519116919082907f8be0079c531659141344cd1fd0a4f28419497f9722a3daafe3b4186f6b6457e090600090a35050565b600054610100900460ff166112c85760405162461bcd60e51b815260040161015c90611acb565b6107df6114eb565b600054610100900460ff166112f75760405162461bcd60e51b815260040161015c90611acb565b6107df61151b565b600054610100900460ff166113265760405162461bcd60e51b815260040161015c90611acb565b6107df61154e565b600054610100900460ff166107df5760405162461bcd60e51b815260040161015c90611acb565b60006113aa826040518060400160405280602081526020017f5361666545524332303a206c6f772d6c6576656c2063616c6c206661696c6564815250856001600160a01b03166115759092919063ffffffff16565b90508051600014806113cb5750808060200190518101906113cb9190611b16565b6110885760405162461bcd60e51b815260206004820152602a60248201527f5361666545524332303a204552433230206f7065726174696f6e20646964206e6044820152691bdd081cdd58d8d9595960b21b606482015260840161015c565b6001600160a01b0381163b6114975760405162461bcd60e51b815260206004820152602d60248201527f455243313936373a206e657720696d706c656d656e746174696f6e206973206e60448201526c1bdd08184818dbdb9d1c9858dd609a1b606482015260840161015c565b600080516020611bac83398151915280546001600160a01b0319166001600160a01b0392909216919091179055565b6114cf83611584565b6000825111806114dc5750805b1561108857610f8e83836115c4565b600054610100900460ff166115125760405162461bcd60e51b815260040161015c90611acb565b6107df3361124f565b600054610100900460ff166115425760405162461bcd60e51b815260040161015c90611acb565b6065805460ff19169055565b600054610100900460ff166110465760405162461bcd60e51b815260040161015c90611acb565b6060610b1a84846000856115f2565b61158d8161142a565b6040516001600160a01b038216907fbc7cd75a20ee27fd9adebab32041f755214dbc6bffa90cc0225b39da2e5c2d3b90600090a250565b60606115e98383604051806060016040528060278152602001611bcc602791396116cd565b90505b92915050565b6060824710156116535760405162461bcd60e51b815260206004820152602660248201527f416464726573733a20696e73756666696369656e742062616c616e636520666f6044820152651c8818d85b1b60d21b606482015260840161015c565b600080866001600160a01b0316858760405161166f9190611b5c565b60006040518083038185875af1925050503d80600081146116ac576040519150601f19603f3d011682016040523d82523d6000602084013e6116b1565b606091505b50915091506116c287838387611745565b979650505050505050565b6060600080856001600160a01b0316856040516116ea9190611b5c565b600060405180830381855af49150503d8060008114611725576040519150601f19603f3d011682016040523d82523d6000602084013e61172a565b606091505b509150915061173b86838387611745565b9695505050505050565b606083156117b45782516000036117ad576001600160a01b0385163b6117ad5760405162461bcd60e51b815260206004820152601d60248201527f416464726573733a2063616c6c20746f206e6f6e2d636f6e7472616374000000604482015260640161015c565b5081610b1a565b610b1a83838151156117c95781518083602001fd5b8060405162461bcd60e51b815260040161015c9190611b78565b6020808252600e908201526d1d995553924e881a5b9d985b1a5960921b604082015260600190565b60006020828403121561181d57600080fd5b5035919050565b80356001600160a01b038116811461183b57600080fd5b919050565b60006020828403121561185257600080fd5b6115e982611824565b634e487b7160e01b600052604160045260246000fd5b6000806040838503121561188457600080fd5b61188d83611824565b9150602083013567ffffffffffffffff808211156118aa57600080fd5b818501915085601f8301126118be57600080fd5b8135818111156118d0576118d061185b565b604051601f8201601f19908116603f011681019083821181831017156118f8576118f861185b565b8160405282815288602084870101111561191157600080fd5b8260208601602083013760006020848301015280955050505050509250929050565b60006020828403121561194557600080fd5b813563ffffffff8116811461195957600080fd5b9392505050565b6000806040838503121561197357600080fd5b50508035926020909101359150565b634e487b7160e01b600052601160045260246000fd5b818103818111156115ec576115ec611982565b80820281158282048414176115ec576115ec611982565b6000826119df57634e487b7160e01b600052601260045260246000fd5b500490565b808201808211156115ec576115ec611982565b6020808252602c908201527f46756e6374696f6e206d7573742062652063616c6c6564207468726f7567682060408201526b19195b1959d85d1958d85b1b60a21b606082015260800190565b6020808252602c908201527f46756e6374696f6e206d7573742062652063616c6c6564207468726f7567682060408201526b6163746976652070726f787960a01b606082015260800190565b600063ffffffff808316818103611aa857611aa8611982565b6001019392505050565b600060208284031215611ac457600080fd5b5051919050565b6020808252602b908201527f496e697469616c697a61626c653a20636f6e7472616374206973206e6f74206960408201526a6e697469616c697a696e6760a81b606082015260800190565b600060208284031215611b2857600080fd5b8151801515811461195957600080fd5b60005b83811015611b53578181015183820152602001611b3b565b50506000910152565b60008251611b6e818460208701611b38565b9190910192915050565b6020815260008251806020840152611b97816040850160208701611b38565b601f01601f1916919091016040019291505056fe360894a13ba1a3210667c828492db98dca3e2076cc3735a920a3ca505d382bbc416464726573733a206c6f772d6c6576656c2064656c65676174652063616c6c206661696c6564a2646970667358221220d53e291deae1fa8c7490e892fc9827950f547d71a6174116263ec667a5b8bbad64736f6c63430008140033",
  "linkReferences": {},
  "deployedLinkReferences": {}
}